:0200000407FCF7
:100000006881FC07BD67FC07D167FC07EB67FC074D
:100010000568FC070568FC070568FC070568FC0720
:100020000000000000000000000000000568FC0760
:1000300000000000000000000568FC070568FC07E0
:10004000111FFC07595FFC071D27F0072923FC0738
:100050007922FC070568FC07051FFC070568FC07FB
:100060000568FC070568FC078520FC078F20FC0756
:100070009920FC07A320FC07AD20FC070568FC07BE
:100080006D23FC070568FC070568FC070568FC078D
:100090000568FC070568FC070568FC070568FC07A0
:0200000407FCF7
:100510000348854601F0DEFC004800476149FC07BE
:100520006881FC0770B50E4604460022032151F78E
:1005300012FA054652F7DEFB6880284651F71CFA8E
:1005400052F7D8FB7188884200D3084601462046FE
:1005500051F7F9FA002070BD0246FF4B92009A58FD
:100560000120126900290ED0517F5E239B5C002B75
:100570000BD0052906D1517E090702D5917C0907C8
:1005800000D400207047917DEFE70229F9D00429BB
:10059000F7D00529F6D10020EDE7024630B59300EB
:1005A000ED4A0120D2581269137DD47E157F234075
:1005B000547D2C40012901D0022909D1957C527E1D
:1005C00015402A0704D41A462243D20700D100203E
:1005D000032901D0042904D1590702D4610700D4AA
:1005E000002030BDF8B514460D4610465BF795FC6B
:1005F000240A002830D0D949A2008B5801271E8B2D
:10060000BF023E431E83132826D0142824D0152869
:1006100011D088582D210A5C0123D10600290CDA5B
:100620000146A0318E7D002E07D08B753D212046DE
:1006300045F7E0FE10E00220F8BD110703D50021C8
:10064000A0308175F7E7A0308375204643F7CCFBD7
:100650002946204643F70BFC0020F8BDFFB581B0CA
:100660001546170A10465BF758FC002838D01328A7
:1006700036D0142834D0290A8C00B84E152815D04D
:10068000FF20294603305BF72FFD30592D21095CEF
:10069000C90603D5A030C07D00280ED03D026D1CD8
:1006A000A8B25BF73AFC19280CD00FE030590121B1
:1006B000A030C175022005B0F0BD3D21384645F798
:1006C00099FE0DE0A8B201215BF7F5FB305901223C
:1006D000018B5202914301833846029943F7C7FBCD
:1006E0000020E8E7F0B59D498700C9590026803110
:1006F0004A8C8B8C1B2A00D21B228C8B944200D2FA
:1007000022468A849A4200D001260B8CCD8C1B2B6A
:1007100000D21B23CC8B9C4200D22346CB84AB421D
:1007200000D001260B8ECD8D9C46FF2349339D4280
:1007300001D21C4600E02C460D8DA54200D3254673
:100740000D86654500D001264C8EA4468C8D9C42BA
:1007500000D21C464B8DA34200D21C464C866445F9
:1007600000D00126EB080B3B9BB29A4200D2134605
:100770008B86522379495843794BCA591C68803279
:100780000419D28C8034E285C9591A6880318018E6
:10079000498E803001863046F0BD10B50446714860
:1007A000008D8007800F012800D000206071002894
:1007B00007D057F71BFF01460622A01D5DF776FC08
:1007C00010BD06226849A01DF8E770B50546002453
:1007D00042F7D1F82855641C082CF9DB70BDF8B538
:1007E000022707700126044646700D4688795F4946
:1007F000C96988472A210855287900210007000F78
:10080000A07003005DF7A6FC07050709100D100B8B
:100810001000A1700AE0A67026E0032002E0A77095
:1008200004E00420A07001E001281DD0A888000A7F
:10083000801FC0B2A0721F2800D9A172284642F7BB
:100840004FF9811D2046A27A0B305DF72FFC284618
:1008500042F746F901460622201D5DF727FC28795C
:100860004006C00FE070F8BDA172F0E7F7B544682C
:100870008CB02546243503950546074624354CF7AC
:1008800043FA06464420405B5221484334490968F4
:100890004018C0304089694608840121384647F72E
:1008A00072F94CF7A6F809900E9800698088000A42
:1008B000C1002F480818298940182D495B315DF780
:1008C0007BFB01466868039D4718403528890690E0
:1008D0000090A0680099381A400140095DF76CFB50
:1008E0000A910098C019401A400140096946A06069
:1008F000098C4900C919891C49014909884204D257
:100900000699401840014009A06001460998081A5C
:10091000400118494009884215D900202B89A26856
:10092000401CD21852015209A260EA89521CEA8185
:10093000A368099A9A1A520152098A42EED801B262
:100940000D9847F7C1F9A1680998081A4201607D1E
:100950005209824221D80FE02C7EFD071879FD074D
:100960004C76FD074C7EFD07CF79FD07B47FFD0770
:1009700016020000FFFFFF032A898918490149096F
:10098000A1602A890A99511A814206D901210D983C
:1009900047F79AF9E889401CE8812989A0685DF742
:1009A0000BFBF1802889B080208A3081A888708173
:1009B0000020B081C807C00FB073A88852214843F7
:1009C0008E30308230464CF7AAF9039846632046B1
:1009D0000FB0F0BDFFB5002093B006460124FE49DC
:1009E00049680A7821460C2A0CD06A461173002205
:1009F0001192002E09D015990291169D1F2D54D9E0
:100A0000402052E000242246119413990291149D33
:100A1000F4E7029989184978012905D0172903D0EC
:100A2000182901D0192912D1631E04E003AFFF5C1D
:100A30008F4204D05B1E5BB2002BF7DA03E0002B81
:100A400001DB4A2003E003AB1955641CE4B20B0040
:100A50005DF780FB1D2610101010101010101026CE
:100A6000262626262626262626262626101010107E
:100A700010102600119B03E00BAFFF5C8F4204D0E7
:100A80005B1E5BB2002BF7DA03E0002B01DB4A2090
:100A900006E0119F0BABD9551199491CC9B21191B0
:100AA0000299895C521C89188AB2AA4201D2002894
:100AB000AFD0AA4200D04A20761CF6B2022E01D254
:100AC000002894D017B0F0BD10B50022134607E0FF
:100AD00084186478012C07D0845C521CA21892B24E
:100AE0008A42F5D3184610BD80188378FAE7F0B52E
:100AF0000646A9B01546002084006318DA789F786E
:100B000012025B783A4352BA1B041A430B5D072466
:100B10001B061A43231A9F0020AB401CDA510828F9
:100B2000EAD300218A0090190746C37880781B0217
:100B3000034378785BBA00040343B05C10AA000654
:100B40000343601A800013503846223043780078FF
:100B50001B0203433846203047785BBA3F040078D5
:100B60003B43000603430F27781A8000491C1350AB
:100B70000829D7D35CF72EF9014630465CF7A7FD6C
:100B800000282DD05CF726F9034620AA10A9684654
:100B90005DF7A8F900226846A11A8B009600C75C91
:100BA0007119CF70C75A3F0A8F70C7583F0C4F70EA
:100BB000C35820311B0EAB550F239B1A9B00C65CFC
:100BC000CE70C65A521C360A8E70C658360C4E70FD
:100BD000C3581B0E0B70082ADED3002029B0F0BDCD
:100BE0000120FBE7F7B500251746064641232A46B4
:100BF00029460A205AF7DCFF0446002E10D0012EA9
:100C000002D0022E0CD105E02022611C002041F709
:100C1000CBFE04E0621C3946019841F775FE207056
:100C200020465AF7DEFF2846FEBDF8B56B48009017
:100C300007680C46002F7BD005461C35287E00280F
:100C400076D0012802D0022872D102E02078002854
:100C500019D038896249002688423AD107204BF7DB
:100C60004BFC002835D042233E2200215D485AF734
:100C70009FFF082101702178002913D003214170C2
:100C80002178817043E055480226611C14302E768D
:100C9000202204465DF70AFA22465349304641F7BE
:100CA0003DFE45E0002146701F22531A1B194718CC
:100CB0005B78491CBB702029F7DB00213F22531AC7
:100CC00047181B1920375B78491CBB702029F6DBBD
:100CD0001DE043493889491C88421AD108204BF746
:100CE0000BFC002815D022233E2200213D485AF754
:100CF0005FFF09210170217800291BD0122141706A
:100D00000021FF224318491C9A702029FADB4DF775
:100D1000FFFE2E7640205BF7CEFB009841F702FFE6
:100D20005AF789FF00980068002801D041F7F1FDCB
:100D30000020F8BD002146701F22531A1B194718C6
:100D40005B78491CBB702029F7DBE0E770B50878B9
:100D500000250C46012809D01D2810D02B2812D0C0
:100D60004022194655F7E4FE284670BD5BF78DFA20
:100D70001948012504601D4857F76DFAF4E71C482F
:100D800041F730FDF0E71B4801680029ECD1012153
:100D90000160194841F72CFEE6E770B5104D174C7D
:100DA000223DAB422ED10F4809232A460021C01E06
:100DB0005AF7FEFE044608221149401C5DF776F9F9
:100DC00020790821084320710025257020464DF721
:100DD0009FFE284670BD00004C7EFD07287AFD0767
:100DE000252000000408000089E7F107030C00003B
:100DF000C3C3C3C35077FD07CC7DFD070DC3F00708
:100E00005CE5F107A047E5E7F1B584B00498FF4938
:100E100080000C5804980502A81D0290002C15D0E3
:100E20006068818804290CD34188861D0C380091A4
:100E300001903146049857F7E4FFF549884206D1FE
:100E400060680C385AF7F7FE0020606033E4F178F0
:100E5000B2780F02019928431743C88038464038BA
:100E60003F2819D803223946049854F751F8060050
:100E7000E6D0B07B0128E3D13420B07329460A3193
:100E80000423E448029A5AF793FEB1894180102165
:100E900001705AF7A6FED3E761683420087002217A
:100EA00000985AF777FD05463146009A5DF7FEF83F
:100EB00068782978000208436168C880E878A978D2
:100EC000000208436168062F08810BD0042F09D067
:100ED0006068052F10D00C385AF7ADFE28465AF737
:100EE000D4FDB1E760688188052913D3297981721F
:100EF0006168287988720DE0818805290AD32979EB
:100F0000817261682879887260688188062901D3B6
:100F10006979C17260685AF764FEDFE7FFB587B090
:100F20000E4609985AF7F9FF0999090A0391002812
:100F300076D08800B54905900D58B749B079096B4E
:100F40000A225043B478081841F7CAFD0190686836
:100F5000002808D0012C2DD00398FFF755FF6868B2
:100F6000002802D026E0022C5AD1B088012702289E
:100F700005D30198417800780C02044302E051F750
:100F8000B9FE044651F7B6FEA04201D20224002762
:100F900020464C3083B29E49A048099A5AF708FE71
:100FA000241D68604480002F01D0002000E0342020
:100FB0006968087068680028BAD0811D0091B288FD
:100FC0000199841C071D01928088238882189A4207
:100FD00009D8009A8018019A5DF768F83988019855
:100FE0000818388009E01A1A009BC0185DF75EF8EF
:100FF00020883880696834200870388804280FD326
:10100000009841780278080210432188001D884228
:1010100007D280B220803988814207D9388002E027
:1010200068E0884202D969683420087038882188CD
:1010300088425FD1686800990C380190039857F78F
:10104000E0FE69680978002951D1714988424ED083
:1010500003990F0201993843C8802088022101902A
:101060005AF798FC0490228800995DF71FF80498BD
:1010700000283FD0696800208880019802226B46D2
:10108000039907C36868049B821C011D801D41F7FA
:1010900001FC6968087004985AF7F7FC6868418891
:1010A000002902D00178002954D0018940393F2914
:1010B00044D8017830291ED00146544A05980C398D
:1010C0001058083041F74AFD69680398891D41F7B7
:1010D000F2FB4628686801891FD00322039853F762
:1010E00017FF00282CD0808A00282CD028E00398F5
:1010F000FFF78AFE42E04A49098D0906C90F07D069
:1011000048490C380968099A898D89B25AF786FDD1
:1011100068680C385AF78FFD12E00322039853F7E2
:10112000F7FE04000CD039460A3104233948099AE5
:101130005AF73EFDA1894180102101705AF751FDF7
:10114000002068601AE0686800220189039841F76E
:10115000ADFBF5E70189084640383F280ED8032249
:10116000039853F7D5FE002808D0808A002805D1BF
:10117000686800220189039841F798FBB07941F72C
:10118000A2FC00200BB0F0BDFFB58BB00646169850
:101190000027022821D00D980188149881427DD320
:1011A0007188084640383F2802D8159853F7F1FE59
:1011B0000C98361D0088149A80190E995CF776FFFA
:1011C0000C980188149808180C9908800D980188CB
:1011D0001498081A0D99088069E100200E9D079067
:1011E00069782C78090221433180E978AC780902CA
:1011F000214371808C46403904242D1D024603464C
:101200008E46402900D3287861460DE0AC7DFD076D
:10121000FFFF0000260E0000E078FD07010A000035
:101220004C7EFD075876FD0704291FD0052914D0F0
:10123000062918D070463F283ED8159853F7A9FEC6
:101240000006000E04D0FC48008D0006C00F31D00F
:1012500002230120F94A002712E0697800290FD003
:10126000F74A17230CE0F74A0F2309E0522802D06F
:10127000D22802D002E0142000E01520F24A1F23F9
:10128000002A7DD098427BD280001058049000281C
:10129000F7D0002008900590708800E006E1403803
:1012A000402803D32878052430716D1C701D0090F0
:1012B0000498AFE03027EDE03327EBE0522864D00C
:1012C0000CDC4B283FD004DC41286AD042285AD19C
:1012D00011E04C2820D0502855D140E0632830D070
:1012E00004DC572818D061284DD19BE06C2864D0CD
:1012F000772848D109E00098297801700098641C8B
:10130000401CA4B26D1C009081E00498401C049025
:101310000178089881427AD10098A41C401C4108A9
:101320004900881C009068782A78000210430880E1
:101330000599AD1CA4B2002969D008900020059041
:1013400065E00120FBE71022294600985CF7AEFE1D
:10135000009810341030A4B21035009057E02046A9
:1013600040301499039088420DD8402229460098B5
:101370005CF79CFE009840300090039884B200E037
:1013800079E0403543E0342741E0082229460098BF
:101390005CF78CFE009808340830A4B20835009041
:1013A00035E00622294600985CF780FE0098A41DCF
:1013B000801DA4B2AD1D009029E01498001B80B2DE
:1013C00003903088001B001D81B201200790049813
:1013D000401C04900098401C400840000090049875
:1013E000007857281CD04228CDD100980170090AF6
:1013F000417000982946801C0090039A5CF756FEC5
:1014000003980399201884B200984018009004981B
:10141000401C04900078002820D0002F19D01DE037
:101420004908E2E71498001B80B203900098039AE1
:10143000401C41084900012000910790294600986E
:101440005CF734FE03980099201884B203980818BA
:10145000DCE70D990988A14200D32FE70D98008899
:10146000A04208D304990978002904D107990029DA
:1014700003D1A04201D034270CE00D99001B088055
:101480000C9801880098801B001F08180C99002FE9
:1014900008800CD07088042809D0062807D040386E
:1014A000402804D30E984079707100E03427384604
:1014B0000FB0F0BDFFB581B01F4616460C46104672
:1014C0005AF72BFD00253F2802D02189062908D094
:1014D0003B4632462146019854F7E7F80546284630
:1014E000B4E4000701D50225F9E720780028F6D1F9
:1014F000300AA11D41F7E9F8F1E7F3B581B0019891
:10150000524C850060590F464068CE880146243110
:10151000009146F70BFF00994D4A40310091C9896F
:10152000701A80B2904214D2B14212D06059314642
:10153000406845F7B4FF60590522791C1F305CF7FD
:10154000B5FD019805210002401C80B25AF7B3FC9A
:10155000FEBD60590522791C1F305CF7A7FD00987D
:10156000808841F78FFFFEBDF8B53A4C06468500EE
:101570000F4660594821095C24290ED100691022C8
:10158000791D2E305CF792FD61592520403108729B
:1015900000221146304652F761FE60594821095C2D
:1015A0000C291FD100691022791D2E305CF77EFDB9
:1015B00060595F210069095C09072DD401462E316D
:1015C00010221E305CF796FD00280CD060590921CE
:1015D00040300172304653F75FFB0146002230462F
:1015E00052F7C7F9F8BD0421684601706A46052123
:1015F000304652F769FB684601786020014368462F
:101600000170304653F748FB0146684602780123D3
:10161000304652F7C3FAF8BD304653F73DFB012878
:101620001AD060590721403001720022114630461D
:1016300052F714FEF8BD00004C7EFD0714F3F107CD
:101640001CF3F10778F3F107B4F3F1071879FD07FC
:10165000FF7F00002C7EFD07615900200969C03121
:10166000887160590421026930461E3252F72CFB02
:10167000605901694031897F002907D01A21403023
:1016800001720021304652F773FED3E71B21403030
:101690000172304652F7C1FECCE7F8B5FC4C054666
:1016A0008600A0594822125C192AC3D14022493031
:1016B000491D5CF7FBFCA0594022F64949305CF714
:1016C00019FD002805D0F3492846203959F771FF44
:1016D000B0E70B21684601706A460521284652F79B
:1016E000F3FA684601786020014368460170284695
:1016F00053F7D2FA0146684602780123284652F78A
:101700004DFA97E7FFB581B003980C46060A00250D
:101710005AF703FC002818D0132816D0142814D028
:10172000DD48B700C0592030407BC00628D503985B
:101730005AF7F3FB15280CD0A07941F7C4F93046CD
:1017400045F7DBFD032806D015E0A07941F7BBF98A
:101750001FE002251DE0D048C0592030407B4007E3
:1017600004D53D21304641F7E6FD04E03D2200214D
:10177000304641F7EEFD3D21304644F73BFE08E0A0
:1017800020460C38C5498180C68020464DF7C0F9F7
:1017900001252846A4E6F1B58EB00E9841F7A0F9D0
:1017A00004460E98694600794006C00F0A900690DC
:1017B0000A208883628BBA49101A88427ED2E08A56
:1017C00006287BD31921C901884277D8238BFF21B2
:1017D000F5318B4272D85B1C990059184143491C62
:1017E0000A2349105A43914268DC217F00290CD119
:1017F000617F002909D1A17F002906D1E17F00295D
:1018000003D12021095DC90658D0274620377978B1
:10181000C906C90E491F0C2950D2A18A81424DD850
:10182000E17C00294AD0421E082A01D9082000E0A4
:10183000401E814242D805A844F7C4FD00283DD18E
:10184000984D0622E861214608A85CF72FFCA8788D
:101850002E46803E00287ED06079800901280AD07B
:1018600020460A994AF7ECFE00285ED03821095C30
:10187000002954D059E020464AF74FFFE86100287C
:1018800004D10BA920464AF75EFFE861F16A887A25
:10189000012801D0042810D1E86900280ED00622C2
:1018A000253010315CF726FC002807D1E869F16A81
:1018B0002030C07AC97B884200D100E0A2E0E9690B
:1018C000002932D0062208A825315CF7EFFBE86931
:1018D0002B21095C07AA253006914AF793FD0028C1
:1018E0000FD0E8692030C07A002811D168466E49CF
:1018F000808B49F739FD07AA01216B484AF782FD21
:1019000006E007AA01210BA84AF77CFD00280CD0AD
:10191000E9696846808B323149F73CFD05E04218A1
:10192000527D002A08D010296CDBF06A407A022828
:1019300006D0032804D00EE0491C1029EFDBF4E7A1
:101940006846808B0A2806D307AA20460A994AF7D8
:1019500059FD002856D0002205A920464AF7FCFD73
:1019600000284FD1F06A407A02280BD0032809D012
:1019700000236846828A08A806994AF70EFE0028C6
:1019800002D02EE00123F4E7E18A68460180218B32
:101990004180618B81807878062241096846817395
:1019A0007878C106C90E684641732146801D5CF7F0
:1019B0007DFB0E9800794006C10F68460173838A4B
:1019C0002146B26D45F7ABFC0146B065684641F76C
:1019D00051FB0020B065214668461C31808A44F7DF
:1019E00044FD47F7E2FC2F4C20342079002805D035
:1019F000002109205AF778FB0020207100210846B9
:101A00005AF759FA54E570B516460C46488853F70C
:101A10001AF90546FF2838D0012153F78AF90C2816
:101A200004D100220121284652F76CFF0023E01860
:101A30000079002803D15B1CDBB2082BF7D31448D4
:101A4000A9004058006900280AD04030C07F000734
:101A500006D4082B04D30121284652F724F814E0B9
:101A600029021E23324611480A315AF7A1F80546C9
:101A70000B202870A089688228460822211D143076
:101A80005CF714FB28465AF7ACF8002070BD000044
:101A90002C7EFD07EC7DFD071879FD070608000088
:101AA000770C0000E479FD0704E5F107160E00004D
:101AB00000207047F7B5784E0D468700F15982B087
:101AC0000E2D08D10A69002A05D0537EDB063DD5CC
:101AD000927CD2063AD540310402C97920460A30B8
:101AE000C907009000290AD00146E32000015AF7F7
:101AF000FBFAF0594030C17949084900C17105200D
:101B0000A11D48234002009A5AF752F804460620C5
:101B1000A0806249A571A8000A58A01C04999047AA
:101B200020465AF75EF8052D10D00E2D0ED05C48D9
:101B30000099006880304269E32000015AF78AFA70
:101B4000F05901224030C1791143C171C8E4F8B5A0
:101B50000C4605465049800008584030C07940077F
:101B600017D4204640F7ACFD69460870002809D01C
:101B700007280ED00121284653F7DBF860260C28F1
:101B800008D00EE02079474980000A5821462846AF
:101B900090474FE56846027801213243284652F7C4
:101BA000B1FE6A460521284652F78EF820790128B1
:101BB000EFD00B28EDD0284653F76EF80146684663
:101BC000027801233243284651F7E8FF32E538B561
:101BD0000D46044653F760F801280DD1204651F711
:101BE000DDFD69460870002807D0092804D10A469F
:101BF0000521204652F768F838BD2749A00008584B
:101C000000690028F8D10121204653F792F80C28EA
:101C100004D100220121204652F774FE21020A312C
:101C200008230A46204859F7C3FF04460A202070BB
:101C30000622691D601C5CF739FA204659F7D1FF6E
:101C400038BD70B50C460546012153F772F80146C0
:101C500070200C2911D0104AA90051580969002997
:101C60000AD064790443284653F716F80146002346
:101C70002246284651F792FF08E762790121024384
:101C8000284652F73FFE01E7094808490160094923
:101C900041607047704770472C7EFD0730F4F107B4
:101CA0005876FD076CF4F107120E00008CBFF107A7
:101CB000C0000840A871FC07F8B53E4C6088C60714
:101CC0006088F60FC005C50F60884008400060803E
:101CD0006088FF270137B843608040F771FE40F706
:101CE00075FE00220821022040F764FE002800D083
:101CF00001206188A18861884908490031436180D9
:101D000061882A02B94311436180F8BD70B501258D
:101D100029492A020A60BFF34F8FBFF36F8F27490B
:101D20000A6027490B681C0A240240231C430C60EC
:101D3000214980390A601F494C880626B443241D76
:101D40004C804C882C434C804C8838252C434C804C
:101D50004C889C434C800F280FD14888330218438D
:101D6000488048881043488048882A0210434880A9
:101D70004888012292039043488070BD10B5114CF1
:101D8000E18A114ACBB21189248BC904890E6404FB
:101D9000640E001B093141430120C002401A80B289
:101DA000584340031189000E090A090201431181B9
:101DB00010BD00002020005080E100E080E200E043
:101DC00008E400E000230050002C0050F8B50202A7
:101DD00005464123092134480A3259F7E9FE2721F3
:101DE0000170044600201F233049AA008F581E1A94
:101DF0004936BE5D2718401C7E702028F6DB002087
:101E00003F238E581F1A4937F65D27182037401C8C
:101E10007E702028F5DB5AF7DDFF0146601C5BF77A
:101E200056FC002812D10A2000906A460521284657
:101E300051F74AFF284652F72FFF009960221143BD
:101E4000CAB201460123284651F7A8FE204659F799
:101E5000C8FEF8BD70B505460446008914490C3427
:101E600088B088421AD100201F216E460A1AA25C4F
:101E70003254401C2028F9DB2022314620465CF7F2
:101E800015F900203F210A1AA25C3254401C202878
:101E9000F9DB20226946A0185CF708F9284649F7C3
:101EA00024FA08B070BD0000270D00002C7EFD074D
:101EB0002620000000280BD000BF00BF00BF00BFDD
:101EC00000BF00BF00BF00BF00BF00BF401EF1D178
:101ED000704700001CB5094800900948019005466C
:101EE0000126009C05E0E36807CC33430C3C98478F
:101EF0001034AC42F7D3FEF70FFB0000F475FC077B
:101F00003476FC0701480121018070470815005014
:101F1000F8B505252C0760898007534E22D0A08A8A
:101F2000400701D503F09AFD218C802001432184D4
:101F3000FF21718004213180218830220A432280D0
:101F4000218803220A4322804849F288B388120478
:101F5000D2188A42F9D335809B49C9896180218C86
:101F600081432184424801884907FCD420883021DC
:101F7000884320802288032082432280002201237C
:101F80001A403C4F3A702A0649D06D1E328802270B
:101F900017439F4337800422728037881743378066
:101FA00022880A43228022880243228032885207F4
:101FB00001D500BFFAE722888A4322802288824323
:101FC0002280F288B7881204D2192B4FD219042A22
:101FD00011D900227C4F3A823F79002F01D019227B
:101FE0001701794A526A921CBA4200D33A46764F98
:101FF0007A621A46C3E7744A118A491C118289B26F
:1020000014290CD300211182117A002900D0132148
:10201000526A521E8A4200D80A46F0494A626189D1
:10202000890706D0618981436181608C01218843E1
:1020300060842089802101432181208A04218843F2
:102040002082A08A8007FCD540F799F9E348006A0E
:102050000A4908600A480168490700D500BE0168BE
:102060004907FCD5F8BDC04600160050E903000042
:10207000083300500477FC0761F8FFFF08020040B6
:102080001000004080B50A2000F0A2F880BD80B5A5
:102090000B2000F09DF880BD80B50C2000F098F872
:1020A00080BD80B50D2000F093F880BD80B50E2076
:1020B00000F08EF880BD0000FEB5019302920D463F
:1020C0000646012000212A465CF734F832015CF70D
:1020D00031F807460C46C149C86B2040896B39402E
:1020E000014300D100BE0198002804D030462946A3
:1020F00000F034F803E03046294600F04BF8B749C9
:10210000C86B2040896B3940014300D100BE70018B
:10211000690008180149029A4252FEBD063000507B
:1021200070B50C46064601250021284622465CF77C
:1021300001F832015BF7FEFFA84AD36B0B40916BAD
:102140000140194300D100BE7001034901430888D2
:10215000E040284070BDC0460030005070B50E46CB
:10216000054601240021204632465BF7E3FF2A01A1
:102170005BF7E0FF994AD36B0B40916B0140194329
:1021800000D100BEB4406801014901430C8070BD1C
:102190000230005070B50E4605460124002120464D
:1021A00032465BF7C7FF2A015BF7C4FF8B4AD36B4C
:1021B0000B40916B0140194300D100BEB44068014F
:1021C000024901430C8070BDB84BFD07043000503C
:1021D000F0B503460A3B01210A469A4093B20B4DE3
:1021E0005C19661C5E400A4B1C8800272E4203D0F7
:1021F0007F1C7608B6B2F9E79443BAB20D46954013
:1022000025431D80814042480160F0BDFEFF010072
:102210000E14005016490A88802313430B8003686C
:10222000144A13604368536083689360C368D36043
:10223000036913614369536183699361C369D3611E
:102240001062364803685362436893628368D362BE
:1022500043691363C3685363006990632D48082280
:1022600002804888800600D4FEE700BE7047C04662
:10227000120000500000FD07024800882448102189
:10228000016070472C13005020490A89042313432E
:102290000B810A89022313430B810A8840231343CD
:1022A0000B801B4A012313601A4A082313804A89B2
:1022B000802313434B810368174A136043685360BC
:1022C00083689360C368D360036913614369536192
:1022D00083699361C369D3611062104803685362D4
:1022E000436893628368D36243691363C36853632B
:1022F000006990638889800600D4FEE700BE4889A3
:10230000074A10408018001D48817047080000509F
:1023100080E200E0003300505000FD0728ED00E0AF
:10232000FC7F00007047000010B50F4CA1880F2003
:102330000840022809D0042804D00C280CD0012819
:10234000F4D110E004F07AF9F0E720880221884304
:1023500020802088802103E004F070F9208801218A
:1023600088432080E2E710BD0411005080B50520AD
:1023700000070188302291430180018803229143A4
:1023800001800421415E002906D512490A885207BE
:1023900002D50A88D20713D18088C0060FD50E480F
:1023A000018809060BD50121818001888022914393
:1023B0000180E748C069002801D003F0F9FF80BD23
:1023C0000888022202430A8008880122904308807C
:1023D00080BDC0460002005000010050B84BFD0710
:1023E000F0B597B003F050FE242051490D5E222035
:1023F0000E5E20200190085E8C6A4978029111A936
:102400004C4FB8470EA93046B8470BA92846B847E5
:10241000002C1FD014A8451E0026002C0FD00C2E17
:102420000DD20A2120465BF7C7FDF6214143091969
:1024300030220A436A706D1C761C0446EDE70020CA
:10244000864205D0297808AA11546D1E401CF7E772
:10245000C1B203E008A830210170012108AA0020C0
:10246000505403A9019A8A713A224A7153220A717F
:102470005023CB7045238B7054234B700A7008A9EE
:102480000A2807D8095C002904D003AA1218D171C0
:10249000401CF4E703A940180024C4710120800205
:1024A0002549002803D00C70401E491CF9E723A1E0
:1024B000244D2046A8470120582111AA224EB0479A
:1024C000022059210EAAB04703205A210BAAB04777
:1024D000052003A9A8470298012801D01EA100E009
:1024E0001AA1022800D11EA10720A847124E1E4F94
:1024F000082C1AD0FF203880E0B20025294603F0CE
:1025000079FA02F089F9782002F098F9402002F077
:1025100095F9802D04D0705D02F090F96D1CF8E7FC
:1025200002F084F98036641CE2E717B0F0BDC046C3
:102530004076FC07F538FC076877FC0741434345C4
:102540004C0000003959FC07E558FC074A55535424
:10255000204D4F5645000000534C454550000000AB
:1025600057414C4B000000000031005038480188B2
:1025700002220A4302800549491C02D202889207BE
:10258000FAD40021018140897047C0465F79FEFF7F
:10259000FEB505461448029002AC204600F028F82B
:1025A0001420FFF787FC07208601002D00D080361D
:1025B000274F38880D49084080193880FFF7D6FF2B
:1025C00001900220FFF776FC0025A570204600F060
:1025D0000FF838880549084080193880FFF7C6FF92
:1025E0003D8001994018FEBD010001013FFCFFFF45
:1025F00010B51749174A0A8000224A80164A40231C
:102600001360BFF34F8FBFF36F8F00281ED00A886F
:10261000124B13400278D2021A430A80104A134622
:1026200040330C881C4043789B0123430B800B886C
:102630001340827892029A180A8009224A804A88B6
:1026400002239A43C07840001018488010BDC0464D
:10265000001500500140000080E100E0FFF700009D
:10266000FFFBFFFF81B0002000900098042803D8F2
:1026700000BF0098401CF7E701B07047A749CA6B3C
:102680008B6B40210B40314A002804D0002B00D135
:1026900000BE11807047002B00D100BE51807047F2
:1026A000F8B504460120400400909C4EF06BB06BDE
:1026B000800300D400BE0D4802274780FFF7D2FFF9
:1026C0000B200B4DA8472046A8470020A8470446EA
:1026D000FFF7C8FFF06BB06B0099084200D100BE55
:1026E00002480780FFF7BEFF2046F8BD22300050A9
:1026F000F526FC07F8B5044600263546072D23D8F5
:10270000E0B2C009FFF7BAFFFFF7ACFF8349C86B1F
:10271000886B400700D400BE04270C480780FFF7F1
:10272000A1FF00200721FFF7FBFC7C4AD16B916BD6
:10273000490700D400BE640071000E1803484780AA
:10274000FFF790FF6D1CD9E7F0B2F8BD02300050E2
:10275000B84BFD0710B54C4CA17E0020012908D1D3
:10276000A17A032905D1FFF73BFE0A20024900F0B8
:102770005BF9207510BDC0465527FC0710B5F64C17
:102780002078FF280DD003F013FBF449C87200F045
:1027900011F82078FF2807D00448054900F044F9D3
:1027A00000E00020ED49087310BDC046504600000F
:1027B0007D27FC07F8B50446642800D36424E74865
:1027C000C472E54E3078FF2832D00C214143534883
:1027D00040184221405CFF282AD0FD2040F72FF806
:1027E000014614480422072359F7E2F900281FD0B4
:1027F0008471012787800825458059F7F2F97078A0
:10280000844215D0FD2040F71AF801460948C01C43
:1028100080B20422072359F7CBF9002808D084712D
:102820008780458047703178017059F7DAF9747004
:10283000F8BDC04603FD000010B5C84C607C0128FF
:102840001ED1207C411C2174C8B23C2809D3002130
:102850002174E07B401CC2B2172A0A4600D8024607
:10286000E273A07E012806D1A07A002803D1E07B84
:10287000C9B201F037F90548054900F0D5F800E084
:102880000020A07410BDC0464076FC077017000001
:102890003928FC0770B53148092104241823224641
:1028A00059F786F905461B202870FD26304601F0B1
:1028B00055FF0021A982E96029616C606E80687013
:1028C000284659F78EF970BD0120704710B513489E
:1028D000C17A134ACCB20C236343D45CFF2C06D0DC
:1028E000D318491CC1725B68002BF3D00DE0017B4B
:1028F0000C4ACCB21C236343D45CFF2C08D0D31801
:10290000491C0173DB68002BF3D09847002010BDF1
:102910000021C1720173012010BDC046B84BFD07F4
:10292000D072FC07FC69FC0770B50C48092104242F
:102930000A23224659F73CF905461B202870142625
:10294000304601F00BFFFF21743129816C606E80ED
:102950006870284659F745F970BDC0461B0D000048
:102960001FB5144601220292044A0192069A00926F
:102970001A46234600F0A6FA04B010BD6069FC07B1
:10298000F8B5204F3C68002C32D11F48092504229D
:1029900052262946334659F70BF904463860002081
:1029A000A0721A48E080A0800D2020801622E272DA
:1029B000FF200830208120460C3015A15BF776FB04
:1029C0002E20442121542B200A21215420462E3030
:1029D0004821C17150218171467101712D21C17051
:1029E000472181704C21417020462B308570457005
:1029F000204659F7F6F8002038600420022159F7E4
:102A00005AFAF8BD084BFD070D0D00004C040000FC
:102A100003030A181107595A08E4862A9E8FE91100
:102A2000BC7C984342180000B0B502461C482430D4
:102A3000002423460A2B0BD00568002D02D0001D70
:102A40005B1CF7E701605C1CE0B2114600F0FAFA8B
:102A5000E0B2B0BDF8B50446401E09281BD8A0005E
:102A60000F494718386A002817D00E4DA84214D0D5
:102A700020370D482018401C0426314659F734FBF6
:102A80003D60082308483146324659F791F80470F2
:102A900059F7A7F8F8BD00BEF8BD00BEF8BDC046A6
:102AA000184CFD07AD63FC0702040000F0B585B0CB
:102AB000039302920E4607460020041D142C0ED0EC
:102AC00004A900910AA10D5838463146029A039B89
:102AD000A84700282046F0D104A8007806E0384630
:102AE0003146029A039B03F0B1FD002005B0F0BD12
:102AF000012BFC07292FFC076129FC07C928FC07CB
:102B00001FB514460D220292044A0192069A0092C1
:102B10001A46234600F0D6F904B010BD6869FC07D8
:102B200010B5E3480078FF2811D0E24C207F002840
:102B300003D0FFF78FFF0020207702F039FE00203E
:102B4000A0770A209E49FFF76FFF207710BDD94874
:102B50000021817310BDC0463476FC074076FC0727
:102B6000F0B587B09248FF210180D24E70790128DC
:102B700000D0A2E004A900240C7003A80470042073
:102B800002F0A8FD00280CD0062003A902F0A2FD47
:102B9000002806D003980499081A810820220A40C8
:102BA0001418E7B2102F00D310270024E0B2B84267
:102BB00000D382E002F01BFDAE2002F02AFD0028C7
:102BC00017D0072002F025FD002812D002F00FFDDB
:102BD000AF2002F01EFD00280BD00025062D0CD0E2
:102BE000681F411E884102F0E1FC05A948556D1C93
:102BF000F4E702F006FD641CD8E702F002FDF06C79
:102C0000431CF36405A801790902C2789207920B6C
:102C10005118407908186B498842ECD30293316C03
:102C20000029024602D0421A121152180192801A4B
:102C3000A04E31465C31B2799300C8500120F0714A
:102C4000501CC0B2032529465BF7B6F9B171019853
:102C5000306432465C3207CA0818801829465BF790
:102C6000C1F90246756C029B142B02D27264B564E2
:102C7000C1E71A2DFADBB06C8542F7DD9542F5DB32
:102C8000306D002817D0181A01460F393C2912D888
:102C900081B2494801925BF78FF9019A029B014684
:102CA0002D39872907D8317A0F2904D8414A505441
:102CB000019A481C30723365D8E7B07F401CB0776A
:102CC000C0B21D2805D80A203D49FFF7ADFE307778
:102CD0006BE00025357702F065FD707901281DD184
:102CE000F07901281AD1317A002916D00020314A12
:102CF0000B46002B04D0147800195B1E521CF8E719
:102D00005BF75AF9F8210140C5B2C82D00D3C82598
:102D1000282900D22825757200E0757A7573644EF3
:102D20003078FF282ED00C214143634840184221BF
:102D3000405CFF2826D0FD203FF781FD01465F481B
:102D40000422072358F734FF00281BD08571012780
:102D500087803124448058F744FFFD203FF76FFD02
:102D600001465648C01C80B20422072358F720FFB2
:102D7000002807D0857187804480477031780170C2
:102D800058F72FFF4B49887E012805D1887A022801
:102D900002D1487B00F040FE3078FF2805D006487D
:102DA0000649FFF741FE4349887307B0F0BDC046AE
:102DB00000310050B876FC07B80B0000212BFC074F
:102DC000612BFC0710270000F0B585B003F05CF91B
:102DD00037480078374DFF2862D00C2141433648F0
:102DE00040184221405CFF285AD0AE8C6C8C298C54
:102DF000E88C471CEF84E87E401CE876320A01929A
:102E0000220A02920491090A0391B9B2090A0091B7
:102E1000C0B20A281FD30020E876FD203FF70FFD3F
:102E2000014604220E23254858F7C2FE002812D07E
:102E30000099417307730199C172867202994172B8
:102E400004720399C1710499817108218180232141
:102E5000418058F7C6FEFD203FF7F1FC01461748B8
:102E6000C01C80B204220E2358F7A2FE0028104A8C
:102E700016D00099417307730199C1728672029945
:102E8000417204720399C171049981710821818092
:102E900023214180012141701178017058F7A1FE72
:102EA0000A200749FFF7C0FDE87405B0F0BDC04631
:102EB0003476FC074076FC07B84BFD0703FD0000A5
:102EC000C92DFC07F0B585B001260C9C002C25D03F
:102ED00004960191029303920B9B0A99E500EE1868
:102EE000083E671C0F4B7F1E012F16DB34463588CA
:102EF000854203D02646083E9D42F4D16568002DE8
:102F0000049E03D100BE6568002D07D00C4601ABBE
:102F10000ECBA8472070002600E0049E304605B086
:102F2000F0BDC046FFFF000010B50C466149884265
:102F300033D0384A90421DD0374988423ED120785C
:102F4000401E09285AD8800035490818416A364A77
:102F5000914255D03348814257D12E48042108234D
:102F60000A4658F725FE217801706168416058F7DC
:102F700038FE4AE02078411ECAB2092A3CD88900AE
:102F8000274A51184A6A274B9A423ED1CA6C2431CB
:102F90000A60616800F056F837E06268002A01D1E3
:102FA00000BE62681D48824201D300BE626820787C
:102FB00018494018042159F74DF826E0531C012107
:102FC000984225D30A32904222D8C1B2091F890003
:102FD000134A5218516A002917D0124B994214D043
:102FE000114B994211D013462433C01E00241C609B
:102FF000D464C0B2884708E000BE06E000BE04E02A
:103000000146243100220A60C26402980021017046
:10301000084610BD0304000002040000FDFF3F004D
:10302000184CFD07AF63FC07AD63FC07B0B50C4659
:103030000025202D04D03FF79EFC60556D1CF8E75D
:103040000020B0BD70B50C46054619490888000639
:1030500018480ED5184A126812040AD4174A128862
:10306000D20706D14019801C0421224658F7F2FFEE
:1030700070BDEFF31083012282F3108809880906DE
:1030800003D40F490E8816430E80002B02D082F322
:10309000108802E0002181F31088042108230A46E9
:1030A00058F786FD4460057058F79BFD70BDC0461B
:1030B0000800005001040000300000405877FD0770
:1030C00008330050704770B514460D460646FD2083
:1030D00002F0FEFD002800D100BE0069002C00D1E6
:1030E00000BE002D00D100BE002804D00179B142FD
:1030F00004D00068F8E70020288002E041792980A8
:10310000801D206070BD000070B515460C4610464D
:1031100058F703FF002816D1FD2002F0D9FD06461E
:10312000002800D100BE0948082106232A4658F786
:103130003FFDA1884180A1790171B1886288511851
:10314000018058F74EFD002070BDC046180C0000ED
:10315000FEB5154602910646FD2002F0B9FD044673
:10316000002800D100BE10342746029A3F68002F85
:103170000ED03879B042F9D17879824219D0002244
:10318000204639463FF73EFD384658F77EFC029A06
:103190000195154608350121284658F7FBFB0746DF
:1031A0002946019D5AF79BFF204639463FF7D6FC3A
:1031B000029A7A713E71B81D29465AF777FFFEBD13
:1031C000F8B50C461F4D14350069009001271E4EBE
:1031D000372F0ED02879022808D128680088B042FD
:1031E00004D1F9B20022204600F016FA14357F1CF3
:1031F000EEE702200099085E56490140C20B20020A
:1032000010400843002158F756FEF8BDF8B50C46AB
:10321000082900D300BEFE4D143501260A4F372E73
:103220000ED02879022808D128680088B84204D135
:10323000F1B20022204600F0EFF91435761CEEE7DB
:10324000F8BDC046346AFC070229000070B5054687
:103250000469264610363068002805D030463FF70E
:1032600061FC58F712FCF6E700202861204658F769
:103270000CFC70BD7CB5FD2002F02AFD0446002840
:1032800000D100BEA568607B6E4601AA3146FFF7FB
:103290001AFF3088082800D000BE217B019807293A
:1032A0000CD84A1C2273435C6E7B012E02D1DB07D3
:1032B00002D012E09B0710D41146F0E7A068C28844
:1032C00001896B7B2248012B19D1042358F770FC2C
:1032D00000218170E98901801AE0A068C2882B8AE8
:1032E000C12000010902083189B208339BB258F7A6
:1032F0005FFC0646687B002817D1132016E0801C6F
:1033000080B2062358F754FC00210171E9894180FD
:1033100058F767FCA06858F7B8FB0021A1606288E5
:103320000C48104058F7C7FD7CBD12203070A088B3
:10333000E9890818B0802A8AF280304608301235B0
:1033400029465AF7B3FE304658F74BFC7CBDC046C1
:1033500007FD0000FF7F000010B50446FD2002F0CD
:10336000B7FC002800D100BE81798C4202D280884F
:10337000001900E0002080B210BDB0B50C46054633
:10338000FD2002F0A5FC0146002800D100BE8A887D
:103390008020954206D389798918A94202D9A81AB2
:1033A00020700020B0BD0000F0B595B01E4602921E
:1033B000089105462824012120460D9158F7EAFA84
:1033C000074621465AF78BFE079504972F61089B05
:1033D0001E20019630403F21C943411803915F21CF
:1033E000C943411805917F21C94340180690002226
:1033F000874E032A00D1CFE01D460798848A11A882
:1034000081490180511C81480B91415C0C92875C81
:10341000781CC2B291420F91084600D810460E9215
:10342000F9430818C1B2182048431830032158F74F
:10343000B1FA2988054601804480142420460A9761
:10344000784331180A79022A069803D0042A05988D
:1034500000D003982871A81D096910225AF726FE8A
:103460000E9A54433719002409972346D0180F9910
:10347000884246D23879102829D0042813D002284F
:103480003BD110932E462D19386801784078687624
:10349000297628461A300E215AF721FEB868010C09
:1034A0006985288523E010932E462D193868017808
:1034B00042788378C078E876AB766A7629762846B3
:1034C0001C300C215AF70BFE0D9880040AE0109373
:1034D0002E462D1928461830396810225AF7E6FD75
:1034E0000D98C004B9680843000C68852985B8891F
:1034F000311988850E9A3546109B143718345B1C99
:10350000B4E76B712F4628464CF7BDFC0E9B044672
:103510000028099D13D0384658F7B7FA089B188839
:103520000C99002901D1049988800F990A9A891A67
:1035300008181880002C0B9A354E61D159E738884D
:1035400008990880002426460F988342E3D2002C75
:10355000E1D10C20285E761C0024002819D4E989CA
:10356000002916D02879022808D1286802784078E6
:103570000002801811AA128890420AD0F0B23A884C
:10358000101880B21C462B6900224CF756FD2346CA
:10359000044614355B1CD7E73720049A9071FD2050
:1035A0000799C8820D9DCD811A484860888A50804D
:1035B0001046243088600198C003029908431080A7
:1035C000103210463FF7A6FA0024139412941436D2
:1035D000372D10D0307902280AD10B48FF303168DE
:1035E0000988814204D1E8B2082112AAFFF7B0FD90
:1035F00014366D1CECE70798808A214658F75BFC6F
:10360000E0B215B0F0BDC04603280000F869FC0721
:10361000346AFC07806EFC07F0B585B000920C465A
:103620000646082800D300BE04AF03AA2046394648
:10363000FFF749FD3888002800D100BE0399002912
:1036400001D100BE039904A8078801AD28463A4677
:103650005AF72CFD0098A855204639462A46FFF710
:1036600077FD05B0F0BDFEB514460E46FD2002F014
:103670002FFB0546002800D100BE00967788AE8853
:103680000194204658F749FC012801D102271BE08C
:10369000B81980B201F004F8002801D100BE002062
:1036A00002A9FFF76AFE00280198009C00D000BE26
:1036B0000127394658F7FFFB002028730C3CAC600B
:1036C00002986873FFF7D6FD3846FEBDFEB5144676
:1036D0000E46FD2002F0FCFA0546002800D100BE8F
:1036E00000967788AE880194204658F716FC01288A
:1036F00001D102271BE0B81980B200F0D1FF0028E9
:1037000001D100BE002002A9FFF737FE0028019872
:10371000009C00D000BE0127394658F7CCFB0020A2
:1037200028730C3CAC6002986873FFF7A3FD384621
:10373000FEBD10B50C46FD2002F0CAFA002800D1EB
:1037400000BE80886188081880B2A188A31D00246B
:1037500022464CF772FC204610BD000070B514469E
:103760000D46104658F7D9FB01282ED128780102C2
:103770000831AA791648002A0CD089B206232246BD
:1037800058F716FA0646A878FFF7E6FD3080A879C4
:10379000307113E0AA8889B2921D93B2224658F77D
:1037A00007FA0646A878FFF7D7FD0021317130806F
:1037B000AA887280701DE91D5AF778FC304658F7C8
:1037C00010FA0021204658F776FB002070BDC04655
:1037D000140C000070477047F0B593B05821394C75
:1037E000605C002866D1019137A003A90A462746EC
:1037F00078C878C2384608300A4610320346F0CB03
:10380000F0C20A46203278C878C22E4C20680025C3
:10381000401C206062686A41626010950F951190AB
:1038200012921834402220465AF740FC0A2D33D019
:103830000295002120292CD02748425C9300E558AE
:1038400047187A789200A658AD19E550FE78B60070
:10385000A05968401025E841A051BD78AD006759D6
:1038600038186051A75847401420C741A750E05866
:10387000C019E050A35943401820C341A3516059D7
:10388000C0186051A35843401920C341A350091DDB
:10389000D0E7029D6D1CC9E700200A4C402807D0E4
:1038A00003A909582218936959189161001DF5E779
:1038B00010200199401E6054C0B280002018806919
:1038C00013B0F0BD0877FC07657870616E64203135
:1038D000362D62797465206BD869FC075821044A3B
:1038E0000023535400BA1360536090607047C04681
:1038F0000877FC07FEB50546002804D4002D24D027
:103900000091002604E02D20009108706D420126F0
:1039100000242804E7B20DD0A8B20A215AF74CFBC4
:10392000F6214143491930220A4301A9CA55641CB2
:103930000546EEE701A8401E0099002FF3B207D01C
:10394000C25DCA54761C7F1EF7E730200870012341
:103950000020C854FEBD000070B500250F4EE8B22F
:10396000082819D2FF2131800024214602F042F8B4
:1039700000F052FF782000F061FF402000F05EFF71
:1039800060B2002804D4002000F058FF641CF7E760
:1039900000F04CFF6D1CE2E770BDC04600310050E6
:1039A000F8B50090002A34D014460D462778002F31
:1039B0002FD0E9B27A292CD838466138C0B21A28FB
:1039C00000D2203FF8B2202801D35B2800D3202763
:1039D000641C009802F00EF800F01EFF782000F042
:1039E0002DFF402000F02AFF203FF8B2052141437F
:1039F000084847180026052E04D0B85D00F01EFFC9
:103A0000761CF8E7002000F019FF00F00FFFAD1D55
:103A1000CCE7F8BD2470FC0770B586B0002837D01D
:103A200004466846461E002520040FD0082D0DD2FE
:103A3000A0B20A215AF7C0FAF621414309193022EF
:103A40000A4369464A556D1C0446EDE7711900208A
:103A5000854205D00A7802AB1A54491E401CF7E78C
:103A6000C2B202A920238B54421CD2B242238B54EF
:103A7000821CD2B250238B54C21CD2B24D238B5421
:103A8000001DC2B200238B5406214143CCB207E093
:103A900002A80021817110498180104802902424DD
:103AA000AF2001F097FFFFF757FF022022210C4AB9
:103AB000FFF776FF802C01D3002005E08020001B5B
:103AC00081B2C90B40184010C1B2042002AAFFF70E
:103AD00067FF06B070BDC046504D00002D2D20423E
:103AE000B275FC07F0B585B0172802D80C463C2902
:103AF00003D3194803902D201EE0054603AE3A205B
:103B0000B0700A21019120465AF756FA02903027E8
:103B100001463943F170284601995AF74DFA01469A
:103B2000394331700921C943484340193843707003
:103B3000029841430819384303AC00216171207198
:103B4000AF2001F047FFFFF707FF03203121224696
:103B5000FFF726FF05B0F0BD2D2D3A2D00210028DE
:103B600006D0425C002A03D0491C7F29F9D17F216D
:103B7000C8B270477047704770B505460469261D86
:103B80003068002805D030463EF7CCFF57F77DFF60
:103B9000F6E700202861204657F777FF70BD10B583
:103BA00089B2431C002009280AD00C46C440E4070F
:103BB00004D09CB2641C944203D09B1C401CF2E7CE
:103BC0000920C0B210BD0000F0B58BB01E460792B0
:103BD0000F460446109806900088089001220021A4
:103BE0000B46092B13D006258D40099121463446FA
:103BF000089EDE403846012737407E4207462E4069
:103C0000324326460C460999891C5B1CE9E70A9257
:103C1000802030439E210140A08A03911D490291DA
:103C20000190002000901C490AAA132338464CF743
:103C3000E2FC0546002829D108972027012105919B
:103C4000384657F7A7FE0996064639465AF747FA07
:103C5000266130461E3011496160A06008980088D6
:103C600030830598E0811420E082A08A7080099852
:103C7000C003079908433080069800887083301D80
:103C80003EF748FFA08A002158F715F928460BB0E7
:103C9000F0BDC046106FFC070A180000F46FFC0767
:103CA000FEB5019302920C46142002F011F805466D
:103CB000002800D100BE2778082F13D8698B288BE5
:103CC0003A4600F0F7F800280ED060788D2680285C
:103CD00038D8082F0DD0072F08D0062F0BD1082871
:103CE00009D02FE081262DE082262BE0062802D283
:103CF00028E0072826D12E1D35462D68002D0BD033
:103D00002979B942F9D10022304629463EF77AFF97
:103D1000284657F7BAFE60780830012157F73AFE77
:103D20000546617808315AF7DAF920782871627807
:103D30006A71A81DA11C5AF7B9F9304629463EF709
:103D40000DFF0026064802230199029A57F730FF1B
:103D500021780170467057F744FF0020FEBDC04631
:103D600001140000F8B514460D46104658F7D5F872
:103D700001283FD1142001F0ABFF0746002803D0F3
:103D8000798B388B3E7F06E000BE1A200188182010
:103D900000881C221678324600F08CF80090787F5C
:103DA000010208312A781448964212D16A7889B201
:103DB000931D224657F7FCFE0646002030710098FE
:103DC000308068787080701D6A78A91C5AF76EF987
:103DD00009E089B20623224657F7EAFE064680200C
:103DE000307100983080304657F7FBFE00212046A6
:103DF00058F761F80020F8BD140C0000F8B51F4614
:103E00000C46087808281CD80725002100911AA61E
:103E1000784400794000874419040C0406060F0911
:103E200012001A4E12E00D25174E0FE0062514A6BB
:103E30000CE00A2516A609E008251AA606E017A632
:103E400004E000BE0026012000903546AB1C184857
:103E5000394657F7ADFE0746207838707D700098D8
:103E6000002804D1B81C31462A465AF71FF93846B3
:103E700057F7B7FE0020F8BD52656E657361730099
:103E8000FFEEDDCCBBAA00007275FC078075FC0755
:103E9000312E302E302E302D4C45000001D20080C6
:103EA00005000100123456FFFE9ABCDE000000003F
:103EB00003140000B0B58BB2411C00200446092C4D
:103EC00009D01D46E540ED0702D0A24202D0891C70
:103ED000641CF4E7481C80B2B0BD10B50C78012C0E
:103EE00003D0092C09D04C7802E04C78432C02D046
:103EF000002C00D000BE02F0A9FB002010BD000085
:103F0000FEB51D4610460E4658F707F8022866D142
:103F10002C0A00D000BE0C20604355490A181746F1
:103F20004037BC70FF2C5BD001210191F970042057
:103F300000900292032157F7BEFF30883880707AD4
:103F40003871781D0A36062231465AF7AFF80A2032
:103F50000543F520854323482C232946009A57F72B
:103F600027FE01990902018557F73BFE0299072CAC
:103F700036D8404D2C704220085CFF2801D1FEF756
:103F8000FFFC02F0EBF92878FF2808D0FF206870CA
:103F90007D2080001449FEF747FD3749087302F081
:103FA000F1F92878FF2805D064201049FEF73CFD80
:103FB00031498873242101222046FFF72DFB02F0AE
:103FC000B1F92D4C607F002803D0FEF743FD00209F
:103FD000607764200649FEF727FD607700E000BEA9
:103FE0000020FEBD020E00007D27FC07212BFC07F0
:103FF000155AFC0770B51C46104657F78EFF03286C
:1040000033D1200A0C214143194840184221FF2492
:10401000445202F0A3F902F0B5F902F095F9154DFA
:104020006C70154E707F002803D0FEF713FD002042
:104030007077F07D002803D0FEF70CFD0020F075AE
:10404000307E002803D0FEF705FD00203076707E1C
:10405000002803D0FEF7FEFC002070760020B0752B
:1040600070752C70FEF78CFC00E000BE002070BD67
:10407000B84BFD073476FC074076FC07F0B589B0F5
:104080001D461446087802282CD001281FD000288D
:104090003AD101AE202130465AF721F83B48077843
:1040A000411C30463A465AF701F83B460A33184855
:1040B0002946224657F77CFD0446478000202070A1
:1040C000201D31463A4659F7F1FF20461AE02F48A5
:1040D000468C0F480A232946224657F769FD468039
:1040E00001210EE00A480A232946224657F760FDBF
:1040F000C82101810021C1800C21818006214180DD
:104100000221017057F76DFD002009B0F0BDC046D7
:104110000B0E00000020704710B51946E120000189
:10412000062357F745FD0024848044800121017057
:1041300057F757FD204610BD0020704770B51D464B
:104140000C46087801280AD000280DD162880F4853
:104150000270401C211DD2B259F7A8FF02E060880E
:104160000A494884002600E048260A200543F52035
:104170008543074804220223294657F719FD467054
:104180002178017057F72DFD002070BD184CFD07F8
:104190000D0E00000020704770B50C78641E122CC4
:1041A0001ED8C0467C4424796400A7440B1910191A
:1041B00019191919191919091509091909090900EC
:1041C000002070BD487800280DD000BEF8E7487880
:1041D000002838D000BEF3E748784428F0D13AE010
:1041E00002F034FAECE71D4D2C68002C25D11C4858
:1041F000092104222C2357F7DBFC044628601720F2
:104200002084184820800026668020460A3011212C
:1042100059F765FF6684E683A6832020E0767A213D
:104220001148415AFB2900D3FB21E1847C21405AEB
:104230000E49884200D308462085204657F7D1FC16
:1042400000202860BCE70420012157F734FEFEF768
:104250003DFB0028B4D0FEF793FBB1E70C4BFD0704
:10426000040D0000030A00006479FD0748080000FF
:1042700010B5104657F751FE002801D000BE09E0E6
:104280000548092104220124234657F791FC0470B4
:1042900057F7A7FC002010BD020D000080B51046A6
:1042A00057F73BFE012809D1FEF710FB002805D087
:1042B0000420022157F7FFFDFEF762FB002080BDBE
:1042C000F8B51D4616460C46104657F726FE002840
:1042D00017D1FD2001F0FCFC0746002800D100BEEC
:1042E0000948042132460B4657F762FC290A01703F
:1042F000E90A00D000BEB9882288511A418057F7D8
:1043000070FC0020F8BDC0460DFD000080B50878A7
:10431000FE210140122901D1FEF7ACFF002080BD33
:10432000FEB51C4615460E46104657F7F6FD012809
:104330000DD00027002860D102960194142001F0CE
:10434000C7FC0646002804D0718B308B06E002279C
:1043500053E000BE1A20018818200088029A1288B3
:10436000FFF71DFC044608281ED80097371D3F683C
:10437000002F27D03879A042F9D17879831D614880
:1043800001992A4657F714FC0446029800882080B9
:104390000023237178796080601D7A79B91D1F46EA
:1043A00059F784FE20460AE05648062301992A461A
:1043B00057F7FEFB0299098801808021017157F7A8
:1043C00010FC1AE03477019B180A70773088B14AE4
:1043D000024000B2C10B1940FF208143114308483D
:1043E00001262A46334657F7E3FB047057F7F9FBDB
:1043F0002846314657F75FFD009F3846FEBDC04650
:1044000002140000F0B587B01D4614460E46104653
:1044100057F783FD002801D002206CE0FD2001F059
:1044200057FC0290002800D100BE04A900270F709D
:104430003088FEF7A2FF024603A80780002A16D0A4
:10444000BB1D304829461546224657F7B1FB0446A6
:104450003088208067802571002D04D1601D03A95C
:104460003A4659F723FE204657F7BBFB42E02F0A96
:1044700004A80378142058438549081801790229B3
:104480001FD1006800881D4988421AD10292019705
:10449000082F00D300BE06AF05AA18463946FEF71E
:1044A00012FE3888002800D100BE05980028029A24
:1044B000019901D100BE0598405C03A9088002273C
:1044C000BEE700200299085E72490140C00B05401A
:1044D000FF2085430D430A481E46042329462246F1
:1044E00057F766FB4680077057F77BFB0121204694
:1044F00057F7E1FC002007B0F0BDC04602290000DC
:1045000004FD0000140C000000207047F0B595B0C9
:10451000099317460C46FD2001F0DAFB07900028AE
:1045200000D100BE0CA900250D702088FEF725FFE4
:1045300006466088002800D000BE002E00D08DE026
:104540000998000A05900CA80178142004914843AA
:104550004F4908180179022948D16B49FF31006899
:104560000088884242D1029700200B9008900A9060
:104570000394268830464BF7D7FC0146069088887E
:10458000B4B2844219D3C888844216D80DAD2046EF
:1045900029464BF7E8FC089B00930FA910AF28466B
:1045A0003A464BF7D3FD3888761E5749884206991C
:1045B000E5D1601C81B2814201D000BE089880B272
:1045C00010A900260AAB32464BF753FF039CA08884
:1045D000022851D1E28810A8407880074FD40220E9
:1045E000C0430242029F4DD0812612E011951095E2
:1045F000208810A94BF7B7FC08201099085E002806
:1046000006D46288A1882088A31D4BF716FD0546B5
:104610002E46002E22D100260798805F1D4A0240B8
:10462000C00B09990140FF2081431143A088801DE0
:1046300083B219483A4657F7BBFA25460446801D0F
:10464000AA88A91D59F732FD04986080A8880599A9
:104650002170A08020462C4657F7C3FA0F48042348
:1046600009993A4657F7A4FA86702188018057F7CE
:10467000B8FA002015B0F0BD0D26029FC9E7012A47
:10468000029FB1D805980499FEF7C6FFC1E7C0465E
:10469000346AFC07FF7F00000AFD0000160C0000D2
:1046A000F0B58BB004464BF73FFC02460290918870
:1046B000A0B20026884223D3D188884220D8039410
:1046C00004AF39464BF74FFC0026009606AD07AC09
:1046D00038462946224633464BF738FD0A4B2878A0
:1046E00021881A46FF32914201D1022807D099420F
:1046F000039C01D1022803D0641C029AD7E7039ED1
:10470000B0B20BB0F0BDC0460328000070B511492F
:104710000A88088801242043088008881E239843BB
:104720000880A5020C4845800525058005886D0791
:10473000FCD480880D8814262E430A25AE430E80B3
:104740000D88A5430D801A400C889C43A2180A804E
:1047500070BDC046220000500016005010B5152153
:10476000CB435F499A1C09D0CB1862241B5D83425E
:104770001346F7D188186030407810BD042010BD72
:1047800081B0002000900098042803DA00BF009850
:10479000401CF7E701B0704780B5012002020020FD
:1047A00001460346FDF788FCFFF7EAFF80BD0000E5
:1047B00080B503200202002001460346FDF77CFC81
:1047C0004748C16B806BC00700D100BE1148012172
:1047D0000180FFF7D5FF80BD80B501210A020020CE
:1047E0000346FDF769FCFFF7CBFF80BD80B50320D2
:1047F0000202012100200346FDF75EFC3848C16B30
:10480000806B800700D400BE024802210180FFF7C0
:10481000B7FF80BD0430005080B5FFF7DDFFFFF724
:10482000BBFFFFF7E3FFFFF7C3FF80BD80B5FFF7D6
:10483000DDFFFFF7B1FFFFF7CFFF80BDB0B5044646
:104840000025082D0ED260B2002802D4FFF7CEFF5B
:1048500001E0FFF7C1FFFFF79FFFFFF7A9FF6D1C06
:104860006400EEE7FFF7B8FFFFF796FFFFF7A0FF42
:10487000B0BD0000F8B5264FBC68204644F70FFBDA
:10488000174EF16A0022F2620D181649284659F7B0
:1048900093FB78611449414349191920000100290B
:1048A00002D0411AE13189B23961396808220A43DC
:1048B0003A60B16A002911D0A1420FD20B4A127896
:1048C000002A0BD13279002A00D11046611A726A8F
:1048D0008918891D814200D301467162F8BDC04626
:1048E000B84BFD07710200008FFDFFFF0477FC0746
:1048F00080B506480021016001F0A8FB0120C00737
:1049000003490A6882430A6080BDC046AC76FD0751
:104910003000004080B544F7C2FA80BD80B544F74E
:10492000AFFA80BD70B50D4D0026EE750124032150
:104930002046FDF7F5FB00280FD1AC75A87E0028B6
:104940000BD1AE72AC76687C012802D1297CE87B61
:1049500001E0FF200146FFF7C5F870BD4076FC0777
:1049600000B59BB08C49C82018900882002048826E
:104970008A49082211920A80894C1A901A980328B1
:1049800011DC0020199019991A98092909DC2821AD
:104990004143601819998900002242501998401C1F
:1049A000F0E7401CE9E7A16A0020C3430122002987
:1049B0001792154600D01D462A047A4FBE6B164347
:1049C0002A46FD6BBE631692160C00291F4600D1C5
:1049D0000F46390489192943724AD1632168002995
:1049E0001D4600D10D466F4EF26B2A43B56BF26344
:1049F0000029179900D0194615910D4369498D6317
:104A000061680029179F00D01F46FD0F00291E4630
:104A100000D10E4671004919624DEA6B0A43A96B39
:104A2000EA6314977A000A43AA63616B0029179F0F
:104A300000D01F467D0B00291E4600D10E46F10412
:104A40004919584DEA6B0A43A96BEA63FA040A4311
:104A5000AA63E56A002D179900D01946CE0B002DE8
:104A60001A4600D12A46520492194E4EF56B154350
:104A7000B26BF5634D041543B563159A2260149A21
:104A800062606763169AA262E162A568002D1799B9
:104A900000D019468A00B76B1743F26B1692B763C2
:104AA0008F0F002D1A4600D12A469200D219169D6A
:104AB0002A433C4DEA63A160A569002D179900D0F7
:104AC00019468A01B76B1743F26B1692B7638F0EC4
:104AD000002D1A4600D12A469201D219169D2A436A
:104AE000304DEA63A161E169002900D01793169364
:104AF000179BDA012B4FBE6B1643FD6BBE635E0E38
:104B0000169A002900D10A46D10189192943254A5C
:104B1000D1631799E161D063906323A51A901A9825
:104B2000032845DC002019901998092830DC1998D1
:104B30001A994900695AC140C80729D028201A99F2
:104B400041436118199A92008958491C00D100BE4E
:104B50001A9941436118199A92008958002914D072
:104B60001A9948432018199989004058C117199A71
:104B700059F7E0FA1A9A120159F7DCFA094BDA6B85
:104B80000A43996BDA63014399631998401CCAE799
:104B90001A98401CC2E7C046F03000500233005063
:104BA000144BFD07B84BFD07FF003F00FF03FF015B
:104BB000DB480088C046C046DA4A01201690507093
:104BC000D94C208807211791884320800F200302A9
:104BD00005273E07708DFF211291D2310B912F31A5
:104BE000099108420CD01846FF3021880140780313
:104BF00008182080208840210143382081432180EB
:104C00007488002CC94D10930C9700D1C84CD481E6
:104C1000708C169F384370840D20FDF74BF9708916
:104C20003843022113918843708170894006FCD576
:104C300074807D20C0001590FDF73CF97089032138
:104C400008918843708170890006FCD5708C169994
:104C500088437084B74A00241460708A4023184344
:104C60007082708A0E939843708214945461B24893
:104C7000906208040D90D062308880210F91084323
:104C800030803F20FDF716F93088000600D400BEC2
:104C9000A84800884007A34A00D000BEA54C16983B
:104CA0002060A64800889086A54800681063A54843
:104CB000018891824088149921600B465082708A45
:104CC0000E9908437082708A8843708263619A48A3
:104CD000A0620D98E06230880F9F384330803F20FB
:104CE0000690FDF7E7F82068179988432060308820
:104CF000B84330809448954959F7F1F90C9C61020A
:104D0000934859F7ECF9FCF7C6FF924892493022D4
:104D1000079259F7CBF99148149A0270904891493B
:104D20000160914891490160914992480860924818
:104D30000A21017091480270914832210170914816
:104D400004609148169F07609048046090480621CF
:104D5000059101608F48179901608F48119C04608C
:104D600038020A90801D8D4908608D4908608D4881
:104D70007549016000F072FE3089079988433081DF
:104D800030890F9A10433081308938431399884312
:104D90003081308920433081308C10433084708AD8
:104DA000A043708230890E9908433081308A0421F3
:104DB00088433082B08A8007FCD5308C169908432E
:104DC00030840803718DC9000140308C764A02405E
:104DD00050183084308C28210143502007908143A3
:104DE0003184308C059908433084708A11990843C6
:104DF0007082308C0F998843308430890E998843B3
:104E00003081708D0999084202D047480C99418041
:104E1000169A91070868654B184017910860069824
:104E20004002634B196881435003091819606149B6
:104E3000491C1A680A431A6029880991892131811D
:104E4000188030880F99084330803088089988434B
:104E50003080288813990843288001F021F83DF715
:104E6000AFFD3DF7B3FD6420FDF724F852490888F3
:104E7000089048880690514A90880590D088049000
:104E8000C8880390488B02904D4800880190108894
:104E90000090149C0C804C804A4890800B98D080E5
:104EA000CC80C32010804849119808800A987C3033
:104EB000FDF700F845484649012C00D98CE00C94D8
:104EC0004180129A8280169A0280C288D207FCD151
:104ED0000022174613469BB2159D1535AB421BD2D7
:104EE000CD5CCC18A4786C40169D2C40FDB2AC4033
:104EF00022437F1CFCB2082C09D1149FBCB2354D53
:104F00002C19682562557F1C149700221746074C00
:104F1000189D25821033DEE70C9C641C034DCBE703
:104F200042000050B84BFD0782000050F0300050A6
:104F30005A0400000000F407204F101AACFFF807D5
:104F4000A8FFF80710FEF807005CFD0778160000C0
:104F50000076FD07FC76FD0758ECF107F976FD07B2
:104F60005076FD074C71FC075476FD07A473FC07CF
:104F70005876FD07E872FC07B476FD07B576FD07A5
:104F8000DD76FD075C76FD076076FD076476FD073C
:104F90006876FD076C76FD077076FD074876FD079D
:104FA0004476FD074C76FD07FFEF0000FFFEFFFF94
:104FB00000020040FFFF1F00002400506228005044
:104FC0000226005080800000202000500035005054
:104FD0001001FC074076FC070998288000211491F5
:104FE000EB480180EB480899018006994180EA4925
:104FF000059A8A80049ACA80039AC280029A4283E0
:10500000E648019A02800098088030880F9988430A
:105010003080E3486830E3490A460832B8C8B8C26D
:105020005820149F0F540F604F60DF4800683DF711
:1050300041F9179A10680A9908431060DB48077114
:10504000DB490F70C770DB48478411990170482114
:105050000172079AC2715221817142712D21017131
:105060004721C1704C24847044214170D24D2F647B
:105070006F64AF640425D149284656F7EAFECE484E
:105080004030129981702846394656F714FFC449BA
:105090008F838F730F73CA4B129A1A700F83CF7559
:1050A0000F754F8200F084FE2F46C34DBC49C87275
:1050B0001298C34A5070149888768875487508828B
:1050C000C87348738872BF48ED30129B002806D021
:1050D000291861228F5460228B54801CF6E71297A6
:1050E000149FB248C770B248077001F041F9AC4D47
:1050F000AF762F83EF826F752F82EF73AF72FEF75B
:105100002BFCB148AC49C86101F0FEFAAF62EF6216
:105110002F636F63AF63EF63AF842F622F712F60D4
:10512000A848ED30A949149B002805D00A1813534C
:1051300013879384801CF7E79F49C86B886B8003B3
:1051400000D400BEA24D1398E883C86B886B40075B
:10515000129A00D400BE169847042A80C86B886B48
:10516000400600D400BE0E982880FDF77BFAF24975
:10517000C86B886B384200D100BE139C2C84FDF7AD
:1051800071FA0A20F74DA8472D20A8472046A847C6
:10519000FDF768FAE849C86B886B384200D100BE59
:1051A0001398EF49C883FDF75DFAFDF75BFA00F04D
:1051B00051FA01F0B7F8FFF79BFBDF4B169A1A7113
:1051C0001A721498F082708CA02101430E988143CA
:1051D0007184D74D189828824F205862D54811996C
:1051E0000180E148E1490818E14940188008401E63
:1051F0000C90D0031590E04FD24C179A30890006DE
:1052000047D5106B1599084243D1D2480088C00792
:105210003FD157F7E2F8179AC74B587A042838D18C
:1052200014981A901AA8042147F7E4FEC24B0028EC
:105230002ED01698386038680028FCD11798C069BD
:105240009969884201D2149999611A78012A0ED17C
:10525000986114981870FFF759FAB749C882FCF79B
:105260002BFDB54B002813D11698187010E0411A89
:10527000C90919290CD39861FFF748FAAE4BD98AAE
:10528000411ACA175140891A182901D3D882E6E772
:10529000179A72B6AF480079022802D02068806A57
:1052A00000E000201A90A348C088C00700D03AE16F
:1052B000587801280CD11698386038680028FCD13D
:1052C000D069A6494968884200D22CE10020587074
:1052D00056F73DFA179A984B002800D123E19D48D4
:1052E000C078012852D1B08AC00700D0A9E09948FF
:1052F000008800284AD1A248806A002802D020688D
:10530000806A1A9000F0A2FE924881781AA856F797
:1053100029FF0028884B179A38D01069400635D4E9
:105320008C4881781AA847F765FE179A824B0028A7
:105330002CD0987A002199725C6AD16B914B1940FC
:105340001231D16384490978022900D1323401280D
:1053500000D12134A002D16B8B4B19400143D163A2
:10536000D06B7B490840372189054018D0631A98D3
:105370008649884200D300BEC0020B90642158F7D2
:105380001BFE0B99002925D0001F25E030BFCAE085
:1053900020200050002400506228005002260050B7
:1053A0004076FC070877FC074C76FD075877FD0729
:1053B000B477FD07184CFD07B84BFD074069FC07A3
:1053C0003476FC07FFFEFFFFB163FC07B876FC07ED
:1053D000043000505C48FE30ED4A611C884200D029
:1053E000044694625B480179481E8141204643F798
:1053F000D6FD6748C06A80471799159A086B104216
:10540000FCD00A99514A10680842FCD010680F99E4
:105410008843106047480089452805D84621454AF9
:105420001181081ADA49C8623CF77DFF474A906843
:10543000D749086210680006FCD530890F99884367
:10544000308145480078318A129B194331824B4A9A
:10545000116819431160718A202291437182318A47
:10546000139A11433182012805D130461230414C44
:105470002146F03126E0708A102528437082708A18
:105480001843708200202D4C2060718A0E9A1143BF
:105490007182718A9143718260612948A0620D987E
:1054A000E06230880F99084330803F20FCF702FD0E
:1054B000708A28431E4D70820C9860612D4C2146E5
:1054C00080313046109B02880A400280308A18439F
:1054D0003082708C20407084708C169C20437084C5
:1054E0000D20FCF7E7FC70892043139988437081F5
:1054F00070894006FCD500207080B08A8006F44B8D
:10550000179A03D50B48801E1199018030BFB08ACD
:10551000800602D5074811990180184C206812991D
:1055200088432060074C62B61898288266E6C04619
:10553000F030005002330050B84BFD070000F40774
:10554000204F101A5876FD07FFFEFFFF00020040B3
:10555000FFFF1F005877FD07B477FD073476FC077F
:1055600004300050F526FC072C7100001005FC07E4
:10557000030004F8FFFE0000FC00004010ED00E016
:10558000787EFD0700FCFFFFFF03E0FF40420F00B5
:10559000B47FFD0781B0002000900098082803DA4E
:1055A00000BF0098401CF7E701B0704770B5044693
:1055B00000F0D0F800252E46082E09D200F0AAF8F7
:1055C0006D0000F0E9F82D1800F0B0F8761CF3E754
:1055D000002C02D000F0C8F801E000F0BBF800F0A9
:1055E00099F800F0A3F800F0B5F8E8B270BD80B506
:1055F00000F0B0F800F08EF800F0B6F800F096F881
:1056000080BD80B500F0B0F800F084F800F0A2F89A
:1056100080BDB0B504460025082D0ED260B200282A
:1056200002D400F0A1F801E000F094F800F072F864
:1056300000F07CF86D1C6400EEE700F08BF800F0E1
:1056400069F800F0A9F804460120444000F06EF823
:105650002046B0BD7CB50920402100F0CDF80021E6
:105660001B4801910199814203D200BF0199491C55
:10567000F7E7694600250D70FF2000F02BF8009930
:10568000C9B215394C424C4104401DD0F2480121A9
:10569000417108201021574EB0470A202321B047FE
:1056A0000C2024252946B0470D202946B047042068
:1056B00000252946B04705202946B047062029463F
:1056C000B04700F06FF801E0E348457120467CBD2B
:1056D000204E000070B50C460646FFF788FFAE204E
:1056E000FFF797FF0025002810D03046FFF791FF05
:1056F00000280BD0FFF77BFFAF20FFF78AFF0028C1
:1057000004D00020FFF752FF20700125FFF779FF3A
:10571000284670BD80B501200202002001460346E4
:10572000FCF7CAFCFFF736FF80BD000080B5032000
:105730000202002001460346FCF7BEFC6448C16B30
:10574000806BC00700D100BE124801210180FFF725
:1057500021FF80BD80B501210A0200200346FCF72D
:10576000ABFCFFF717FF80BD80B5032002020121CB
:1057700000200346FCF7A0FC5548C16B806B8007F6
:1057800000D400BE034802210180FFF703FF80BD63
:10579000B84BFD070430005080B500200121FCF714
:1057A000BFFC80BD80B50920832100F025F880BDB5
:1057B00070B5A94D6879002803D1FFF74BFF002889
:1057C00017D0092003210B4EB047042000242146A6
:1057D000B04705202146B04706202146B047EC657A
:1057E0002C666C662C646C64AC64EC642C652C7266
:1057F000EC8070BDF957FC07B0B50C460546FFF7C5
:10580000F6FEAE20FFF705FF002807D02846FFF779
:1058100000FF002802D02046FFF7FBFEFFF7F1FE55
:10582000B0BD012070470000F8B515460C46014692
:10583000403904290CD8C0467944097949008F447D
:10584000180223301E002078002832D008202CE0D7
:1058500007280ED001282ED11D4F30371D490626AE
:105860003846324658F746FC002826D028463946A6
:1058700027E0207802280CD20420002625E020789A
:10588000002816D00A2010E02078002811D0C4206B
:105890000BE07D2080002870000A6870002002263E
:1058A00013E02078002804D014202870002001265E
:1058B0000BE00420F8BD0120F8BD0748811C062636
:1058C0002846324658F7F2FB00202670F8BDC04645
:1058D000B84BFD0790E1F107E871FC070020704725
:1058E000012070477FB5044668463A234370017033
:1058F0000220002A0AD01118891E0978002905D033
:105900000E2803D86B461954401CF4E76D46002658
:105910002E542846FEF722F90621414348B20028BA
:1059200004D47F20C043401AC0B246082046314606
:105930002A4600F01BF87FBDB0B5002914D00C46F4
:1059400005460846FEF70AF90621414348B20028F9
:1059500005D47F20C043401AC0B2410800E00021B6
:105960002846224600F002F8B0BD0000F0B5002A3B
:105970002AD0C40163181548C318641D144D167845
:10598000002E21D07A291FD83746613FFFB21A2F47
:1059900000D2203EF7B2202F01D35B2F00D3202668
:1059A000521C203EF6B205277743EE190027052F3B
:1059B00003D0F05DD8557F1CF9E760180026034F2F
:1059C0003E549B1D891DDAE7F0BDC0466877FC0791
:1059D0002470FC07B0B50446FEF71EFF7820044D86
:1059E000A8470020A8472046A847FEF71FFFB0BDE4
:1059F0003D48FC07B0B50C46B0210843B72108402C
:105A0000764DA8470F202040A84720091030A8470E
:105A1000B0BDC04680B50E480078FF2814D0010202
:105A20000A310C4804220E2356F7C2F800280ED083
:105A3000C82101810021C1800C2181800621418083
:105A40000921017056F7CDF803480021417780BD48
:105A50003476FC070E0E00004076FC07F0B585B0EA
:105A6000514852494160816005210160504E3088A3
:105A7000022188433080B0880007FCD50124210230
:105A800003940291708A084370824A484A499022DE
:105A900058F70CFB49484A49482258F707FBFCF7DE
:105AA000F3F8484848490160032001900702049731
:105AB0000025204629463A462B46444CA047284616
:105AC00029463A46039B414CA0472846039C214661
:105AD0003A4623463D4FB84720460199029A2B4645
:105AE0003A4FB84720462146049A2346374FB847D5
:105AF000022102912846049A2B46344FB847334F6F
:105B000006212846049A2B46B847072128462A46EC
:105B10002B46B8472E4804702E48C4707088202742
:105B200038437080FEF738FEFEF756FE2A48FF2104
:105B30000180AE26294C3046A047D520A0478020C2
:105B4000A047A820A0473F20A047D320A047284631
:105B5000A04740252846A0478D20A0471420A047F5
:105B60003846A0470298A047A120A047C820A047D8
:105B7000DA20A0471220A0478120A047CF20A047CD
:105B8000D920A047F120A047DB20A0472846A04706
:105B9000A420A047A620A047AF20A047FDF7DCFE29
:105BA0003046A04705B0F0BD10E000E0FFFFFF0069
:105BB00010000050200008404072FC07C000FC07A5
:105BC000F871FC0700000840FFFF1300B920FC0734
:105BD000B477FD075877FD0700310050D559FC0711
:105BE0000549884200D000BE04480188044A11409B
:105BF0008918091D01807047111111111200005000
:105C0000FC7F0000F8B50C4605464188C8B2142850
:105C100003D0FD2823D1654800E06348614E324639
:105C2000163221235B1E05D0178818328F42F9D116
:105C30004220F8BD16362121491E12D0328818366E
:105C4000FF2AF9D12E3E6B78AA88294608310091A7
:105C5000A91D07683046B847002804D0F8BD402089
:105C6000F8BD4B20F8BD6888F082B08A2080002003
:105C7000F8BDC046F8B50C4605464A4E2027002F11
:105C80000ED0B07D1428484902D0FD2805D14749DF
:105C9000CB6830462946224698477F1E1836EEE7E5
:105CA000F8BDC046F8B504463E4D20263E4F002EB6
:105CB0000DD0A87D1428394602D0FD2804D13B49D7
:105CC0008A68284621469047761E1835EFE7F8BDCA
:105CD000344916312122521E06D00B8818318342D6
:105CE000F9D12E390869704700207047B0B52D49A9
:105CF0001431C3B22124FF22641E06D00D8818314E
:105D00009D42F8D12C39C98A00E0114690430843DE
:105D1000B0BDC046B0B523491631C3B22124FF221D
:105D2000641E06D00D8818319D42F8D12E39898A1B
:105D300000E0114690430843B0BDC046F8B5194C89
:105D400000281AD02025184E184F002D28D0A07DED
:105D50001428314602D0FD2803D13946496820462F
:105D600088470020E0816060A060FF20E082207D05
:105D700056F7E6F86D1E1834E7E71025302D0FD0E2
:105D8000FF20E082A582002020606060A060E060CB
:105D90002061E8B2214656F75CF86D1C1834EDE737
:105DA000F8BDC0460848FD071470FC07D06EFC071C
:105DB00010B500242046FCF7EBFB81B20A4A914261
:105DC0000FD30A4A914201D964240AE06421414375
:105DD000AD208001081880B27D21890058F7ECF8C9
:105DE0000446E0B210BDC046B1040000A3060000A6
:105DF00070470000F0B58BB01F2109041B4A1368DF
:105E00008B4301214C041B191360CB04184A1468FE
:105E10009C431460184C194D194E4661194E1A4F87
:105E20001A4BC36106624462124B8362C562184B0F
:105E300007604360880411688143116000202828AE
:105E400003D001A90854401CF9E71248006840300B
:105E500001A9282258F72AF900F022F8FEF756FC8B
:105E60008749C882FBF728FF0BB0F0BD74000040E3
:105E7000000200409D5EFC07995EFC07455FFC0741
:105E8000555FFC072523FC07395FFC073B5FFC07D8
:105E9000F15DFC074C76FD0700207047704700005D
:105EA0000B480C4901600C480C4901800C484188A2
:105EB00002220A4304218A4342800A4963220A805B
:105EC0006F494A8A084B1A80898A01807047C04608
:105ED000800000404C0554076A280050EBE60000A3
:105EE00000260050062C00501028005080B51F20BE
:105EF000000401218A07536F834348041818506730
:105F000010680723984310600A4802880A43022158
:105F10008A430280028808210A430280428C92054B
:105F200004D5028B0A4370218A430283FFF7B8FF2E
:105F300080BDC04608000050704740087038C0B2AD
