:0200000407FCF7
:10000000586DFC074D58FC076158FC077B58FC07EE
:100010009558FC079558FC079558FC079558FC0720
:100020000000000000000000000000009558FC07E0
:1000300000000000000000009558FC079558FC07E0
:10004000111FFC071553FC071D27F0070D23FC07A4
:100050005D22FC079558FC07051FFC079558FC0717
:100060009558FC079558FC078520FC078F20FC0756
:100070009920FC07A320FC07AD20FC079558FC073E
:100080005123FC079558FC079558FC079558FC0729
:100090009558FC079558FC079558FC079558FC07A0
:0200000407FCF7
:100510000348854601F0DEFC004800474142FC07E5
:10052000586DFC0770B50E4604460022032151F7B2
:1005300012FA054652F7DEFB6880284651F71CFA8E
:1005400052F7D8FB7188884200D3084601462046FE
:1005500051F7F9FA002070BD0246FF4B92009A58FD
:100560000120126900290ED0517F5E239B5C002B75
:100570000BD0052906D1517E090702D5917C0907C8
:1005800000D400207047917DEFE70229F9D00429BB
:10059000F7D00529F6D10020EDE7024630B59300EB
:1005A000ED4A0120D2581269137DD47E157F234075
:1005B000547D2C40012901D0022909D1957C527E1D
:1005C00015402A0704D41A462243D20700D100203E
:1005D000032901D0042904D1590702D4610700D4AA
:1005E000002030BDF8B514460D4610465BF795FC6B
:1005F000240A002830D0D949A2008B5801271E8B2D
:10060000BF023E431E83132826D0142824D0152869
:1006100011D088582D210A5C0123D10600290CDA5B
:100620000146A0318E7D002E07D08B753D212046DE
:1006300045F7E0FE10E00220F8BD110703D50021C8
:10064000A0308175F7E7A0308375204643F7CCFBD7
:100650002946204643F70BFC0020F8BDFFB581B0CA
:100660001546170A10465BF758FC002838D01328A7
:1006700036D0142834D0290A8C00B84E152815D04D
:10068000FF20294603305BF72FFD30592D21095CEF
:10069000C90603D5A030C07D00280ED03D026D1CD8
:1006A000A8B25BF73AFC19280CD00FE030590121B1
:1006B000A030C175022005B0F0BD3D21384645F798
:1006C00099FE0DE0A8B201215BF7F5FB305901223C
:1006D000018B5202914301833846029943F7C7FBCD
:1006E0000020E8E7F0B59D498700C9590026803110
:1006F0004A8C8B8C1B2A00D21B228C8B944200D2FA
:1007000022468A849A4200D001260B8CCD8C1B2B6A
:1007100000D21B23CC8B9C4200D22346CB84AB421D
:1007200000D001260B8ECD8D9C46FF2349339D4280
:1007300001D21C4600E02C460D8DA54200D3254673
:100740000D86654500D001264C8EA4468C8D9C42BA
:1007500000D21C464B8DA34200D21C464C866445F9
:1007600000D00126EB080B3B9BB29A4200D2134605
:100770008B86522379495843794BCA591C68803279
:100780000419D28C8034E285C9591A6880318018E6
:10079000498E803001863046F0BD10B50446714860
:1007A000008D8007800F012800D000206071002894
:1007B00007D057F71BFF01460622A01D5DF776FC08
:1007C00010BD06226849A01DF8E770B50546002453
:1007D00042F7D1F82855641C082CF9DB70BDF8B538
:1007E000022707700126044646700D4688795F4946
:1007F000C96988472A210855287900210007000F78
:10080000A07003005DF7A6FC07050709100D100B8B
:100810001000A1700AE0A67026E0032002E0A77095
:1008200004E00420A07001E001281DD0A888000A7F
:10083000801FC0B2A0721F2800D9A172284642F7BB
:100840004FF9811D2046A27A0B305DF72FFC284618
:1008500042F746F901460622201D5DF727FC28795C
:100860004006C00FE070F8BDA172F0E7F7B544682C
:100870008CB02546243503950546074624354CF7AC
:1008800043FA06464420405B5221484334490968F4
:100890004018C0304089694608840121384647F72E
:1008A00072F94CF7A6F809900E9800698088000A42
:1008B000C1002F480818298940182D495B315DF780
:1008C0007BFB01466868039D4718403528890690E0
:1008D0000090A0680099381A400140095DF76CFB50
:1008E0000A910098C019401A400140096946A06069
:1008F000098C4900C919891C49014909884204D257
:100900000699401840014009A06001460998081A5C
:10091000400118494009884215D900202B89A26856
:10092000401CD21852015209A260EA89521CEA8185
:10093000A368099A9A1A520152098A42EED801B262
:100940000D9847F7C1F9A1680998081A4201607D1E
:100950005209824221D80FE02C7EFD071879FD074D
:100960004C76FD074C7EFD07CF79FD07B47FFD0770
:1009700016020000FFFFFF032A898918490149096F
:10098000A1602A890A99511A814206D901210D983C
:1009900047F79AF9E889401CE8812989A0685DF742
:1009A0000BFBF1802889B080208A3081A888708173
:1009B0000020B081C807C00FB073A88852214843F7
:1009C0008E30308230464CF7AAF9039846632046B1
:1009D0000FB0F0BDFFB5002093B006460124FE49DC
:1009E00049680A7821460C2A0CD06A461173002205
:1009F0001192002E09D015990291169D1F2D54D9E0
:100A0000402052E000242246119413990291149D33
:100A1000F4E7029989184978012905D0172903D0EC
:100A2000182901D0192912D1631E04E003AFFF5C1D
:100A30008F4204D05B1E5BB2002BF7DA03E0002B81
:100A400001DB4A2003E003AB1955641CE4B20B0040
:100A50005DF780FB1D2610101010101010101026CE
:100A6000262626262626262626262626101010107E
:100A700010102600119B03E00BAFFF5C8F4204D0E7
:100A80005B1E5BB2002BF7DA03E0002B01DB4A2090
:100A900006E0119F0BABD9551199491CC9B21191B0
:100AA0000299895C521C89188AB2AA4201D2002894
:100AB000AFD0AA4200D04A20761CF6B2022E01D254
:100AC000002894D017B0F0BD10B50022134607E0FF
:100AD00084186478012C07D0845C521CA21892B24E
:100AE0008A42F5D3184610BD80188378FAE7F0B52E
:100AF0000646A9B01546002084006318DA789F786E
:100B000012025B783A4352BA1B041A430B5D072466
:100B10001B061A43231A9F0020AB401CDA510828F9
:100B2000EAD300218A0090190746C37880781B0217
:100B3000034378785BBA00040343B05C10AA000654
:100B40000343601A800013503846223043780078FF
:100B50001B0203433846203047785BBA3F040078D5
:100B60003B43000603430F27781A8000491C1350AB
:100B70000829D7D35CF72EF9014630465CF7A7FD6C
:100B800000282DD05CF726F9034620AA10A9684654
:100B90005DF7A8F900226846A11A8B009600C75C91
:100BA0007119CF70C75A3F0A8F70C7583F0C4F70EA
:100BB000C35820311B0EAB550F239B1A9B00C65CFC
:100BC000CE70C65A521C360A8E70C658360C4E70FD
:100BD000C3581B0E0B70082ADED3002029B0F0BDCD
:100BE0000120FBE7F7B500251746064641232A46B4
:100BF00029460A205AF7DCFF0446002E10D0012EA9
:100C000002D0022E0CD105E02022611C002041F709
:100C1000CBFE04E0621C3946019841F775FE207056
:100C200020465AF7DEFF2846FEBDF8B56B48009017
:100C300007680C46002F7BD005461C35287E00280F
:100C400076D0012802D0022872D102E02078002854
:100C500019D038896249002688423AD107204BF7DB
:100C60004BFC002835D042233E2200215D485AF734
:100C70009FFF082101702178002913D003214170C2
:100C80002178817043E055480226611C14302E768D
:100C9000202204465DF70AFA22465349304641F7BE
:100CA0003DFE45E0002146701F22531A1B194718CC
:100CB0005B78491CBB702029F7DB00213F22531AC7
:100CC00047181B1920375B78491CBB702029F6DBBD
:100CD0001DE043493889491C88421AD108204BF746
:100CE0000BFC002815D022233E2200213D485AF754
:100CF0005FFF09210170217800291BD0122141706A
:100D00000021FF224318491C9A702029FADB4DF775
:100D1000FFFE2E7640205BF7CEFB009841F702FFE6
:100D20005AF789FF00980068002801D041F7F1FDCB
:100D30000020F8BD002146701F22531A1B194718C6
:100D40005B78491CBB702029F7DBE0E770B50878B9
:100D500000250C46012809D01D2810D02B2812D0C0
:100D60004022194655F7E4FE284670BD5BF78DFA20
:100D70001948012504601D4857F76DFAF4E71C482F
:100D800041F730FDF0E71B4801680029ECD1012153
:100D90000160194841F72CFEE6E770B5104D174C7D
:100DA000223DAB422ED10F4809232A460021C01E06
:100DB0005AF7FEFE044608221149401C5DF776F9F9
:100DC00020790821084320710025257020464DF721
:100DD0009FFE284670BD00004C7EFD07287AFD0767
:100DE000252000000408000089E7F107030C00003B
:100DF000C3C3C3C35077FD07CC7DFD070DC3F00708
:100E00005CE5F107A047E5E7F1B584B00498FF4938
:100E100080000C5804980502A81D0290002C15D0E3
:100E20006068818804290CD34188861D0C380091A4
:100E300001903146049857F7E4FFF549884206D1FE
:100E400060680C385AF7F7FE0020606033E4F178F0
:100E5000B2780F02019928431743C88038464038BA
:100E60003F2819D803223946049854F751F8060050
:100E7000E6D0B07B0128E3D13420B07329460A3193
:100E80000423E448029A5AF793FEB1894180102165
:100E900001705AF7A6FED3E761683420087002217A
:100EA00000985AF777FD05463146009A5DF7FEF83F
:100EB00068782978000208436168C880E878A978D2
:100EC000000208436168062F08810BD0042F09D067
:100ED0006068052F10D00C385AF7ADFE28465AF737
:100EE000D4FDB1E760688188052913D3297981721F
:100EF0006168287988720DE0818805290AD32979EB
:100F0000817261682879887260688188062901D3B6
:100F10006979C17260685AF764FEDFE7FFB587B090
:100F20000E4609985AF7F9FF0999090A0391002812
:100F300076D08800B54905900D58B749B079096B4E
:100F40000A225043B478081841F7CAFD0190686836
:100F5000002808D0012C2DD00398FFF755FF6868B2
:100F6000002802D026E0022C5AD1B088012702289E
:100F700005D30198417800780C02044302E051F750
:100F8000B9FE044651F7B6FEA04201D20224002762
:100F900020464C3083B29E49A048099A5AF708FE71
:100FA000241D68604480002F01D0002000E0342020
:100FB0006968087068680028BAD0811D0091B288FD
:100FC0000199841C071D01928088238882189A4207
:100FD00009D8009A8018019A5DF768F83988019855
:100FE0000818388009E01A1A009BC0185DF75EF8EF
:100FF00020883880696834200870388804280FD326
:10100000009841780278080210432188001D884228
:1010100007D280B220803988814207D9388002E027
:1010200068E0884202D969683420087038882188CD
:1010300088425FD1686800990C380190039857F78F
:10104000E0FE69680978002951D1714988424ED083
:1010500003990F0201993843C8802088022101902A
:101060005AF798FC0490228800995DF71FF80498BD
:1010700000283FD0696800208880019802226B46D2
:10108000039907C36868049B821C011D801D41F7FA
:1010900001FC6968087004985AF7F7FC6868418891
:1010A000002902D00178002954D0018940393F2914
:1010B00044D8017830291ED00146544A05980C398D
:1010C0001058083041F74AFD69680398891D41F7B7
:1010D000F2FB4628686801891FD00322039853F762
:1010E00017FF00282CD0808A00282CD028E00398F5
:1010F000FFF78AFE42E04A49098D0906C90F07D069
:1011000048490C380968099A898D89B25AF786FDD1
:1011100068680C385AF78FFD12E00322039853F7E2
:10112000F7FE04000CD039460A3104233948099AE5
:101130005AF73EFDA1894180102101705AF751FDF7
:10114000002068601AE0686800220189039841F76E
:10115000ADFBF5E70189084640383F280ED8032249
:10116000039853F7D5FE002808D0808A002805D1BF
:10117000686800220189039841F798FBB07941F72C
:10118000A2FC00200BB0F0BDFFB58BB00646169850
:101190000027022821D00D980188149881427DD320
:1011A0007188084640383F2802D8159853F7F1FE59
:1011B0000C98361D0088149A80190E995CF776FFFA
:1011C0000C980188149808180C9908800D980188CB
:1011D0001498081A0D99088069E100200E9D079067
:1011E00069782C78090221433180E978AC780902CA
:1011F000214371808C46403904242D1D024603464C
:101200008E46402900D3287861460DE0AC7DFD076D
:10121000FFFF0000260E0000E078FD07010A000035
:101220004C7EFD075876FD0704291FD0052914D0F0
:10123000062918D070463F283ED8159853F7A9FEC6
:101240000006000E04D0FC48008D0006C00F31D00F
:1012500002230120F94A002712E0697800290FD003
:10126000F74A17230CE0F74A0F2309E0522802D06F
:10127000D22802D002E0142000E01520F24A1F23F9
:10128000002A7DD098427BD280001058049000281C
:10129000F7D0002008900590708800E006E1403803
:1012A000402803D32878052430716D1C701D0090F0
:1012B0000498AFE03027EDE03327EBE0522864D00C
:1012C0000CDC4B283FD004DC41286AD042285AD19C
:1012D00011E04C2820D0502855D140E0632830D070
:1012E00004DC572818D061284DD19BE06C2864D0CD
:1012F000772848D109E00098297801700098641C8B
:10130000401CA4B26D1C009081E00498401C049025
:101310000178089881427AD10098A41C401C4108A9
:101320004900881C009068782A78000210430880E1
:101330000599AD1CA4B2002969D008900020059041
:1013400065E00120FBE71022294600985CF7AEFE1D
:10135000009810341030A4B21035009057E02046A9
:1013600040301499039088420DD8402229460098B5
:101370005CF79CFE009840300090039884B200E037
:1013800079E0403543E0342741E0082229460098BF
:101390005CF78CFE009808340830A4B20835009041
:1013A00035E00622294600985CF780FE0098A41DCF
:1013B000801DA4B2AD1D009029E01498001B80B2DE
:1013C00003903088001B001D81B201200790049813
:1013D000401C04900098401C400840000090049875
:1013E000007857281CD04228CDD100980170090AF6
:1013F000417000982946801C0090039A5CF756FEC5
:1014000003980399201884B200984018009004981B
:10141000401C04900078002820D0002F19D01DE037
:101420004908E2E71498001B80B203900098039AE1
:10143000401C41084900012000910790294600986E
:101440005CF734FE03980099201884B203980818BA
:10145000DCE70D990988A14200D32FE70D98008899
:10146000A04208D304990978002904D107990029DA
:1014700003D1A04201D034270CE00D99001B088055
:101480000C9801880098801B001F08180C99002FE9
:1014900008800CD07088042809D0062807D040386E
:1014A000402804D30E984079707100E03427384604
:1014B0000FB0F0BDFFB581B01F4616460C46104672
:1014C0005AF72BFD00253F2802D02189062908D094
:1014D0003B4632462146019854F7E7F80546284630
:1014E000B4E4000701D50225F9E720780028F6D1F9
:1014F000300AA11D41F7E9F8F1E7F3B581B0019891
:10150000524C850060590F464068CE880146243110
:10151000009146F70BFF00994D4A40310091C9896F
:10152000701A80B2904214D2B14212D06059314642
:10153000406845F7B4FF60590522791C1F305CF7FD
:10154000B5FD019805210002401C80B25AF7B3FC9A
:10155000FEBD60590522791C1F305CF7A7FD00987D
:10156000808841F78FFFFEBDF8B53A4C06468500EE
:101570000F4660594821095C24290ED100691022C8
:10158000791D2E305CF792FD61592520403108729B
:1015900000221146304652F761FE60594821095C2D
:1015A0000C291FD100691022791D2E305CF77EFDB9
:1015B00060595F210069095C09072DD401462E316D
:1015C00010221E305CF796FD00280CD060590921CE
:1015D00040300172304653F75FFB0146002230462F
:1015E00052F7C7F9F8BD0421684601706A46052123
:1015F000304652F769FB684601786020014368462F
:101600000170304653F748FB0146684602780123D3
:10161000304652F7C3FAF8BD304653F73DFB012878
:101620001AD060590721403001720022114630461D
:1016300052F714FEF8BD00004C7EFD0714F3F107CD
:101640001CF3F10778F3F107B4F3F1071879FD07FC
:10165000FF7F00002C7EFD07615900200969C03121
:10166000887160590421026930461E3252F72CFB02
:10167000605901694031897F002907D01A21403023
:1016800001720021304652F773FED3E71B21403030
:101690000172304652F7C1FECCE7F8B5FC4C054666
:1016A0008600A0594822125C192AC3D14022493031
:1016B000491D5CF7FBFCA0594022F64949305CF714
:1016C00019FD002805D0F3492846203959F771FF44
:1016D000B0E70B21684601706A460521284652F79B
:1016E000F3FA684601786020014368460170284695
:1016F00053F7D2FA0146684602780123284652F78A
:101700004DFA97E7FFB581B003980C46060A00250D
:101710005AF703FC002818D0132816D0142814D028
:10172000DD48B700C0592030407BC00628D503985B
:101730005AF7F3FB15280CD0A07941F7C4F93046CD
:1017400045F7DBFD032806D015E0A07941F7BBF98A
:101750001FE002251DE0D048C0592030407B4007E3
:1017600004D53D21304641F7E6FD04E03D2200214D
:10177000304641F7EEFD3D21304644F73BFE08E0A0
:1017800020460C38C5498180C68020464DF7C0F9F7
:1017900001252846A4E6F1B58EB00E9841F7A0F9D0
:1017A00004460E98694600794006C00F0A900690DC
:1017B0000A208883628BBA49101A88427ED2E08A56
:1017C00006287BD31921C901884277D8238BFF21B2
:1017D000F5318B4272D85B1C990059184143491C62
:1017E0000A2349105A43914268DC217F00290CD119
:1017F000617F002909D1A17F002906D1E17F00295D
:1018000003D12021095DC90658D0274620377978B1
:10181000C906C90E491F0C2950D2A18A81424DD850
:10182000E17C00294AD0421E082A01D9082000E0A4
:10183000401E814242D805A844F7C4FD00283DD18E
:10184000984D0622E861214608A85CF72FFCA8788D
:101850002E46803E00287ED06079800901280AD07B
:1018600020460A994AF7ECFE00285ED03821095C30
:10187000002954D059E020464AF74FFFE86100287C
:1018800004D10BA920464AF75EFFE861F16A887A25
:10189000012801D0042810D1E86900280ED00622C2
:1018A000253010315CF726FC002807D1E869F16A81
:1018B0002030C07AC97B884200D100E0A2E0E9690B
:1018C000002932D0062208A825315CF7EFFBE86931
:1018D0002B21095C07AA253006914AF793FD0028C1
:1018E0000FD0E8692030C07A002811D168466E49CF
:1018F000808B49F739FD07AA01216B484AF782FD21
:1019000006E007AA01210BA84AF77CFD00280CD0AD
:10191000E9696846808B323149F73CFD05E04218A1
:10192000527D002A08D010296CDBF06A407A022828
:1019300006D0032804D00EE0491C1029EFDBF4E7A1
:101940006846808B0A2806D307AA20460A994AF7D8
:1019500059FD002856D0002205A920464AF7FCFD73
:1019600000284FD1F06A407A02280BD0032809D012
:1019700000236846828A08A806994AF70EFE0028C6
:1019800002D02EE00123F4E7E18A68460180218B32
:101990004180618B81807878062241096846817395
:1019A0007878C106C90E684641732146801D5CF7F0
:1019B0007DFB0E9800794006C10F68460173838A4B
:1019C0002146B26D45F7ABFC0146B065684641F76C
:1019D00051FB0020B065214668461C31808A44F7DF
:1019E00044FD47F7E2FC2F4C20342079002805D035
:1019F000002109205AF778FB0020207100210846B9
:101A00005AF759FA54E570B516460C46488853F70C
:101A10001AF90546FF2838D0012153F78AF90C2816
:101A200004D100220121284652F76CFF0023E01860
:101A30000079002803D15B1CDBB2082BF7D31448D4
:101A4000A9004058006900280AD04030C07F000734
:101A500006D4082B04D30121284652F724F814E0B9
:101A600029021E23324611480A315AF7A1F80546C9
:101A70000B202870A089688228460822211D143076
:101A80005CF714FB28465AF7ACF8002070BD000044
:101A90002C7EFD07EC7DFD071879FD070608000088
:101AA000770C0000E479FD0704E5F107160E00004D
:101AB00000207047F7B5784E0D468700F15982B087
:101AC0000E2D08D10A69002A05D0537EDB063DD5CC
:101AD000927CD2063AD540310402C97920460A30B8
:101AE000C907009000290AD00146E32000015AF7F7
:101AF000FBFAF0594030C17949084900C17105200D
:101B0000A11D48234002009A5AF752F804460620C5
:101B1000A0806249A571A8000A58A01C04999047AA
:101B200020465AF75EF8052D10D00E2D0ED05C48D9
:101B30000099006880304269E32000015AF78AFA70
:101B4000F05901224030C1791143C171C8E4F8B5A0
:101B50000C4605465049800008584030C07940077F
:101B600017D4204640F7ACFD69460870002809D01C
:101B700007280ED00121284653F7DBF860260C28F1
:101B800008D00EE02079474980000A5821462846AF
:101B900090474FE56846027801213243284652F7C4
:101BA000B1FE6A460521284652F78EF820790128B1
:101BB000EFD00B28EDD0284653F76EF80146684663
:101BC000027801233243284651F7E8FF32E538B561
:101BD0000D46044653F760F801280DD1204651F711
:101BE000DDFD69460870002807D0092804D10A469F
:101BF0000521204652F768F838BD2749A00008584B
:101C000000690028F8D10121204653F792F80C28EA
:101C100004D100220121204652F774FE21020A312C
:101C200008230A46204859F7C3FF04460A202070BB
:101C30000622691D601C5CF739FA204659F7D1FF6E
:101C400038BD70B50C460546012153F772F80146C0
:101C500070200C2911D0104AA90051580969002997
:101C60000AD064790443284653F716F80146002346
:101C70002246284651F792FF08E762790121024384
:101C8000284652F73FFE01E7094808490160094923
:101C900041607047704770472C7EFD0730F4F107B4
:101CA0005876FD076CF4F107120E00008CBFF107A7
:101CB000C00008403862FC07F8B53E4C6088C60793
:101CC0006088F60FC005C50F60884008400060803E
:101CD0006088FF270137B843608040F771FE40F706
:101CE00075FE00220821022040F764FE002800D083
:101CF00001206188A18861884908490031436180D9
:101D000061882A02B94311436180F8BD70B501258D
:101D100029492A020A60BFF34F8FBFF36F8F27490B
:101D20000A6027490B681C0A240240231C430C60EC
:101D3000214980390A601F494C880626B443241D76
:101D40004C804C882C434C804C8838252C434C804C
:101D50004C889C434C800F280FD14888330218438D
:101D6000488048881043488048882A0210434880A9
:101D70004888012292039043488070BD10B5114CF1
:101D8000E18A114ACBB21189248BC904890E6404FB
:101D9000640E001B093141430120C002401A80B289
:101DA000584340031189000E090A090201431181B9
:101DB00010BD00002020005080E100E080E200E043
:101DC00008E400E000230050002C0050F8B50202A7
:101DD00005464123092134480A3259F7E9FE2721F3
:101DE0000170044600201F233049AA008F581E1A94
:101DF0004936BE5D2718401C7E702028F6DB002087
:101E00003F238E581F1A4937F65D27182037401C8C
:101E10007E702028F5DB5AF7DDFF0146601C5BF77A
:101E200056FC002812D10A2000906A460521284657
:101E300051F74AFF284652F72FFF009960221143BD
:101E4000CAB201460123284651F7A8FE204659F799
:101E5000C8FEF8BD70B505460446008914490C3427
:101E600088B088421AD100201F216E460A1AA25C4F
:101E70003254401C2028F9DB2022314620465CF7F2
:101E800015F900203F210A1AA25C3254401C202878
:101E9000F9DB20226946A0185CF708F9284649F7C3
:101EA00024FA08B070BD0000270D00002C7EFD074D
:101EB0002620000000280BD000BF00BF00BF00BFDD
:101EC00000BF00BF00BF00BF00BF00BF401EF1D178
:101ED000704700001CB5094800900948019005466C
:101EE0000126009C05E0E36807CC33430C3C98478F
:101EF0001034AC42F7D3FEF70FFB00008866FC07F6
:101F0000C866FC0701480121018070470815005090
:101F1000F8B505252C0760898007534E22D0A08A8A
:101F2000400701D502F098FF218C802001432184D5
:101F3000FF21718004213180218830220A432280D0
:101F4000218803220A4322804849F288B388120478
:101F5000D2188A42F9D335809449C9896180218C8D
:101F600081432184424801884907FCD420883021DC
:101F7000884320802288032082432280002201237C
:101F80001A403C4F3A702A0649D06D1E328802270B
:101F900017439F4337800422728037881743378066
:101FA00022880A43228022880243228032885207F4
:101FB00001D500BFFAE722888A4322802288824323
:101FC0002280F288B7881204D2192B4FD219042A22
:101FD00011D90022754F3A823F79002F01D0192282
:101FE0001701F74A526A921CBA4200D33A46F44F9C
:101FF0007A621A46C3E7F24A118A491C118289B2F1
:1020000014290CD300211182117A002900D0132148
:10201000526A521E8A4200D80A46E9494A626189D8
:10202000890706D0618981436181608C01218843E1
:1020300060842089802101432181208A04218843F2
:102040002082A08A8007FCD540F799F9DC48006A15
:102050000A4908600A480168490700D500BE0168BE
:102060004907FCD5F8BDC04600160050E903000042
:1020700008330050F066FC0761F8FFFF08020040DB
:102080001000004080B50A2000F094F880BD80B5B3
:102090000B2000F08FF880BD80B50C2000F08AF88E
:1020A00080BD80B50D2000F085F880BD80B50E2084
:1020B00000F080F880BD0000FEB5019302920E464C
:1020C00007460120002132465CF734F83A015CF7FC
:1020D00031F805460C46BA49C86B2040896B294047
:1020E0000143089800D100BE002804D0384631468C
:1020F00000F026F803E03846314600F03DF8B049DC
:10210000C86B2040896B2940014300D100BE029A70
:102110000198024378017100081801494252FEBD3E
:1021200006300050A648C16B806B000300D400BE8F
:102130000248008808210140C8087047203000503C
:1021400070B50E46054601240021204632465BF755
:10215000F1FF2A015BF7EEFF994AD36B0B40916BBD
:102160000140194300D100BEB44068010149014358
:102170000C8070BD0230005070B50E46054601243B
:102180000021204632465BF7D5FF2A015BF7D2FFDC
:102190008B4AD36B0B40916B0140194300D100BEB9
:1021A000B4406801024901430C8070BDB84BFD0783
:1021B00004300050F0B503460A3B01210A469A401C
:1021C00093B20B4D5C19661C5E400A4B1C880027BD
:1021D0002E4203D07F1C7608B6B2F9E79443BAB218
:1021E0000D46954025431D80814042480160F0BD69
:1021F000FEFF01000E14005016490A888023134385
:102200000B800368144A13604368536083689360CB
:10221000C368D36003691361436953618369936140
:10222000C369D3611062364803685362436893629E
:102230008368D36243691363C3685363006990631F
:102240002D48082202804888800600D4FEE700BEA0
:102250007047C046120000500000FD070248008889
:1022600024481021016070472C13005020490A892E
:10227000042313430B810A89022313430B810A8829
:10228000402313430B801B4A012313601A4A08237F
:1022900013804A89802313434B810368174A1360D4
:1022A0004368536083689360C368D36003691361B4
:1022B0004369536183699361C369D36110621048B4
:1022C00003685362436893628368D362436913630C
:1022D000C3685363006990638889800600D4FEE771
:1022E00000BE4889074A10408018001D4881704789
:1022F0000800005080E200E0003300505000FD076D
:1023000028ED00E0FC7F00007047000010B50F4C86
:10231000A1880F200840022809D0042804D00C28E6
:102320000CD00128F4D110E003F0DAF9F0E72088AE
:102330000221884320802088802103E003F0D0F927
:102340002088012188432080E2E710BD041100505D
:1023500080B5052000070188302291430180018863
:102360000322914301800421415E002906D51249D0
:102370000A88520702D50A88D20713D18088C0067E
:102380000FD50E48018809060BD5012181800188EF
:10239000802291430180B148C069002801D003F038
:1023A00071F880BD0888022202430A800888012251
:1023B0009043088080BDC0460002005000010050DC
:1023C000B84BFD073848018802220A4302800549BC
:1023D000491C02D202889207FAD400210181408967
:1023E0007047C0465F79FEFFFEB50546144802906F
:1023F00002AC204600F028F81420FFF75BFD072010
:102400008601002D00D08036274F38880D490840BE
:1024100080193880FFF7D6FF01900220FFF74AFDB0
:102420000025A570204600F00FF8388805490840BF
:1024300080193880FFF7C6FF3D8001994018FEBD26
:10244000010001013FFCFFFF10B51749174A0A8040
:1024500000224A80164A40231360BFF34F8FBFF318
:102460006F8F00281ED00A88124B13400278D202C8
:102470001A430A80104A134640330C881C404378A4
:102480009B0123430B800B881340827892029A1899
:102490000A8009224A804A8802239A43C078400071
:1024A0001018488010BDC0460015005001400000C3
:1024B00080E100E0FFF70000FFFBFFFF10B52D4CAF
:1024C0002078FF280DD002F051FE3F49487000F0FF
:1024D00011F82078FF2807D00448054900F044F996
:1024E00000E000203849887010BDC046504600000A
:1024F000BD24FC07F8B50446642800D364243248A0
:102500004470F54E3078FF2832D00C214143F34817
:1025100040184221405CFF282AD0FD2040F78FF967
:102520000146EF480422072359F742FB00281FD039
:102530008471012787800825458059F752FB707800
:10254000844215D0FD2040F77AF90146E448C01CCA
:1025500080B20422072359F72BFB002808D084718E
:102560008780458047703178017059F73AFB747065
:10257000F8BDC046C866FC0710B5DC4CA079012840
:102580001ED16079411C6171C8B23C2809D3002179
:1025900061712079401CC2B2172A0A4600D802464F
:1025A0002271607B012806D12078002803D1207990
:1025B000C9B200F015FF0548054900F0D5F800E064
:1025C0000020E07110BDC046D066FC077017000007
:1025D0007925FC0770B531480921042418232246C7
:1025E00059F7E6FA05461B202870FD26304601F013
:1025F00021FD0021A982E96029616C606E8068700C
:10260000284659F7EEFA70BD0120704710B5B3485F
:10261000C17A134ACCB20C236343D45CFF2C06D09E
:10262000D318491CC1725B68002BF3D00DE0017B0D
:102630000C4ACCB21C236343D45CFF2C08D0D318C3
:10264000491C0173DB68002BF3D09847002010BDB4
:102650000021C1720173012010BDC046B84BFD07B7
:102660006063FC078C5AFC0770B50C4809210424F0
:102670000A23224659F79CFA05461B202870142687
:10268000304601F0D7FCFF21743129816C606E80E7
:102690006870284659F7A5FA70BDC0461B0D0000AA
:1026A0001FB5144601220292044A0192069A009232
:1026B0001A46234600F01CF904B010BDF059FC077F
:1026C000F8B5204F3C68002C32D11F480925042260
:1026D00052262946334659F76BFA044638600020E3
:1026E000A0721A48E080A0800D2020801622E2729D
:1026F000FF200830208120460C3015A15BF7D6FC66
:102700002E20442121542B200A21215420462E30F2
:102710004821C17150218171467101712D21C17013
:10272000472181704C21417020462B3085704570C7
:10273000204659F756FA002038600420022159F744
:10274000BAFBF8BD084BFD070D0D00004C0400005E
:1027500003030A181107595A08E4862A9E8FE911C3
:10276000BC7C984342180000B0B50246B7482430FC
:10277000002423460A2B0BD00568002D02D0001D33
:102780005B1CF7E701605C1CE0B2114600F070F9D9
:10279000E0B2B0BDF8B50446401E09281BD8A00021
:1027A000AA494718386A002817D0AA4DA84214D061
:1027B0002037A4482018401C0426314659F794FCC1
:1027C0003D6008239F483146324659F7F1F90470BD
:1027D00059F707FAF8BD00BEF8BD00BEF8BDC04607
:1027E000F0B585B0039302920E4607460020041D03
:1027F000142C0ED004A900910AA10D583846314678
:10280000029A039BA84700282046F0D104A800782C
:1028100006E038463146029A039B02F069FF002029
:1028200005B0F0BD3528FC075529FC07A126FC079B
:102830000926FC071FB514460D220292044A019294
:10284000069A00921A46234600F052F804B010BDD2
:10285000F859FC07F8B5204D2878FF2837D00C210F
:1028600041431E4840184221405CFF2827D0FD20EC
:102870003FF7E5FF01461A480422072359F798F964
:1028800000281CD09B278771012686803124448034
:1028900059F7A7F9FD203FF7D2FF01461048C01CA9
:1028A00080B20422072359F783F9002807D08771E3
:1028B0008680448046702978017059F792F928780B
:1028C000FF2807D007480849FFF74EFF00E0002027
:1028D0000649C870F8BDC046C866FC07B84BFD077E
:1028E00003FD0000DC0500005528FC07D066FC074E
:1028F000F0B585B001260C9C002C25D004960191E2
:10290000029303920B9B0A99E500EE18083E671CA0
:102910000F4B7F1E012F16DB34463588854203D0CE
:102920002646083E9D42F4D16568002D049E03D1E1
:1029300000BE6568002D07D00C4601AB0ECBA84742
:102940002070002600E0049E304605B0F0BDC04671
:10295000FFFF000010B50C466149884233D0384A69
:1029600090421DD0374988423ED12078401E092828
:102970005AD8800035490818416A364A914255D0E4
:102980003348814257D12E48042108230A4659F77B
:102990000FF9217801706168416059F722F94AE026
:1029A0002078411ECAB2092A3CD88900274A51180A
:1029B0004A6A274B9A423ED1CA6C24310A60616848
:1029C00000F056F837E06268002A01D100BE626864
:1029D0001D48824201D300BE626820781849401821
:1029E000042159F737FB26E0531C0121984225D3D7
:1029F0000A32904222D8C1B2091F8900134A5218E4
:102A0000516A002917D0124B994214D0114B9942A8
:102A100011D013462433C01E00241C60D464C0B2FD
:102A2000884708E000BE06E000BE04E0014624310D
:102A300000220A60C264029800210170084610BD9D
:102A40000304000002040000FDFF3F00184CFD07D6
:102A50008354FC078154FC07B0B50C460025202D9B
:102A600004D03FF788FF60556D1CF8E70020B0BD2B
:102A700070B50C46054619490888000618480ED559
:102A8000184A126812040AD4174A1288D20706D1CB
:102A90004019801C0421224659F7DCFA70BDEFF37F
:102AA0001083012282F310880988090603D40F4994
:102AB0000E8816430E80002B02D082F3108802E0AD
:102AC000002181F31088042108230A4659F770F881
:102AD0004460057059F785F870BDC0460800005085
:102AE00001040000300000405877FD070833005013
:102AF000704770B514460D460646FD2002F0C6FA32
:102B0000002800D100BE0069002C00D100BE002DBD
:102B100000D100BE002804D00179B14204D0006881
:102B2000F8E70020288002E041792980801D20609C
:102B300070BD000070B515460C46104659F7EDF90A
:102B4000002816D1FD2002F0A1FA0646002800D187
:102B500000BE0948082106232A4659F729F8A1880A
:102B60004180A1790171B18862885118018059F7BB
:102B700038F8002070BDC046180C0000FEB51546A0
:102B800002910646FD2002F081FA0446002800D199
:102B900000BE10342746029A3F68002F0ED03879C5
:102BA000B042F9D17879824219D0002220463946C4
:102BB00040F728F8384658F768FF029A01951546FD
:102BC00008350121284658F7E5FE07462946019DAC
:102BD0005BF785FA204639463FF7C0FF029A7A71C3
:102BE0003E71B81D29465BF761FAFEBDF8B50C468B
:102BF0001F4D14350069009001271E4E372F0ED04F
:102C00002879022808D128680088B04204D1F9B296
:102C10000022204600F016FA14357F1CEEE7022051
:102C20000099085E56490140C20B2002104008433B
:102C3000002159F740F9F8BDF8B50C46082900D332
:102C400000BEFE4D143501260A4F372E0ED02879CE
:102C5000022808D128680088B84204D1F1B20022C5
:102C6000204600F0EFF91435761CEEE7F8BDC046BB
:102C7000C45AFC070229000070B5054604692646BF
:102C800010363068002805D030463FF74BFF58F724
:102C9000FCFEF6E700202861204658F7F6FE70BDDE
:102CA0007CB5FD2002F0F2F90446002800D100BEF8
:102CB000A568607B6E4601AA3146FFF71AFF30888F
:102CC000082800D000BE217B019807290CD84A1C97
:102CD0002273435C6E7B012E02D1DB0702D012E02F
:102CE0009B0710D41146F0E7A068C28801896B7B6E
:102CF0002248012B19D1042358F75AFF0021817073
:102D0000E98901801AE0A068C2882B8AC1200001ED
:102D10000902083189B208339BB258F749FF0646C9
:102D2000687B002817D1132016E0801C80B2062390
:102D300058F73EFF00210171E989418058F751FFA2
:102D4000A06858F7A2FE0021A16062880C481040DC
:102D500059F7B1F87CBD12203070A088E9890818B5
:102D6000B0802A8AF28030460830123529465BF757
:102D70009DF9304658F735FF7CBDC04607FD000081
:102D8000FF7F000010B50446FD2002F07FF9002807
:102D900000D100BE81798C4202D28088001900E007
:102DA000002080B210BDB0B50C460546FD2002F0F3
:102DB0006DF90146002800D100BE8A888020954226
:102DC00006D389798918A94202D9A81A207000204F
:102DD000B0BD0000F0B595B01E46029208910546C0
:102DE0002824012120460D9158F7D4FD074621469D
:102DF0005BF775F9079504972F61089B1E200196D4
:102E000030403F21C943411803915F21C943411814
:102E100005917F21C943401806900022874E032A5E
:102E200000D1CFE01D460798848A11A8814901800E
:102E3000511C81480B91415C0C92875C781CC2B29A
:102E400091420F91084600D810460E92F943081897
:102E5000C1B2182048431830032158F79BFD298838
:102E6000054601804480142420460A97784331188F
:102E70000A79022A069803D0042A059800D00398FC
:102E80002871A81D096910225BF710F90E9A5443A6
:102E90003719002409972346D0180F99884246D243
:102EA0003879102829D0042813D002283BD1109358
:102EB0002E462D193868017840786876297628469C
:102EC0001A300E215BF70BF9B868010C698528856B
:102ED00023E010932E462D193868017842788378C4
:102EE000C078E876AB766A76297628461C300C21C5
:102EF0005BF7F5F80D9880040AE010932E462D1923
:102F000028461830396810225BF7D0F80D98C004B5
:102F1000B9680843000C68852985B8893119888506
:102F20000E9A3546109B143718345B1CB4E76B714E
:102F30002F4628464CF7A7FF0E9B04460028099D04
:102F400013D0384658F7A1FD089B18880C99002922
:102F500001D1049988800F990A9A891A0818188053
:102F6000002C0B9A354E61D159E7388808990880B2
:102F7000002426460F988342E3D2002CE1D10C2096
:102F8000285E761C0024002819D4E989002916D06F
:102F90002879022808D12868027840780002801831
:102FA00011AA128890420AD0F0B23A88101880B262
:102FB0001C462B6900224DF740F823460446143581
:102FC0005B1CD7E73720049A9071FD200799C882CF
:102FD0000D9DCD811A484860888A50801046243063
:102FE00088600198C003029908431080103210468F
:102FF0003FF790FD0024139412941436372D10D00F
:10300000307902280AD10B48FF30316809888142A3
:1030100004D1E8B2082112AAFFF7B0FD14366D1CE6
:10302000ECE70798808A214658F745FFE0B215B0D3
:10303000F0BDC04603280000885AFC07C45AFC07AC
:10304000105FFC07F0B585B000920C4606460828D4
:1030500000D300BE04AF03AA20463946FFF749FD5E
:103060003888002800D100BE0399002901D100BE94
:10307000039904A8078801AD28463A465BF716F87D
:103080000098A855204639462A46FFF777FD05B037
:10309000F0BDFEB514460E46FD2001F0F7FF0546D3
:1030A000002800D100BE00967788AE8801942046A3
:1030B00058F733FF012801D102271BE0B81980B26D
:1030C00000F05AFF002801D100BE002002A9FFF73E
:1030D0006AFE00280198009C00D000BE01273946F6
:1030E00058F7E9FE002028730C3CAC600298687326
:1030F000FFF7D6FD3846FEBDFEB514460E46FD2050
:1031000001F0C4FF0546002800D100BE0096778874
:10311000AE880194204658F700FF012801D102270C
:103120001BE0B81980B200F027FF002801D100BED3
:10313000002002A9FFF737FE00280198009C00D06C
:1031400000BE0127394658F7B6FE002028730C3C14
:10315000AC6002986873FFF7A3FD3846FEBD10B55A
:103160000C46FD2001F092FF002800D100BE8088AF
:103170006188081880B2A188A31D002422464CF75C
:103180005CFF204610BD000070B514460D46104689
:1031900058F7C3FE01282ED1287801020831AA79F8
:1031A0001648002A0CD089B20623224658F700FDA3
:1031B0000646A878FFF7E6FD3080A879307113E065
:1031C000AA8889B2921D93B2224658F7F1FC0646AE
:1031D000A878FFF7D7FD002131713080AA8872806E
:1031E000701DE91D5AF762FF304658F7FAFC0021BE
:1031F000204658F760FE002070BDC046140C000049
:1032000070477047F0B593B05821394C605C002886
:1032100066D1019137A003A90A46274678C878C22B
:10322000384608300A4610320346F0CBF0C20A4650
:10323000203278C878C22E4C20680025401C2060BF
:1032400062686A41626010950F951190129218346D
:10325000402220465AF72AFF0A2D33D0029500213A
:1032600020292CD02748425C9300E55847187A78EB
:103270009200A658AD19E550FE78B600A0596840F6
:103280001025E841A051BD78AD006759381860514C
:10329000A75847401420C741A750E058C019E05034
:1032A000A35943401820C341A3516059C01860512D
:1032B000A35843401920C341A350091DD0E7029DE4
:1032C0006D1CC9E700200A4C402807D003A9095803
:1032D0002218936959189161001DF5E71020019992
:1032E000401E6054C0B280002018806913B0F0BD49
:1032F000F866FC07657870616E642031362D62795E
:103300007465206B685AFC075821044A0023535403
:1033100000BA1360536090607047C046F866FC07BF
:1033200070B500250F4EE8B2082819D2FF21318070
:103330000024214601F05CFD00F0E0FE782000F062
:10334000EFFE402000F0ECFE60B2002804D4002024
:1033500000F0E6FE641CF7E700F0DAFE6D1CE2E721
:1033600070BDC04600310050F8B50090002A34D03E
:1033700014460D462778002F2FD0E9B27A292CD891
:1033800038466138C0B21A2800D2203FF8B220284F
:1033900001D35B2800D32027641C009801F028FD8E
:1033A00000F0ACFE782000F0BBFE402000F0B8FE3C
:1033B000203FF8B205214143084847180026052E52
:1033C00004D0B85D00F0ACFE761CF8E7002000F0F9
:1033D000A7FE00F09DFEAD1DCCE7F8BDB460FC0774
:1033E000F0B585B0172802D80C463C2903D31948FC
:1033F00003902D201EE0054603AE3A20B0700A214E
:10340000019120465AF7D8FD0290302701463943F2
:10341000F170284601995AF7CFFD014639433170C2
:103420000921C94348434019384370700298414309
:103430000819384303AC002161712071AF2001F0FD
:10344000C7FCFFF76DFF032031212246FFF78CFFF9
:1034500005B0F0BD2D2D3A2D7047704770B505466B
:103460000469261D3068002805D030463FF75AFB16
:1034700058F70BFBF6E700202861204658F705FBBC
:1034800070BD10B589B2431C002009280AD00C4633
:10349000C440E40704D09CB2641C944203D09B1C3B
:1034A000401CF2E70920C0B210BD0000F0B58BB09F
:1034B0001E4607920F460446109806900088089012
:1034C000012200210B46092B13D006258D400991BE
:1034D00021463446089EDE403846012737407E426A
:1034E00007462E40324326460C460999891C5B1C30
:1034F000E9E70A92802030439E210140A08A03918F
:103500001D4902910190002000901C490AAA132332
:1035100038464DF770F80546002829D1089720272E
:1035200001210591384658F735FA0996064639467D
:103530005AF7D5FD266130461E3011496160A06002
:103540000898008830830598E0811420E082A08AE2
:1035500070800998C0030799084330800698008856
:103560007083301D3FF7D6FAA08A002158F7A3FCDC
:1035700028460BB0F0BDC046A05FFC070A1800004B
:103580008460FC07FEB5019302920C46142001F002
:103590007DFD0546002800D100BE2778082F13D8EE
:1035A000698B288B3A4600F0F7F800280ED0607837
:1035B0008D26802838D8082F0DD0072F08D0062F49
:1035C0000BD1082809D02FE081262DE082262BE0A0
:1035D000062802D228E0072826D12E1D35462D6860
:1035E000002D0BD02979B942F9D100223046294665
:1035F0003FF708FB284658F748FA60780830012161
:1036000058F7C8F90546617808315AF768FD2078FF
:10361000287162786A71A81DA11C5AF747FD3046CF
:1036200029463FF79BFA0026064802230199029A91
:1036300058F7BEFA21780170467058F7D2FA002088
:10364000FEBDC04601140000F8B514460D461046F4
:1036500058F763FC01283FD1142001F017FD0746FD
:10366000002803D0798B388B3E7F06E000BE1A20FD
:103670000188182000881C221678324600F08CF849
:103680000090787F010208312A781448964212D1BE
:103690006A7889B2931D224658F78AFA06460020B6
:1036A00030710098308068787080701D6A78A91C2D
:1036B0005AF7FCFC09E089B20623224658F778FA4B
:1036C00006468020307100983080304658F789FADD
:1036D0000021204658F7EFFB0020F8BD140C000035
:1036E000F8B51F460C46087808281CD80725002185
:1036F00000911AA6784400794000874419040C040C
:1037000006060F0912001A4E12E00D25174E0FE0A3
:10371000062514A60CE00A2516A609E008251AA617
:1037200006E017A604E000BE002601200090354602
:10373000AB1C1848394658F73BFA074620783870D2
:103740007D700098002804D1B81C31462A465AF7EB
:10375000ADFC384658F745FA0020F8BD52656E6555
:1037600073617300FFEEDDCCBBAA00001366FC079B
:103770002166FC07312E302E302E302D4C450000B6
:1037800001D2008005000100123456FFFE9ABCDE13
:103790000000000003140000B0B58BB2411C0020F3
:1037A0000446092C09D01D46E540ED0702D0A2428F
:1037B00002D0891C641CF4E7481C80B2B0BD10B56F
:1037C0000C78012C03D0092C09D04C7802E04C78FD
:1037D000432C02D0002C00D000BE01F089FF002055
:1037E00010BD0000FEB51C4610460D4658F795FB6F
:1037F00002285FD1270A00D000BE0C20784352492E
:103800000A1816464036B770FF2F54D00121019197
:10381000F170042000900292032158F74CFB288895
:103820003080687A3071701D0A35062229465AF7B1
:103830003DFC0A200443F520844320482C232146E4
:10384000009A58F7B5F901990902018558F7C9F9A5
:103850000299072F2FD83D4C27704220085CFF2883
:1038600001D1FEF72DFF01F0EDFD2078FF2808D0F3
:10387000FF2060707D2080001149FEF775FF3449FC
:10388000887001F0F3FD2078FF2805D00D480E491F
:10389000FEF76AFF2E49C8702D4CA07B002803D08C
:1038A000FEF778FF0020A07364200849FEF75CFF54
:1038B000A07300E000BE0020FEBDC046020E000066
:1038C000BD24FC07DC0500005528FC07114EFC0751
:1038D00070B51C46104658F720FB032830D1200A4B
:1038E0000C214143184840184221FF24445201F062
:1038F000A9FD01F0BBFD154D6C70154EB07B002885
:1039000003D0FEF747FF0020B073B07A002803D041
:10391000FEF740FF0020B072F07A002803D0FEF7D7
:1039200039FF0020F072307B002803D0FEF732FF11
:1039300000203073002030812C70FEF7C1FE00E0C3
:1039400000BE002070BDC046B84BFD07C866FC072E
:10395000D066FC07F0B589B01D46144608780228E9
:103960002CD001281FD000283AD101AE20213046AA
:103970005AF7B5FB3B480778411C30463A465AF7A0
:1039800095FB3B460A3318482946224658F710F95A
:103990000446478000202070201D31463A465AF7E1
:1039A00085FB20461AE02F48468C0F480A232946FB
:1039B000224658F7FDF8468001210EE00A480A2306
:1039C0002946224658F7F4F87D2101810021C18063
:1039D00010218180082141800221017058F701F9EE
:1039E000002009B0F0BDC0460B0E0000002070475B
:1039F00010B51946E1200001062358F7D9F8002434
:103A0000848044800121017058F7EBF8204610BDF6
:103A10000020704770B51D460C46087801280AD072
:103A200000280DD162880F480270401C211DD2B2BF
:103A30005AF73CFB02E060880A494884002600E00F
:103A400048260A200543F52085430748042202231F
:103A5000294658F7ADF846702178017058F7C1F83B
:103A6000002070BD184CFD070D0E000000207047AF
:103A700070B50C78641E122C1ED8C0467C44247984
:103A80006400A7440B1910191919191919191909E2
:103A90001509091909090900002070BD4878002896
:103AA0000DD000BEF8E74878002838D000BEF3E714
:103AB00048784428F0D13AE001F01AFEECE71D4DB9
:103AC0002C68002C25D11C48092104222C2358F7EE
:103AD0006FF80446286017202084184820800026AC
:103AE000668020460A3011215AF7F9FA6684E68387
:103AF000A6832020E0767A211148415AFB2900D381
:103B0000FB21E1847C21405A0E49884200D30846BB
:103B10002085204658F765F800202860BCE704207F
:103B2000012158F7C8F9FEF771FD0028B4D0FEF75F
:103B3000C7FDB1E70C4BFD07040D0000030A0000B0
:103B40006479FD074808000010B5104658F7E5F9FC
:103B5000002801D000BE09E0054809210422012403
:103B6000234658F725F8047058F73BF8002010BD9D
:103B7000020D000080B5104658F7CFF9012809D191
:103B8000FEF744FD002805D00420022158F793F9E0
:103B9000FEF796FD002080BDF8B51D4616460C4682
:103BA000104658F7BAF9002817D1FD2001F06EFA37
:103BB0000746002800D100BE0948042132460B46C2
:103BC00057F7F6FF290A0170E90A00D000BEB9884C
:103BD0002288511A418058F704F80020F8BDC046E9
:103BE0000DFD000080B50878FE210140122901D1A9
:103BF000FFF756F8002080BDFEB51C4615460E4660
:103C0000104658F78AF901280DD00027002860D106
:103C100002960194142001F039FA0646002804D0D7
:103C2000718B308B06E0022753E000BE1A2001881A
:103C300018200088029A1288FFF723FC04460828FF
:103C40001ED80097371D3F68002F27D03879A04233
:103C5000F9D17879831D614801992A4657F7A8FF61
:103C600004460298008820800023237178796080C0
:103C7000601D7A79B91D1F465AF718FA20460AE0E6
:103C80005648062301992A4657F792FF0299098858
:103C900001808021017157F7A4FF1AE03477019B5E
:103CA000180A70773088B14A024000B2C10B19403F
:103CB000FF2081431143084801262A46334657F71F
:103CC00077FF047057F78DFF2846314658F7F3F811
:103CD000009F3846FEBDC04602140000F0B587B014
:103CE0001D4614460E46104658F717F9002801D015
:103CF00002206CE0FD2001F0C9F90290002800D1FB
:103D000000BE04A900270F703088FFF74CF8024668
:103D100003A80780002A16D0BB1D30482946154647
:103D2000224657F745FF044630882080678025717A
:103D3000002D04D1601D03A93A465AF7B7F9204671
:103D400057F74FFF42E02F0A04A803781420584386
:103D500085490818017902291FD1006800881D498A
:103D600088421AD102920197082F00D300BE06AFF5
:103D700005AA18463946FEF7BCFE3888002800D14F
:103D800000BE05980028029A019901D100BE05984D
:103D9000405C03A908800227BEE700200299085E64
:103DA00072490140C00B0540FF2085430D430A487E
:103DB0001E4604232946224657F7FAFE468007701E
:103DC00057F70FFF0121204658F775F8002007B07C
:103DD000F0BDC0460229000004FD0000140C0000E4
:103DE00000207047F0B595B0099317460C46FD20AA
:103DF00001F04CF90790002800D100BE0CA9002565
:103E00000D702088FEF7CFFF06466088002800D09E
:103E100000BE002E00D08DE00998000A05900CA885
:103E200001781420049148434F4908180179022968
:103E300048D16B49FF3100680088884242D102971F
:103E400000200B9008900A900394268830464CF787
:103E50006BF8014606908888B4B2844219D3C888AA
:103E6000844216D80DAD204629464CF77CF8089BB5
:103E700000930FA910AF28463A464CF767F93888E7
:103E8000761E574988420699E5D1601C81B281426D
:103E900001D000BE089880B210A900260AAB3246B5
:103EA0004CF7E7FA039CA088022851D1E28810A8B9
:103EB000407880074FD40220C0430242029F4DD079
:103EC000812612E011951095208810A94CF74BF827
:103ED00008201099085E002806D46288A1882088EE
:103EE000A31D4CF7AAF805462E46002E22D1002627
:103EF0000798805F1D4A0240C00B09990140FF20CE
:103F000081431143A088801D83B219483A4657F770
:103F10004FFE25460446801DAA88A91D5AF7C6F8FB
:103F200004986080A88805992170A08020462C46BE
:103F300057F757FE0F48042309993A4657F738FEBA
:103F400086702188018057F74CFE002015B0F0BD27
:103F50000D26029FC9E7012A029FB1D8059804994E
:103F6000FFF770F8C1E7C046C45AFC07FF7F0000A6
:103F70000AFD0000160C0000F0B58BB004464BF7AC
:103F8000D3FF024602909188A0B20026884223D334
:103F9000D188884220D8039404AF39464BF7E3FF19
:103FA0000026009606AD07AC384629462246334621
:103FB0004CF7CCF80A4B287821881A46FF329142F8
:103FC00001D1022807D09942039C01D1022803D0D5
:103FD000641C029AD7E7039EB0B20BB0F0BDC04696
:103FE0000328000070B511490A880888012420437D
:103FF000088008881E2398430880A5020C48458045
:104000000525058005886D07FCD480880D88142659
:104010002E430A25AE430E800D88A5430D801A401D
:104020000C889C43A2180A8070BDC0462200005034
:104030000016005010B51521CB4362499A1C09D0D7
:10404000CB1862241B5D83421346F7D18818603079
:10405000407810BD042010BD81B000200090009871
:10406000042803DA00BF0098401CF7E701B070474E
:10407000E0B50020009001210A0201460346FEF748
:104080001BF8FFF7E9FF8CBDE0B50020009003218D
:104090000A0201460346FEF70FF84A48C16B806BDF
:1040A000C00700D100BE144801210180FFF7D4FFF2
:1040B0008CBDC046E0B50020009001210A020346F5
:1040C000FDF7FAFFFFF7C8FF8CBD0000E0B5002048
:1040D000009003210A0201210346FDF7EDFF394854
:1040E000C16B806B800700D400BE034802210180B1
:1040F000FFF7B2FF8CBDC0460430005080B5FFF71B
:10410000D9FFFFF7B5FFFFF7E1FFFFF7BDFF80BD68
:1041100080B5FFF7DBFFFFF7ABFFFFF7CBFF80BDFD
:10412000B0B504460025082D0ED260B2002802D496
:10413000FFF7CCFF01E0FFF7BDFFFFF799FFFFF7A7
:10414000A3FF6D1C6400EEE7FFF7B4FFFFF790FFDD
:10415000FFF79AFFB0BD0000F8B5264FBC682046B7
:1041600044F79DFE174EF16A0022F2620D181649BF
:10417000284659F721FF786114494143491919200C
:104180000001002902D0411AE13189B23961396850
:1041900008220A433A60B16A002911D0A1420FD225
:1041A0000B4A1278002A0BD13279002A00D110462E
:1041B000611A726A8918891D814200D301467162B1
:1041C000F8BDC046B84BFD07710200008FFDFFFF30
:1041D000F066FC0780B506480021016001F014F983
:1041E0000120C00703490A6882430A6080BDC046B7
:1041F000AC76FD073000004080B544F750FE80BD2E
:1042000080B544F73DFE80BDB0B50C4C0025A572CD
:10421000FDF788FF002810D101206072617B002922
:104220000BD125706073A079012802D161792079C2
:1042300001E0FF200146FFF7D3F8B0BDD066FC07D0
:1042400000B59BB06749C8201890088200204882BA
:104250006549082211920A80644C1A901A98032822
:1042600011DC0020199019991A98092909DC2821D4
:104270004143601819998900002242501998401C46
:10428000F0E7401CE9E7E5680020C1430122002D6A
:10429000179200D00A46D600554FBB6B3343FE6BD6
:1042A000BB631692520F002D0F4600D12F46FB0024
:1042B0009A1832434E4BDA63A66A002E179F00D03D
:1042C0000F463A0C002E0D4600D135462B049A18A5
:1042D000474DEB6B1343AA6BEB633B041343AB6398
:1042E0002668002E0A4600D132461597404BDB6BFC
:1042F00013433F4A926BEB633D4B002E179E00D059
:104300000E4632439A636268002A179F00D00F4618
:10431000FD0F002A0B4600D113465A005219344DA6
:10432000EB6B1343AA6BEB637B001343AB632B462E
:10433000626B002A00D01791179D6D0B002A00D1E7
:104340001146C9044919DA6B0A43996BDA63179D60
:10435000EA040A439A631699E1601599A162C0C400
:10436000E562D863986323A5083C1A901A9803283D
:1043700044DC002019901998092830DC19981A9902
:104380004900695AC140C80729D028201A994143D9
:104390006118199A92008958491C00D100BE1A99D7
:1043A00041436118199A92008958002914D01A992A
:1043B00048432018199989004058C117199A59F78C
:1043C000B9FE1A9A120159F7B5FE094BDA6B0A4386
:1043D000996BDA63014399631998401CCAE71A98EC
:1043E000401CC2E7F030005002330050144BFD0770
:1043F000B84BFD07FF003F00FF03FF01D9480088CD
:10440000C046C046D84A012016905070D74C20882C
:1044100007211791884320800F20030205263507C6
:10442000688DFF210C91D2310B912F310A910842F6
:104430000CD01846FF3021880140700308182080F6
:104440002088402101433820814321806C88002C42
:104450001093129600D1C64CD481688C169E3043BE
:1044600068840D20FDF726FD6889304302211391F1
:104470008843688168894006FCD56C807D20C00037
:104480001590FDF717FD688903210891884368811D
:1044900068890006FCD5688C169988436884B54AFB
:1044A00000241460688A402318436882688A0E9347
:1044B0009843688214945461AF48906208040D9048
:1044C000D062288880210F91084328803F20FDF783
:1044D000F1FC2888000600D400BEA64800884007EA
:1044E000A14A00D000BEA34C16982060A3480088C3
:1044F0009086A34800681063A24801889182408892
:10450000149E26605082688A0E9908436882688AE1
:104510008843688266619848A0620D98E0622888A6
:104520000F9F384328803F200690FDF7C3FC20688A
:104530001799884320602888B84328809248934977
:1045400059F7CDFD129C6102914859F7C8FDFDF75E
:10455000A2FB904890493022079259F7A7FD8F4857
:1045600006708F488F4901608F48904901609049DB
:104570009048086090480A21017090480670904861
:10458000322101708F4804608F48169E06608F4864
:1045900004608F480621059101608E4817990160DB
:1045A0008D48119C046030020990801D8B49086081
:1045B0008B4908608B487449016000F04DFC2889E4
:1045C00007998843288128893843288128893043DE
:1045D000139988432881288920432881288C3843CF
:1045E0002884688AA043688228890E990843288114
:1045F000288A042188432882A88A8007FCD5288C31
:104600001699084328840803698DC9000140288C45
:10461000754A024050182884288C282101435020D4
:10462000079081432984288C059908432884688A47
:10463000119908436882288C0F9988432884288917
:104640000E9988432881688D0A990842474801D00D
:1046500012994180169A91070868644B1840179187
:10466000086006984002624B19688143500309189C
:1046700019606049491C1A680A431A605E4C218817
:104680000A9189212981188028880F990843288058
:104690002888089988432880208813990843208017
:1046A00000F0DCFD3EF78CF93EF790F96420FDF751
:1046B00001FC52490888089048880690504A908822
:1046C0000590D0880490C8880390488B02904D488C
:1046D0000088019010880090149E0E804E804A48F9
:1046E00090800B98D080CE80C320108047491198CD
:1046F000088009987C30FDF7DDFB45484549012ECF
:1047000000D98BE0129641800C9A8280169A028022
:10471000C288D207FCD10022174613469BB2159CD3
:104720001534A3421AD2CC5CCE18B6786640169CDB
:104730002640FCB2A64032437F1CFCB2082C08D1B4
:10474000149EB4B2344F3C192274761C1496002285
:104750001746294C189E26821033DFE7129E761CDE
:10476000254CCCE742000050B84BFD0782000050BA
:104770005A0400000000F407204F101AACFFF8079D
:10478000A8FFF80710FEF807005CFD077816000088
:104790000076FD07FC76FD0758ECF107F976FD077A
:1047A0005076FD07DC61FC075476FD073464FC0796
:1047B0005876FD077863FC07B476FD07B576FD07EC
:1047C000DD76FD075C76FD076076FD076476FD0704
:1047D0006876FD076C76FD077076FD074876FD0765
:1047E0004476FD074C76FD07FFEF0000FFFEFFFF5C
:1047F00000020040FFFF1F00F03000500024005076
:1048000062280050022600508080000020200050C6
:10481000003500501001FC07D066FC070A98208084
:1048200000211291E6480180E64808990180069926
:104830004180E549059A8A80049ACA80039AC28019
:10484000029A4283E148019A0280009808802888F1
:104850000F9988432880DE481030DE490A46083226
:10486000D8C8D8C25820129C0C540C604C60DA484E
:1048700000683DF71FFD179A1068099908431060FA
:10488000D6480471D6490C70C470D6484484119936
:10489000017048210172079AC271522181714271DF
:1048A0002D2101714721C1704C218170442141703B
:1048B000CD4E34647464B4640427CC49384657F749
:1048C000C8FA304640300C9E867014973846214610
:1048D00057F7F1FA2746BE4CA7736780C4480670A5
:1048E00027736781E77100F041FCF24E6070C048A9
:1048F0000C9A427067732781A771A7802770F148CF
:10490000ED30EF4C002808D031186122149B8B54F5
:1049100060220C9B8B54801CF4E7129EED48C670FD
:10492000ED48067000F098FDE94886818660867142
:1049300086800670FEF7F4FCE948DE49C86100F0A5
:104940002BFFFFF747FCDB4B169A1A711A72EE82A7
:10495000688CA02101430E9881436984D34F189835
:1049600038824F205862D24811990180DD48DE49D3
:104970000818DE4940188008401E0C90D00315909E
:10498000DC4E179A2889000647D5106B1599084206
:1049900043D1D0480088C0073FD157F71EFD179A72
:1049A000C44B587A042838D112981A901AA80421B6
:1049B00048F720FBBF4B00282ED016983060306897
:1049C0000028FCD11798C0699969884201D21299D0
:1049D00099611A78012A0ED1986112981870FFF720
:1049E00001FBF649C882FDF767F9F44B002813D1A3
:1049F0001698187010E0411AC90919290CD398614A
:104A0000FFF7F0FAED4BD98A411ACA175140891ABB
:104A1000182901D3D882E6E7179A72B6AD48007913
:104A2000022802D02068806A00E000201A90A04886
:104A3000C088C00700D035E1587801280CD11698FD
:104A4000306030680028FCD1D069A44949688842A8
:104A500000D227E10020587056F779FE179AD74BFD
:104A6000002800D11EE19B48C078012856D1A88AB1
:104A7000C00700D08AE09748008800284ED19F48A0
:104A8000806A002802D02068806A1A9000F0BCFC7E
:104A9000904881781AA857F765FB0028C74B179AEA
:104AA0003CD01069400639D48A4881781AA848F762
:104AB000A1FA179AC14B002830D0987A0B900021A8
:104AC0009972586AD16B8E4B19401231D163824969
:104AD0000978022900D132307B4C0B99012900D191
:104AE00021300B908002D16B864B19400143D1637A
:104AF000D06B76490840372189054018D0631A9851
:104B00008149884200D300BEC0020A90642159F74F
:104B100053FA0A99002903D0001F03E030BFC1E017
:104B20006848FE30A54A0B9B591C884200D00346BA
:104B3000936268480179481E8141184644F72FFA6C
:104B40007248C06A80471799159A086B1042FCD0CA
:104B5000099920680842FCD020680F99884320609A
:104B600053480089452805D84621514A1181081A21
:104B70009249C8623DF7D7FBA06890490862206857
:104B80000006FCD528890F9988432881524800786F
:104B9000298A149B19432982574A116819431160C5
:104BA000698A202291436982298A139A11432982B2
:104BB00001281FD1284612304D4C2146F03140E0EB
:104BC000202000500024005062280050022600508F
:104BD000D066FC07F866FC074C76FD075877FD07A2
:104BE000B477FD07184CFD07B84BFD07D059FC07FB
:104BF000C866FC07688A102738436882688A1843A9
:104C0000688200202C4C2060698A0E9A11436982C8
:104C1000698A9143698260612848A0620D98E062C8
:104C200028880F99084328803F20FDF743F9688AB8
:104C300038431E4F68820C9860612D4C21468031AC
:104C40002846109B02880A400280288A184328823E
:104C5000688C20406884688C169C204368840D20F2
:104C6000FDF728F96889204313998843688168898A
:104C70004006FCD500206880A88A80064F4B179A12
:104C800003D50B48801E1199018030BFA88A800689
:104C900002D5074811990180174C20681499884360
:104CA0002060074C62B6189838826BE6F0300050EE
:104CB00002330050B84BFD070000F407204F101AD4
:104CC0005876FD07FFFEFFFF00020040FFFF1F00B8
:104CD000D066FC075877FD07B477FD07C866FC0768
:104CE0008554FC07C06100001005FC07030004F8B0
:104CF000FFFE0000FC00004010ED00E0787EFD07A4
:104D000000FCFFFFFF03E0FF40420F00B47FFD0700
:104D100001207047F8B515460C4601464039042974
:104D20000CD8C0467944097949008F4418022330D1
:104D30001E002078002832D008202CE007280ED052
:104D400001282ED11D4F30371D49062638463246E0
:104D500059F7D0F9002826D02846394627E0207890
:104D600002280CD20420002625E02078002816D046
:104D70000A2010E02078002811D0C4200BE07D200C
:104D800080002870000A68700020022613E0207856
:104D9000002804D014202870002001260BE00420F5
:104DA000F8BD0120F8BD0748811C0626284632467A
:104DB00059F77CF900202670F8BDC046B84BFD07B6
:104DC00090E1F1077862FC070020704701207047EE
:104DD000B0B50446FFF792F97820044DA8470020AB
:104DE000A8472046A847FFF793F9B0BD2141FC072B
:104DF000B0B50C46B0210843B7210840664DA8471E
:104E00000F202040A84720091030A847B0BDC04659
:104E100080B50E480078FF2814D001020A310C48F2
:104E200004220E2356F7C4FE00280ED0C8210181AB
:104E30000021C180142181800A2141800921017053
:104E400056F7CFFE03480021817380BDC866FC077A
:104E50000E0E0000D066FC07F0B585B0454F3888CF
:104E6000022188433880B8880007FCD50120010260
:104E7000044604900391788A084378823E483F496B
:104E8000902259F713F93E483E49482259F70EF946
:104E9000FCF7FAFE3C483D49016000940321029171
:104EA0000C0201940025082328462246384EB047BC
:104EB00000950498294622462B46354EB047049E5D
:104EC00000962846294622462B46314CA04700969C
:104ED00028463146019A2B462D4CA0470095304676
:104EE0000299039A2B46A047788820263043788081
:104EF000FFF7BEF8FFF7DEF82648FF210180AE2459
:104F0000254F2046B847D520B8478020B847A8206D
:104F1000B8473F20B847D320B8472846B847402570
:104F20002846B8478D20B8471420B8473046B847C0
:104F30000220B847A120B847C820B847DA20B847B0
:104F40001220B8478120B847CF20B847D920B847AA
:104F5000F120B847DB20B8472846B847A420B84717
:104F6000A620B847AF20B847FEF7DAF92046B84781
:104F700005B0F0BD1000005020000840D062FC07D2
:104F8000C000FC078862FC0700000840FFFF130018
:104F9000B920FC0700310050D14DFC07054988427B
:104FA00000D000BE04480188044A11408918091D38
:104FB000018070471111111112000050FC7F000098
:104FC000F8B50C4605464188C8B2142803D0FD2820
:104FD00023D1654800E06348614E324616322123F2
:104FE0005B1E05D0178818328F42F9D14220F8BDD8
:104FF00016362121491E12D032881836FF2AF9D1DF
:105000002E3E6B78AA88294608310091A91D0768B1
:105010003046B847002804D0F8BD4020F8BD4B20EA
:10502000F8BD6888F082B08A20800020F8BDC046B4
:10503000F8B50C4605464A4E2027002F0ED0B07D0D
:105040001428484902D0FD2805D14749CB6830468D
:105050002946224698477F1E1836EEE7F8BDC0461F
:10506000F8B504463E4D20263E4F002E0DD0A87DBB
:105070001428394602D0FD2804D13B498A682846C5
:1050800021469047761E1835EFE7F8BD34491631B2
:105090002122521E06D00B8818318342F9D12E39B5
:1050A0000869704700207047B0B52D491431C3B26C
:1050B0002124FF22641E06D00D8818319D42F8D1AC
:1050C0002C39C98A00E0114690430843B0BDC04660
:1050D000B0B523491631C3B22124FF22641E06D085
:1050E0000D8818319D42F8D12E39898A00E0114689
:1050F00090430843B0BDC046F8B5194C00281AD0FB
:105100002025184E184F002D28D0A07D1428314698
:1051100002D0FD2803D1394649682046884700203F
:10512000E0816060A060FF20E082207D56F708FFEC
:105130006D1E1834E7E71025302D0FD0FF20E082D8
:10514000A582002020606060A060E0602061E8B27D
:10515000214656F77EFE6D1C1834EDE7F8BDC046BB
:105160000848FD07A460FC07605FFC0710B5002439
:105170002046FDF739F981B20A4A91420FD30A4A13
:10518000914201D964240AE064214143AD208001A9
:10519000081880B27D21890058F70EFF0446E0B25E
:1051A00010BDC046B1040000A30600007047000017
:1051B000F0B58BB01F2109041B4A13688B430121F2
:1051C0004C041B191360CB04184A14689C431460E8
:1051D000184C194D194E4661194E1A4F1A4BC3619E
:1051E00006624462124B8362C562184B07604360DB
:1051F00088041168814311600020282803D001A988
:105200000854401CF9E712480068403001A92822E0
:1052100058F74CFF00F022F8FEF7E4FEC649C882BA
:10522000FCF74AFD0BB0F0BD7400004000020040E6
:105230005952FC075552FC070153FC071153FC0758
:105240000923FC07F552FC07F752FC07AD51FC0798
:105250004C76FD0700207047704700000B480C4952
:1052600001600C480C4901800C48418802220A4325
:1052700004218A4342800A4963220A80AE494A8A4D
:10528000084B1A80898A01807047C0468000004020
:105290004C0554076A280050EBE600000026005039
:1052A000062C00501028005080B51F20000401215A
:1052B0008A07536F83434804181850671068072300
:1052C000984310600A4802880A4302218A430280F8
:1052D000028808210A430280428C920504D5028B81
:1052E0000A4370218A430283FFF7B8FF80BDC0469E
:1052F00008000050704740087038C0B27047000086
:105300000248016807220A430260704730000040EB
:1053100000207047F8B50124200200906602364F45
:10532000384608380568002D65D0280603D580204A
:10533000386047F708FDA80703D50220386043F717
:10534000C8FC280707D508203860002043F781FCF7
:105350000420794948720098054204D000983860CA
:10536000204643F776FC354202D03E6047F754FDB5
:10537000680603D54020386043F766FCE80603D58D
:105380001020386042F79BF868070ED4E80706D073
:105390003C6057F7A1F847F7D6FC67484472A80667
:1053A000BED52020386000BEBAE70420386013491B
:1053B0000888A043088057F773F83DF77DF900206F
:1053C000F04948720E4800888005DFD5ED48807AA4
:1053D0000028DBD1EB4884720A480088C007D5D189
:1053E0002046FDF701F831462C318842CED9022003
:1053F000E4498872CAE7F8BD18000040083300503D
:105400002A0000500015005080B5DE48406A573829
:1054100001D8002006E081B2C90B401800B241104B
:105420003D204843C10700D01F3080B20349884265
:1054300000D8084657F75EF880BDC046E204000079
:105440007047000010B5D14CA078002803D0FDF7BC
:10545000A1F90020A07010BD10B5CC4CE079002857
:1054600003D0FDF797F90020E07110BD10B5C74CCF
:10547000E078002803D0FDF78DF90020E07010BD22
:105480007047704710B5C14C207A617A0143C80754
:1054900035D101202072BB49CA6B896BC90300D486
:1054A00000BEB9490880DD4988800A8880239A4374
:1054B0000A80134A1288D20709D10988090606D43E
:1054C000000410490860BFF34F8FBFF36F8FA07ABD
:1054D000002803D0FDF75EF90020A07264200A497D
:1054E000FDF742F9A072E07A002803D0FDF752F9E7
:1054F0000020E07201207749FDF736F9E07210BD17
:105500000002005080E100E00942FC07B0B59F4C6A
:1055100000252573FCF706FE002806D02581994852
:105520000649C16100F038F9B0BD0A206A49FDF7AB
:105530001BF92073B0BDC046B84BFD078554FC076E
:10554000F0B589B0FCF7EEFD002816D08F4E00258F
:105550003572F572B07A002802D0FDF71BF9B572EA
:10556000707A012810D100247472307B002800D199
:10557000A8E0FDF70FF93473A4E001205549FDF7C9
:10558000F3F88249C872A2E0707B002815D0307809
:1055900002282ED0012831D107A831218170352170
:1055A000417001700020022103280ED007AA525C2E
:1055B00003AB1A54491E401CF6E7307B002800D18B
:1055C00080E0FDF7E7F835737CE003AD0020E8707C
:1055D000AF20FFF7FDFBFDF7A3FE022419213F4A90
:1055E0002046FDF7C1FE042037212A46FDF7BCFE08
:1055F00060E0FDF795FE002474735BE0FFF7B6FDF5
:105600000446707003A8202101713A21C170542111
:1056100081704121417042210170C21D0746083747
:10562000642C08D303A930248C71312048710931CE
:1056300010463B461AE0831D0A2C13D30A2120464C
:105640000292019358F7B8FC302102460A4303AB9B
:105650005A710922D243424314190C430198029B08
:10566000394603E0401D30210C43114625221A70B3
:1056700004700D70AF20FFF7ABFBFDF751FE28461D
:10568000E9B203AA515C6D1C0029F8D106214143FF
:1056900048B2002804D4C8B28021081A400800E0AB
:1056A0000020C1B2032003AAFDF75EFE7078FCF76C
:1056B00021FF01243470307B002803D0FDF76AF805
:1056C000002030730A200449FDF74EF8307309B00A
:1056D000F0BDC0464155FC070D55FC074766FC0769
:1056E0000248018801229143018070470411005053
:1056F000B0B50C46204988422FD0204988423AD183
:10570000002C38D01F48C16B806BC00300D400BE92
:105710001D4901200880618835292CD1A1880229E2
:1057200029D3A179172926D8E2793B2A23D8174C07
:10573000A07162712171FFF78FFE15481549FDF7C1
:1057400013F8E071607B012815D12078002812D170
:1057500061792079FDF744FEB0BD002C0BD00848DC
:10576000022519462B4656F723FA002803D0A188B4
:10577000018056F736FAB0BD0D0C00000AFD00009E
:105780000E0C0000B84BFD0722300050D066FC071D
:10579000701700007925FC07F0B51F48018810221A
:1057A0000A4302801D49012048800B461233002223
:1057B000202A12D0FF24E4431D882540C602D6408B
:1057C00008273740ED191D809D1C083B1E88264088
:1057D000F4191C8008322B46EAE7CA8A104B1A409B
:1057E000CA82CA891A40CA81888000220A810A882E
:1057F00028231343172293430B800A8880231A43DC
:105800000A8008490A681A437F239A430A60000401
:1058100005490860F0BDC04604000050000100507A
:10582000FFFCFFFF10E400E000E100E002E008C838
:10583000121F08C1002AFAD170477047002001E00A
:1058400001C1121F002AFBD170470000034880F3FA
:10585000098800F025F8FAF75BFEC046586DFC0792
:1058600004207146084203D0EFF309800A49084733
:10587000EFF3088008490847704704207146084242
:1058800003D0EFF3098005490847EFF30880034987
:1058900008477047FEE700006D22FC07F921FC076E
:1058A0000D48062101800120C1030C4A1160BFF39D
:1058B0004F8FBFF36F8F02211160BFF34F8FBFF384
:1058C0006F8F1060BFF34F8FBFF36F8F05200007FE
:1058D0000021018062B670470034005080E100E092
:1058E00017B967984C664C01963331B19159001540
:1058F0002368EC521E6244749A1BD18BAB75B66E52
:105900009EE7BA08B9A948ABA1AC031C2E0D296CBF
:1059100020EE8D0CE1F04A0CB325DC536A68862D2D
:1059200028D5E1C1E1C54729B55765C3BA47159EDA
:105930004F43313C939242E6A876FA3BEFB4875A44
:105940008C09E0D1815442408E4FD2B377E32A775D
:1059500020EE8D0CE1F04A0CB325DC536A68862CEE
:105960004F43313C939242E6A876FA3BEFB4875915
:1059700020B967984C664C01963331B19159002596
:1059800019B967984C664C01963331B1915900169C
:1059900017B967984C664C01963331B19159001490
:1059A0002368EC521E6244749A1BD18BAB75B66DA2
:1059B00028D5E1C1E1C54729B55765C3BA47159D4B
:1059C000F3D81C4511964D1213FED63BCC316C6EAC
:1059D00000000000E059FC07104BFD070400010027
:1059E000E859FC0701000000FFFF0000E127FC0769
:1059F00002140000E136FC07010D0000493BFC07E2
:105A0000000D0000713AFC07000E0000BF37FC07D4
:105A1000010E0000E537FC07030E0000D138FC073B
:105A20000A0E00005539FC070C0E0000153AFC0761
:105A30001C0D0000753BFC07100D00006D3AFC07C3
:105A40000F0E0000F139FC072C0E0000ED39FC07A9
:105A5000120C0000E13DFC07080E0000113AFC07A3
:105A600003280028022901290004080C0105090D5A
:105A700002060A0E03070B0F00050A0F01060B0CA6
:105A80000207080D0304090E001A2137FD0000006B
:105A9000C45AFC0737000000D525FC0700000000B1
:105AA0000000000000000000FF00000000000000F7
:105AB00000000000000000000000000000000000E6
:105AC00000000000625AFC07100000000100000006
:105AD00010001000705FFC07605AFC070200000015
:105AE0000100000000000000000000001059FC0749
:105AF00010000000088002001400000000000000F8
:105B0000665AFC0702000000010000000D000D00B5
:105B10007A66FC07605AFC070200000001000000E2
:105B200000000000000000003059FC0710000000D9
:105B3000088002001400000000000000665AFC0704
:105B40000200000001000000090009005266FC0785
:105B5000605AFC0702000000010000000000000085
:105B600000000000E058FC071000000001020000E7
:105B70000100000000000000645AFC070200000061
:105B8000090002000200000000000000665AFC0745
:105B900002000000010000000B000B00FB65FC0789
:105BA000605AFC0702000000010000000000000035
:105BB00000000000F058FC07100000000100000089
:105BC0000200000000000000665AFC07020000000E
:105BD000010000000B000B000766FC07605AFC0781
:105BE00002000000010000000000000000000000B2
:105BF0000059FC0710000000010200000100000035
:105C000000000000645AFC070200000009000200C6
:105C10000200000000000000665AFC0702000000BD
:105C2000010000000C000C005C66FC07605AFC07D9
:105C30000200000001000000000000000000000061
:105C40002059FC0710000000410000001400000073
:105C500000000000645AFC07020000000900020076
:105C60000200000000000000665AFC07020000006D
:105C7000010000000C000C002966FC07605AFC07BC
:105C80000200000001000000000000000000000011
:105C90004059FC0710000000098202003200000099
:105CA00000000000645AFC07020000000900020026
:105CB0000200000000000000665AFC07020000001D
:105CC000010000000A000A006966FC07625AFC072E
:105CD000100000000100000010001000805FFC07B1
:105CE000605AFC07020000000100000000000000F4
:105CF000000000005059FC071000000008000200DE
:105D00000180000000000000665AFC07020000004D
:105D100001000000080008003E66FC07605AFC070E
:105D20000200000001000000000000000000000070
:105D30006059FC071000000008800000010000000E
:105D400000000000665AFC0702000000010000008D
:105D500011001100D865FC07625AFC071000000012
:105D60000100000010001000905FFC07605AFC0763
:105D70000200000001000000000000000000000020
:105D80009059FC0710000000010200000200000012
:105D900000000000645AFC07020000000900020035
:105DA0000200000000000000665AFC07020000002C
:105DB0000100000010001000EA65FC07605AFC07B3
:105DC00002000000010000000000000000000000D0
:105DD000A059FC07100000000100000002000000B4
:105DE00000000000665AFC070200000001000000ED
:105DF000070007003666FC07605AFC070200000037
:105E0000010000000000000000000000B059FC0785
:105E1000100000004100000002000000000000002F
:105E2000645AFC07020000000900020002000000A2
:105E300000000000665AFC0702000000010000009C
:105E400012001200C565FC07605AFC070200000042
:105E5000010000000000000000000000C059FC0725
:105E6000100000000100000002800000000000009F
:105E7000665AFC0702000000010000000C000C0044
:105E8000B865FC07605AFC07020000000100000032
:105E900000000000000000008059FC071000000016
:105EA000010200000100000000000000645AFC072D
:105EB00002000000090002000200000000000000D3
:105EC000665AFC0702000000010000000A000A00F8
:105ED0004766FC07605AFC07020000000100000052
:105EE00000000000000000007059FC0710000000D6
:105EF000088002000200000000000000665AFC0753
:105F00000200000001000000050005007466FC07A7
:105F1000185FFC0709000000130C0000DD3CFC07C3
:105F2000150C0000E53DFC07170C0000993BFC0731
:105F3000000C0000E53BFC0706FD0000F930FC0703
