:0200000407FCF7
:10000000B06CFC075D58FC077158FC078B58FC0767
:10001000A558FC07A558FC07A558FC07A558FC07E0
:10002000000000000000000000000000A558FC07D0
:100030000000000000000000A558FC07A558FC07C0
:10004000111FFC079D52FC071D27F007F122FC073A
:100050004122FC07A558FC07051FFC07A558FC0713
:10006000A558FC07A558FC078520FC078F20FC0736
:100070009920FC07A320FC07AD20FC07A558FC072E
:100080003523FC07A558FC07A558FC07A558FC0715
:10009000A558FC07A558FC07A558FC07A558FC0760
:0200000407FCF7
:100510000348854601F0DEFC004800476D41FC07BA
:10052000B06CFC0770B50E4604460022032151F75B
:1005300012FA054652F7DEFB6880284651F71CFA8E
:1005400052F7D8FB7188884200D3084601462046FE
:1005500051F7F9FA002070BD0246FF4B92009A58FD
:100560000120126900290ED0517F5E239B5C002B75
:100570000BD0052906D1517E090702D5917C0907C8
:1005800000D400207047917DEFE70229F9D00429BB
:10059000F7D00529F6D10020EDE7024630B59300EB
:1005A000ED4A0120D2581269137DD47E157F234075
:1005B000547D2C40012901D0022909D1957C527E1D
:1005C00015402A0704D41A462243D20700D100203E
:1005D000032901D0042904D1590702D4610700D4AA
:1005E000002030BDF8B514460D4610465BF795FC6B
:1005F000240A002830D0D949A2008B5801271E8B2D
:10060000BF023E431E83132826D0142824D0152869
:1006100011D088582D210A5C0123D10600290CDA5B
:100620000146A0318E7D002E07D08B753D212046DE
:1006300045F7E0FE10E00220F8BD110703D50021C8
:10064000A0308175F7E7A0308375204643F7CCFBD7
:100650002946204643F70BFC0020F8BDFFB581B0CA
:100660001546170A10465BF758FC002838D01328A7
:1006700036D0142834D0290A8C00B84E152815D04D
:10068000FF20294603305BF72FFD30592D21095CEF
:10069000C90603D5A030C07D00280ED03D026D1CD8
:1006A000A8B25BF73AFC19280CD00FE030590121B1
:1006B000A030C175022005B0F0BD3D21384645F798
:1006C00099FE0DE0A8B201215BF7F5FB305901223C
:1006D000018B5202914301833846029943F7C7FBCD
:1006E0000020E8E7F0B59D498700C9590026803110
:1006F0004A8C8B8C1B2A00D21B228C8B944200D2FA
:1007000022468A849A4200D001260B8CCD8C1B2B6A
:1007100000D21B23CC8B9C4200D22346CB84AB421D
:1007200000D001260B8ECD8D9C46FF2349339D4280
:1007300001D21C4600E02C460D8DA54200D3254673
:100740000D86654500D001264C8EA4468C8D9C42BA
:1007500000D21C464B8DA34200D21C464C866445F9
:1007600000D00126EB080B3B9BB29A4200D2134605
:100770008B86522379495843794BCA591C68803279
:100780000419D28C8034E285C9591A6880318018E6
:10079000498E803001863046F0BD10B50446714860
:1007A000008D8007800F012800D000206071002894
:1007B00007D057F71BFF01460622A01D5DF776FC08
:1007C00010BD06226849A01DF8E770B50546002453
:1007D00042F7D1F82855641C082CF9DB70BDF8B538
:1007E000022707700126044646700D4688795F4946
:1007F000C96988472A210855287900210007000F78
:10080000A07003005DF7A6FC07050709100D100B8B
:100810001000A1700AE0A67026E0032002E0A77095
:1008200004E00420A07001E001281DD0A888000A7F
:10083000801FC0B2A0721F2800D9A172284642F7BB
:100840004FF9811D2046A27A0B305DF72FFC284618
:1008500042F746F901460622201D5DF727FC28795C
:100860004006C00FE070F8BDA172F0E7F7B544682C
:100870008CB02546243503950546074624354CF7AC
:1008800043FA06464420405B5221484334490968F4
:100890004018C0304089694608840121384647F72E
:1008A00072F94CF7A6F809900E9800698088000A42
:1008B000C1002F480818298940182D495B315DF780
:1008C0007BFB01466868039D4718403528890690E0
:1008D0000090A0680099381A400140095DF76CFB50
:1008E0000A910098C019401A400140096946A06069
:1008F000098C4900C919891C49014909884204D257
:100900000699401840014009A06001460998081A5C
:10091000400118494009884215D900202B89A26856
:10092000401CD21852015209A260EA89521CEA8185
:10093000A368099A9A1A520152098A42EED801B262
:100940000D9847F7C1F9A1680998081A4201607D1E
:100950005209824221D80FE02C7EFD071879FD074D
:100960004C76FD074C7EFD07CF79FD07B47FFD0770
:1009700016020000FFFFFF032A898918490149096F
:10098000A1602A890A99511A814206D901210D983C
:1009900047F79AF9E889401CE8812989A0685DF742
:1009A0000BFBF1802889B080208A3081A888708173
:1009B0000020B081C807C00FB073A88852214843F7
:1009C0008E30308230464CF7AAF9039846632046B1
:1009D0000FB0F0BDFFB5002093B006460124FE49DC
:1009E00049680A7821460C2A0CD06A461173002205
:1009F0001192002E09D015990291169D1F2D54D9E0
:100A0000402052E000242246119413990291149D33
:100A1000F4E7029989184978012905D0172903D0EC
:100A2000182901D0192912D1631E04E003AFFF5C1D
:100A30008F4204D05B1E5BB2002BF7DA03E0002B81
:100A400001DB4A2003E003AB1955641CE4B20B0040
:100A50005DF780FB1D2610101010101010101026CE
:100A6000262626262626262626262626101010107E
:100A700010102600119B03E00BAFFF5C8F4204D0E7
:100A80005B1E5BB2002BF7DA03E0002B01DB4A2090
:100A900006E0119F0BABD9551199491CC9B21191B0
:100AA0000299895C521C89188AB2AA4201D2002894
:100AB000AFD0AA4200D04A20761CF6B2022E01D254
:100AC000002894D017B0F0BD10B50022134607E0FF
:100AD00084186478012C07D0845C521CA21892B24E
:100AE0008A42F5D3184610BD80188378FAE7F0B52E
:100AF0000646A9B01546002084006318DA789F786E
:100B000012025B783A4352BA1B041A430B5D072466
:100B10001B061A43231A9F0020AB401CDA510828F9
:100B2000EAD300218A0090190746C37880781B0217
:100B3000034378785BBA00040343B05C10AA000654
:100B40000343601A800013503846223043780078FF
:100B50001B0203433846203047785BBA3F040078D5
:100B60003B43000603430F27781A8000491C1350AB
:100B70000829D7D35CF72EF9014630465CF7A7FD6C
:100B800000282DD05CF726F9034620AA10A9684654
:100B90005DF7A8F900226846A11A8B009600C75C91
:100BA0007119CF70C75A3F0A8F70C7583F0C4F70EA
:100BB000C35820311B0EAB550F239B1A9B00C65CFC
:100BC000CE70C65A521C360A8E70C658360C4E70FD
:100BD000C3581B0E0B70082ADED3002029B0F0BDCD
:100BE0000120FBE7F7B500251746064641232A46B4
:100BF00029460A205AF7DCFF0446002E10D0012EA9
:100C000002D0022E0CD105E02022611C002041F709
:100C1000CBFE04E0621C3946019841F775FE207056
:100C200020465AF7DEFF2846FEBDF8B56B48009017
:100C300007680C46002F7BD005461C35287E00280F
:100C400076D0012802D0022872D102E02078002854
:100C500019D038896249002688423AD107204BF7DB
:100C60004BFC002835D042233E2200215D485AF734
:100C70009FFF082101702178002913D003214170C2
:100C80002178817043E055480226611C14302E768D
:100C9000202204465DF70AFA22465349304641F7BE
:100CA0003DFE45E0002146701F22531A1B194718CC
:100CB0005B78491CBB702029F7DB00213F22531AC7
:100CC00047181B1920375B78491CBB702029F6DBBD
:100CD0001DE043493889491C88421AD108204BF746
:100CE0000BFC002815D022233E2200213D485AF754
:100CF0005FFF09210170217800291BD0122141706A
:100D00000021FF224318491C9A702029FADB4DF775
:100D1000FFFE2E7640205BF7CEFB009841F702FFE6
:100D20005AF789FF00980068002801D041F7F1FDCB
:100D30000020F8BD002146701F22531A1B194718C6
:100D40005B78491CBB702029F7DBE0E770B50878B9
:100D500000250C46012809D01D2810D02B2812D0C0
:100D60004022194655F7E4FE284670BD5BF78DFA20
:100D70001948012504601D4857F76DFAF4E71C482F
:100D800041F730FDF0E71B4801680029ECD1012153
:100D90000160194841F72CFEE6E770B5104D174C7D
:100DA000223DAB422ED10F4809232A460021C01E06
:100DB0005AF7FEFE044608221149401C5DF776F9F9
:100DC00020790821084320710025257020464DF721
:100DD0009FFE284670BD00004C7EFD07287AFD0767
:100DE000252000000408000089E7F107030C00003B
:100DF000C3C3C3C35077FD07CC7DFD070DC3F00708
:100E00005CE5F107A047E5E7F1B584B00498FF4938
:100E100080000C5804980502A81D0290002C15D0E3
:100E20006068818804290CD34188861D0C380091A4
:100E300001903146049857F7E4FFF549884206D1FE
:100E400060680C385AF7F7FE0020606033E4F178F0
:100E5000B2780F02019928431743C88038464038BA
:100E60003F2819D803223946049854F751F8060050
:100E7000E6D0B07B0128E3D13420B07329460A3193
:100E80000423E448029A5AF793FEB1894180102165
:100E900001705AF7A6FED3E761683420087002217A
:100EA00000985AF777FD05463146009A5DF7FEF83F
:100EB00068782978000208436168C880E878A978D2
:100EC000000208436168062F08810BD0042F09D067
:100ED0006068052F10D00C385AF7ADFE28465AF737
:100EE000D4FDB1E760688188052913D3297981721F
:100EF0006168287988720DE0818805290AD32979EB
:100F0000817261682879887260688188062901D3B6
:100F10006979C17260685AF764FEDFE7FFB587B090
:100F20000E4609985AF7F9FF0999090A0391002812
:100F300076D08800B54905900D58B749B079096B4E
:100F40000A225043B478081841F7CAFD0190686836
:100F5000002808D0012C2DD00398FFF755FF6868B2
:100F6000002802D026E0022C5AD1B088012702289E
:100F700005D30198417800780C02044302E051F750
:100F8000B9FE044651F7B6FEA04201D20224002762
:100F900020464C3083B29E49A048099A5AF708FE71
:100FA000241D68604480002F01D0002000E0342020
:100FB0006968087068680028BAD0811D0091B288FD
:100FC0000199841C071D01928088238882189A4207
:100FD00009D8009A8018019A5DF768F83988019855
:100FE0000818388009E01A1A009BC0185DF75EF8EF
:100FF00020883880696834200870388804280FD326
:10100000009841780278080210432188001D884228
:1010100007D280B220803988814207D9388002E027
:1010200068E0884202D969683420087038882188CD
:1010300088425FD1686800990C380190039857F78F
:10104000E0FE69680978002951D1714988424ED083
:1010500003990F0201993843C8802088022101902A
:101060005AF798FC0490228800995DF71FF80498BD
:1010700000283FD0696800208880019802226B46D2
:10108000039907C36868049B821C011D801D41F7FA
:1010900001FC6968087004985AF7F7FC6868418891
:1010A000002902D00178002954D0018940393F2914
:1010B00044D8017830291ED00146544A05980C398D
:1010C0001058083041F74AFD69680398891D41F7B7
:1010D000F2FB4628686801891FD00322039853F762
:1010E00017FF00282CD0808A00282CD028E00398F5
:1010F000FFF78AFE42E04A49098D0906C90F07D069
:1011000048490C380968099A898D89B25AF786FDD1
:1011100068680C385AF78FFD12E00322039853F7E2
:10112000F7FE04000CD039460A3104233948099AE5
:101130005AF73EFDA1894180102101705AF751FDF7
:10114000002068601AE0686800220189039841F76E
:10115000ADFBF5E70189084640383F280ED8032249
:10116000039853F7D5FE002808D0808A002805D1BF
:10117000686800220189039841F798FBB07941F72C
:10118000A2FC00200BB0F0BDFFB58BB00646169850
:101190000027022821D00D980188149881427DD320
:1011A0007188084640383F2802D8159853F7F1FE59
:1011B0000C98361D0088149A80190E995CF776FFFA
:1011C0000C980188149808180C9908800D980188CB
:1011D0001498081A0D99088069E100200E9D079067
:1011E00069782C78090221433180E978AC780902CA
:1011F000214371808C46403904242D1D024603464C
:101200008E46402900D3287861460DE0AC7DFD076D
:10121000FFFF0000260E0000E078FD07010A000035
:101220004C7EFD075876FD0704291FD0052914D0F0
:10123000062918D070463F283ED8159853F7A9FEC6
:101240000006000E04D0FC48008D0006C00F31D00F
:1012500002230120F94A002712E0697800290FD003
:10126000F74A17230CE0F74A0F2309E0522802D06F
:10127000D22802D002E0142000E01520F24A1F23F9
:10128000002A7DD098427BD280001058049000281C
:10129000F7D0002008900590708800E006E1403803
:1012A000402803D32878052430716D1C701D0090F0
:1012B0000498AFE03027EDE03327EBE0522864D00C
:1012C0000CDC4B283FD004DC41286AD042285AD19C
:1012D00011E04C2820D0502855D140E0632830D070
:1012E00004DC572818D061284DD19BE06C2864D0CD
:1012F000772848D109E00098297801700098641C8B
:10130000401CA4B26D1C009081E00498401C049025
:101310000178089881427AD10098A41C401C4108A9
:101320004900881C009068782A78000210430880E1
:101330000599AD1CA4B2002969D008900020059041
:1013400065E00120FBE71022294600985CF7AEFE1D
:10135000009810341030A4B21035009057E02046A9
:1013600040301499039088420DD8402229460098B5
:101370005CF79CFE009840300090039884B200E037
:1013800079E0403543E0342741E0082229460098BF
:101390005CF78CFE009808340830A4B20835009041
:1013A00035E00622294600985CF780FE0098A41DCF
:1013B000801DA4B2AD1D009029E01498001B80B2DE
:1013C00003903088001B001D81B201200790049813
:1013D000401C04900098401C400840000090049875
:1013E000007857281CD04228CDD100980170090AF6
:1013F000417000982946801C0090039A5CF756FEC5
:1014000003980399201884B200984018009004981B
:10141000401C04900078002820D0002F19D01DE037
:101420004908E2E71498001B80B203900098039AE1
:10143000401C41084900012000910790294600986E
:101440005CF734FE03980099201884B203980818BA
:10145000DCE70D990988A14200D32FE70D98008899
:10146000A04208D304990978002904D107990029DA
:1014700003D1A04201D034270CE00D99001B088055
:101480000C9801880098801B001F08180C99002FE9
:1014900008800CD07088042809D0062807D040386E
:1014A000402804D30E984079707100E03427384604
:1014B0000FB0F0BDFFB581B01F4616460C46104672
:1014C0005AF72BFD00253F2802D02189062908D094
:1014D0003B4632462146019854F7E7F80546284630
:1014E000B4E4000701D50225F9E720780028F6D1F9
:1014F000300AA11D41F7E9F8F1E7F3B581B0019891
:10150000524C850060590F464068CE880146243110
:10151000009146F70BFF00994D4A40310091C9896F
:10152000701A80B2904214D2B14212D06059314642
:10153000406845F7B4FF60590522791C1F305CF7FD
:10154000B5FD019805210002401C80B25AF7B3FC9A
:10155000FEBD60590522791C1F305CF7A7FD00987D
:10156000808841F78FFFFEBDF8B53A4C06468500EE
:101570000F4660594821095C24290ED100691022C8
:10158000791D2E305CF792FD61592520403108729B
:1015900000221146304652F761FE60594821095C2D
:1015A0000C291FD100691022791D2E305CF77EFDB9
:1015B00060595F210069095C09072DD401462E316D
:1015C00010221E305CF796FD00280CD060590921CE
:1015D00040300172304653F75FFB0146002230462F
:1015E00052F7C7F9F8BD0421684601706A46052123
:1015F000304652F769FB684601786020014368462F
:101600000170304653F748FB0146684602780123D3
:10161000304652F7C3FAF8BD304653F73DFB012878
:101620001AD060590721403001720022114630461D
:1016300052F714FEF8BD00004C7EFD0714F3F107CD
:101640001CF3F10778F3F107B4F3F1071879FD07FC
:10165000FF7F00002C7EFD07615900200969C03121
:10166000887160590421026930461E3252F72CFB02
:10167000605901694031897F002907D01A21403023
:1016800001720021304652F773FED3E71B21403030
:101690000172304652F7C1FECCE7F8B5FC4C054666
:1016A0008600A0594822125C192AC3D14022493031
:1016B000491D5CF7FBFCA0594022F64949305CF714
:1016C00019FD002805D0F3492846203959F771FF44
:1016D000B0E70B21684601706A460521284652F79B
:1016E000F3FA684601786020014368460170284695
:1016F00053F7D2FA0146684602780123284652F78A
:101700004DFA97E7FFB581B003980C46060A00250D
:101710005AF703FC002818D0132816D0142814D028
:10172000DD48B700C0592030407BC00628D503985B
:101730005AF7F3FB15280CD0A07941F7C4F93046CD
:1017400045F7DBFD032806D015E0A07941F7BBF98A
:101750001FE002251DE0D048C0592030407B4007E3
:1017600004D53D21304641F7E6FD04E03D2200214D
:10177000304641F7EEFD3D21304644F73BFE08E0A0
:1017800020460C38C5498180C68020464DF7C0F9F7
:1017900001252846A4E6F1B58EB00E9841F7A0F9D0
:1017A00004460E98694600794006C00F0A900690DC
:1017B0000A208883628BBA49101A88427ED2E08A56
:1017C00006287BD31921C901884277D8238BFF21B2
:1017D000F5318B4272D85B1C990059184143491C62
:1017E0000A2349105A43914268DC217F00290CD119
:1017F000617F002909D1A17F002906D1E17F00295D
:1018000003D12021095DC90658D0274620377978B1
:10181000C906C90E491F0C2950D2A18A81424DD850
:10182000E17C00294AD0421E082A01D9082000E0A4
:10183000401E814242D805A844F7C4FD00283DD18E
:10184000984D0622E861214608A85CF72FFCA8788D
:101850002E46803E00287ED06079800901280AD07B
:1018600020460A994AF7ECFE00285ED03821095C30
:10187000002954D059E020464AF74FFFE86100287C
:1018800004D10BA920464AF75EFFE861F16A887A25
:10189000012801D0042810D1E86900280ED00622C2
:1018A000253010315CF726FC002807D1E869F16A81
:1018B0002030C07AC97B884200D100E0A2E0E9690B
:1018C000002932D0062208A825315CF7EFFBE86931
:1018D0002B21095C07AA253006914AF793FD0028C1
:1018E0000FD0E8692030C07A002811D168466E49CF
:1018F000808B49F739FD07AA01216B484AF782FD21
:1019000006E007AA01210BA84AF77CFD00280CD0AD
:10191000E9696846808B323149F73CFD05E04218A1
:10192000527D002A08D010296CDBF06A407A022828
:1019300006D0032804D00EE0491C1029EFDBF4E7A1
:101940006846808B0A2806D307AA20460A994AF7D8
:1019500059FD002856D0002205A920464AF7FCFD73
:1019600000284FD1F06A407A02280BD0032809D012
:1019700000236846828A08A806994AF70EFE0028C6
:1019800002D02EE00123F4E7E18A68460180218B32
:101990004180618B81807878062241096846817395
:1019A0007878C106C90E684641732146801D5CF7F0
:1019B0007DFB0E9800794006C10F68460173838A4B
:1019C0002146B26D45F7ABFC0146B065684641F76C
:1019D00051FB0020B065214668461C31808A44F7DF
:1019E00044FD47F7E2FC2F4C20342079002805D035
:1019F000002109205AF778FB0020207100210846B9
:101A00005AF759FA54E570B516460C46488853F70C
:101A10001AF90546FF2838D0012153F78AF90C2816
:101A200004D100220121284652F76CFF0023E01860
:101A30000079002803D15B1CDBB2082BF7D31448D4
:101A4000A9004058006900280AD04030C07F000734
:101A500006D4082B04D30121284652F724F814E0B9
:101A600029021E23324611480A315AF7A1F80546C9
:101A70000B202870A089688228460822211D143076
:101A80005CF714FB28465AF7ACF8002070BD000044
:101A90002C7EFD07EC7DFD071879FD070608000088
:101AA000770C0000E479FD0704E5F107160E00004D
:101AB00000207047F7B5784E0D468700F15982B087
:101AC0000E2D08D10A69002A05D0537EDB063DD5CC
:101AD000927CD2063AD540310402C97920460A30B8
:101AE000C907009000290AD00146E32000015AF7F7
:101AF000FBFAF0594030C17949084900C17105200D
:101B0000A11D48234002009A5AF752F804460620C5
:101B1000A0806249A571A8000A58A01C04999047AA
:101B200020465AF75EF8052D10D00E2D0ED05C48D9
:101B30000099006880304269E32000015AF78AFA70
:101B4000F05901224030C1791143C171C8E4F8B5A0
:101B50000C4605465049800008584030C07940077F
:101B600017D4204640F7ACFD69460870002809D01C
:101B700007280ED00121284653F7DBF860260C28F1
:101B800008D00EE02079474980000A5821462846AF
:101B900090474FE56846027801213243284652F7C4
:101BA000B1FE6A460521284652F78EF820790128B1
:101BB000EFD00B28EDD0284653F76EF80146684663
:101BC000027801233243284651F7E8FF32E538B561
:101BD0000D46044653F760F801280DD1204651F711
:101BE000DDFD69460870002807D0092804D10A469F
:101BF0000521204652F768F838BD2749A00008584B
:101C000000690028F8D10121204653F792F80C28EA
:101C100004D100220121204652F774FE21020A312C
:101C200008230A46204859F7C3FF04460A202070BB
:101C30000622691D601C5CF739FA204659F7D1FF6E
:101C400038BD70B50C460546012153F772F80146C0
:101C500070200C2911D0104AA90051580969002997
:101C60000AD064790443284653F716F80146002346
:101C70002246284651F792FF08E762790121024384
:101C8000284652F73FFE01E7094808490160094923
:101C900041607047704770472C7EFD0730F4F107B4
:101CA0005876FD076CF4F107120E00008CBFF107A7
:101CB000C00008409C61FC07F8B53E4C6088C60730
:101CC0006088F60FC005C50F60884008400060803E
:101CD0006088FF270137B843608040F771FE40F706
:101CE00075FE00220821022040F764FE002800D083
:101CF00001206188A18861884908490031436180D9
:101D000061882A02B94311436180F8BD70B501258D
:101D100029492A020A60BFF34F8FBFF36F8F27490B
:101D20000A6027490B681C0A240240231C430C60EC
:101D3000214980390A601F494C880626B443241D76
:101D40004C804C882C434C804C8838252C434C804C
:101D50004C889C434C800F280FD14888330218438D
:101D6000488048881043488048882A0210434880A9
:101D70004888012292039043488070BD10B5114CF1
:101D8000E18A114ACBB21189248BC904890E6404FB
:101D9000640E001B093141430120C002401A80B289
:101DA000584340031189000E090A090201431181B9
:101DB00010BD00002020005080E100E080E200E043
:101DC00008E400E000230050002C0050F8B50202A7
:101DD00005464123092134480A3259F7E9FE2721F3
:101DE0000170044600201F233049AA008F581E1A94
:101DF0004936BE5D2718401C7E702028F6DB002087
:101E00003F238E581F1A4937F65D27182037401C8C
:101E10007E702028F5DB5AF7DDFF0146601C5BF77A
:101E200056FC002812D10A2000906A460521284657
:101E300051F74AFF284652F72FFF009960221143BD
:101E4000CAB201460123284651F7A8FE204659F799
:101E5000C8FEF8BD70B505460446008914490C3427
:101E600088B088421AD100201F216E460A1AA25C4F
:101E70003254401C2028F9DB2022314620465CF7F2
:101E800015F900203F210A1AA25C3254401C202878
:101E9000F9DB20226946A0185CF708F9284649F7C3
:101EA00024FA08B070BD0000270D00002C7EFD074D
:101EB0002620000000280BD000BF00BF00BF00BFDD
:101EC00000BF00BF00BF00BF00BF00BF401EF1D178
:101ED000704700001CB5094800900948019005466C
:101EE0000126009C05E0E36807CC33430C3C98478F
:101EF0001034AC42F7D3FEF70FFB0000F465FC078B
:101F00003466FC0701480121018070470815005024
:101F1000F8B505252C0760898007534E22D0A08A8A
:101F2000400701D502F04AFF218C80200143218423
:101F3000FF21718004213180218830220A432280D0
:101F4000218803220A4322804849F288B388120478
:101F5000D2188A42F9D335808D49498B6180218C12
:101F600081432184424801884907FCD420883021DC
:101F7000884320802288032082432280002201237C
:101F80001A403C4F3A702A0649D06D1E328802270B
:101F900017439F4337800422728037881743378066
:101FA00022880A43228022880243228032885207F4
:101FB00001D500BFFAE722888A4322802288824323
:101FC0002280F288B7881204D2192B4FD219042A22
:101FD00011D90022F34FBA833F79002F01D0192283
:101FE0001701F04A126B921CBA4200D33A46ED4FE9
:101FF0003A631A46C3E7EB4A918B491C918389B235
:1020000014290CD300219183117A002900D01321C7
:10201000126B521E8A4200D80A46E2490A6361895D
:10202000890706D0618981436181608C01218843E1
:1020300060842089802101432181208A04218843F2
:102040002082A08A8007FCD540F799F9D548C06A5C
:102050000A4908600A480168490700D500BE0168BE
:102060004907FCD5F8BDC04600160050E903000042
:10207000083300503866FC0761F8FFFF0802004093
:102080001000004080B50A2000F086F880BD80B5C1
:102090000B2000F081F880BD80B50C2000F07CF8AA
:1020A00080BD80B50D2000F077F880BD80B50E2092
:1020B00000F072F880BD0000FEB5019302920E465A
:1020C00007460120002132465CF734F83A015CF7FC
:1020D00031F805460C46B349486D2040096D29404A
:1020E0000143089800D100BE002804D0384631468C
:1020F00000F018F803E03846314600F02FF8A949FF
:10210000486D2040096D2940014300D100BE029A6C
:102110000198024378017100081801494252FEBD3E
:102120000630005070B50E460546012400212046B9
:1021300032465BF7FFFF2A015BF7FCFFF54A536D60
:102140000B40116D0140194300D100BEB44068013D
:10215000014901430C8070BD0230005070B50E463D
:10216000054601240021204632465BF7E3FF2A01A1
:102170005BF7E0FFE74A536D0B40116D01401943D7
:1021800000D100BEB4406801024901430C8070BD1B
:10219000B04BFD0704300050F0B503460A3B012167
:1021A0000A469A4093B20B4D5C19661C5E400A4B7E
:1021B0001C8800272E4203D07F1C7608B6B2F9E7B0
:1021C0009443BAB20D46954025431D808140424854
:1021D0000160F0BDFEFF01000E14005016490A8890
:1021E000802313430B800368144A136043685360D1
:1021F00083689360C368D360036913614369536163
:1022000083699361C369D36110623648036853627E
:10221000436893628368D36243691363C3685363FB
:10222000006990632D48082202804888800600D407
:10223000FEE700BE7047C046120000500000FD07D8
:102240000248008824481021016070472C13005078
:1022500020490A89042313430B810A89022313436B
:102260000B810A88402313430B801B4A0123136010
:102270001A4A082313804A89802313434B81036839
:10228000174A13604368536083689360C368D360E0
:10229000036913614369536183699361C369D361BE
:1022A0001062104803685362436893628368D36284
:1022B00043691363C3685363006990638889800628
:1022C00000D4FEE700BE4889074A10408018001D70
:1022D000488170470800005080E200E00033005061
:1022E0005000FD0728ED00E0FC7F00007047000073
:1022F00010B50F4CA1880F200840022809D00428EF
:1023000004D00C280CD00128F4D110E003F00EF911
:10231000F0E720880221884320802088802103E084
:1023200003F004F92088012188432080E2E710BDF2
:102330000411005080B50520000701883022914328
:10234000018001880322914301800421415E00291C
:1023500006D512490A88520702D50A88D20713D136
:102360008088C0060FD50E48018809060BD50121CB
:1023700081800188802291430180E248806A0028A0
:1023800001D003F081F880BD0888022202430A8050
:10239000088801229043088080BDC046000200509A
:1023A00000010050B04BFD073848018802220A4363
:1023B00002800549491C02D202889207FAD4002102
:1023C000018140897047C0465F79FEFFFEB5054632
:1023D0001448029002AC204600F028F81420FFF7C1
:1023E00069FD07208601002D00D08036274F3888F0
:1023F0000D49084080193880FFF7D6FF0190022070
:10240000FFF758FD0025A570204600F00FF838882A
:102410000549084080193880FFF7C6FF3D800199C3
:102420004018FEBD010001013FFCFFFF10B5174938
:10243000174A0A8000224A80164A40231360BFF3DD
:102440004F8FBFF36F8F00281ED00A88124B1340A6
:102450000278D2021A430A80104A134640330C888D
:102460001C4043789B0123430B800B8813408278E8
:1024700092029A180A8009224A804A8802239A43C3
:10248000C07840001018488010BDC04600150050AC
:102490000140000080E100E0FFF70000FFFBFFFFCC
:1024A000F8B51820974E30561B490C461F340028AB
:1024B00000DA21467F2210400D1802F0C1FB3146A0
:1024C0004A31062228465BF7F1FD3046767C057CD2
:1024D000124809210422412359F76AFB0746457037
:1024E00010203870B81C0C492A465BF7DFFD21200C
:1024F0003E5438462230214632465BF7D7FD3846F7
:1025000059F76FFB0648074900F004F97D49C87484
:10251000F8BDC046B04BFD07284CFD070E0D00006E
:10252000B80B0000A124FC07FEB504467549487BA2
:10253000FF2831D00C27784308185A22805CFF28E6
:102540002AD0FD263046029240F779F90146134819
:1025500004220092062359F72BFB84710194012475
:1025600084800825458059F73CFB304640F767F9E1
:1025700001460B480723009A59F71AFB019981710C
:10258000848045805F4A517B44704F43D119029A41
:10259000895C017059F725FBFEBDC04603FD0000B4
:1025A00006FD000070B53048092104241823224696
:1025B00059F7FEFA05461B202870FD26304601F02B
:1025C000DDFC0021A982E96029616C606E80687081
:1025D000284659F706FB70BD0120704710B5ED483D
:1025E000C17A124ACCB20C236343D45CFF2C06D0D0
:1025F000D318491CC1725B68002BF3D00DE0017B3E
:102600000B4ACCB21C236343D45CFF2C08D0D318F4
:10261000491C0173DB68002BF3D09847002010BDE4
:102620000021C1720173012010BDC046C462FC07C5
:102630007C5AFC0770B50C48092104240A23224661
:1026400059F7B6FA05461B2028701426304601F0CB
:1026500095FCFF21743129816C606E80687028467A
:1026600059F7BFFA70BDC0461B0D00001FB51446D8
:1026700001220292044A0192069A00921A462346C7
:1026800000F0BEF804B010BDE059FC07F8B5C14F2A
:10269000FC6B002C33D11C48092504225226294604
:1026A000334659F785FA0446F86307202072174825
:1026B000E080A0800D2020800020A0721622E2720F
:1026C0000120607220460C3011495BF7EFFC2E2090
:1026D000442121542B200A21215420462E30482108
:1026E000C17150218171467101712D21C170472145
:1026F00081704C21417020462B30857045702046FA
:10270000F8BDC046B04BFD070D0D00004C040000A5
:10271000DC65FC07B0B5024600248E4823460A2B30
:102720000BD00568002D02D0001D5B1CF7E701608F
:102730005C1CE0B2114600F031F9E0B2B0BDC04619
:10274000F8B50446401E09281BD8A000814940184E
:10275000071F3868002816D0804DA84213D07B4848
:102760002018401C0426314659F7BEFC3D60082362
:1027700076483146324659F71BFA047059F731FA58
:10278000F8BD00BEF8BD00BEF8BDC046F0B585B0CE
:10279000039302920E4607460020041D142C0ED00F
:1027A00004A900910AA10D5838463146029A039BAC
:1027B000A84700282046F0D104A8007806E0384653
:1027C0003146029A039B02F00DFF002005B0F0BDD8
:1027D000E127FC076528FC076D26FC07D925FC07C7
:1027E0001FB514460D220292044A0192069A0092E5
:1027F0001A46234600F004F804B010BDE859FC075F
:10280000F0B585B001260C9C002C25D004960191D2
:10281000029303920B9B0A99E500EE18083E671C91
:102820000F4B7F1E012F16DB34463588854203D0BF
:102830002646083E9D42F4D16568002D049E03D1D2
:1028400000BE6568002D07D00C4601AB0ECBA84733
:102850002070002600E0049E304605B0F0BDC04662
:10286000FFFF0000B0B50C466849884231D0364AB7
:1028700090421CD0354988423CD12078401E09281E
:1028800056D88000334A1158344B994252D03248BE
:10289000814253D12C48042108230A4659F788F96C
:1028A000217801706168416059F79BF946E0207812
:1028B000411ECAB2092A39D88900264A5358264DE2
:1028C000AB423BD151188A6A0A60616800F066F831
:1028D00034E06268002A01D100BE62681C4882426E
:1028E00001D300BE6268207817494018042159F7C7
:1028F000B1FB23E0531C0121984222D30A329042BB
:102900001FD8C1B2091F8A00124B9958002915D04F
:10291000114CA14212D0114CA1420FD09A18C01EE6
:10292000002313609362C0B2884707E000BE05E051
:1029300000BE03E0101800210160816204980021AC
:1029400001700846B0BDC046030400000204000048
:10295000FDFF3F008C4CFD078754FC078554FC07A6
:10296000B0B50C460025202D04D040F704F8605582
:102970006D1CF8E70020B0BD80B502F0BDFB054935
:102980008874FFF7D1FD7D2080000349FFF7C2FE68
:1029900080BDC046B04BFD077929FC0770B50C46D9
:1029A000054619490888000618480ED5184A1268C5
:1029B00012040AD4174A1288D20706D14019801C83
:1029C0000421224659F746FB70BDEFF31083012224
:1029D00082F310880988090603D40F490E8816432C
:1029E0000E80002B02D082F3108802E0002181F3D8
:1029F0001088042108230A4659F7DAF84460057064
:102A000059F7EFF870BDC0460800005001040000FF
:102A1000300000405877FD0708330050704770B50C
:102A200014460D460646FD2002F0F6FA002800D1B5
:102A300000BE0069002C00D100BE002D00D100BEF8
:102A4000002804D00179B14204D00068F8E70020E2
:102A5000288002E041792980801D206070BD00003F
:102A600070B515460C46104659F757FA002816D18E
:102A7000FD2002F0D1FA0646002800D100BE094828
:102A8000082106232A4659F793F8A1884180A179A5
:102A90000171B18862885118018059F7A2F80020AD
:102AA00070BDC046180C0000FEB5154602910646E2
:102AB000FD2002F0B1FA0446002800D100BE103417
:102AC0002746029A3F68002F0ED03879B042F9D1DC
:102AD0007879824219D000222046394640F792F890
:102AE000384658F7D2FF029A01951546083501215C
:102AF000284658F74FFF07462946019D5BF7EFFA36
:102B00002046394640F72AF8029A7A713E71B81D7C
:102B100029465BF7CBFAFEBDF8B50C461F4D1435C0
:102B20000069009001271E4E302F0ED02879022810
:102B300008D128680088B04204D1F9B200222046AA
:102B400000F016FA14357F1CEEE702200099085EAB
:102B500056490140C20B200210400843002159F79A
:102B6000AAF9F8BDF8B50C46082900D300BEFE4D01
:102B7000143501260A4F302E0ED02879022808D1AC
:102B800028680088B84204D1F1B20022204600F043
:102B9000EFF91435761CEEE7F8BDC046B45AFC07D1
:102BA0000229000070B505460469264610363068D3
:102BB000002805D030463FF7B5FF58F766FFF6E727
:102BC00000202861204658F760FF70BD7CB5FD20CD
:102BD00002F022FA0446002800D100BEA568607BFE
:102BE0006E4601AA3146FFF71AFF3088082800D048
:102BF00000BE217B019807290CD84A1C2273435C34
:102C00006E7B012E02D1DB0702D012E09B0710D4AD
:102C10001146F0E7A068C28801896B7B2248012B2E
:102C200019D1042358F7C4FF00218170E98901807C
:102C30001AE0A068C2882B8AC1200001090208316D
:102C400089B208339BB258F7B3FF0646687B002869
:102C500017D1132016E0801C80B2062358F7A8FF76
:102C600000210171E989418058F7BBFFA06858F73E
:102C70000CFF0021A16062880C48104059F71BF935
:102C80007CBD12203070A088E9890818B0802A8A9B
:102C9000F28030460830123529465BF707FA304695
:102CA00058F79FFF7CBDC04607FD0000FF7F000076
:102CB00010B50446FD2002F0AFF9002800D100BE97
:102CC00081798C4202D28088001900E0002080B215
:102CD00010BDB0B50C460546FD2002F09DF9014639
:102CE000002800D100BE8A888020954206D38979C9
:102CF0008918A94202D9A81A20700020B0BD00008E
:102D0000F0B595B01E46029208910546282401218F
:102D100020460D9158F73EFE074621465BF7DFF946
:102D2000079504972F61089B1E20019630403F2194
:102D3000C943411803915F21C943411805917F217F
:102D4000C943401806900022874E032A00D1CFE0E5
:102D50001D460798848A11A881490180511C814829
:102D60000B91415C0C92875C781CC2B291420F912E
:102D7000084600D810460E92F9430818C1B2182030
:102D800048431830032158F705FE2988054601807D
:102D90004480142420460A97784331180A79022A7D
:102DA000069803D0042A059800D003982871A81D1E
:102DB000096910225BF77AF90E9A544337190024F7
:102DC00009972346D0180F99884246D2387910289F
:102DD00029D0042813D002283BD110932E462D1958
:102DE0003868017840786876297628461A300E21AE
:102DF0005BF775F9B868010C6985288523E01093A5
:102E00002E462D193868017842788378C078E876A4
:102E1000AB766A76297628461C300C215BF75FF981
:102E20000D9880040AE010932E462D19284618307C
:102E3000396810225BF73AF90D98C004B968084365
:102E4000000C68852985B889311988850E9A354620
:102E5000109B143718345B1CB4E76B712F4628465F
:102E60004DF711F80E9B04460028099D13D03846F3
:102E700058F70BFE089B18880C99002901D104997A
:102E800088800F990A9A891A08181880002C0B9AC2
:102E9000354E61D159E738880899088000242646C4
:102EA0000F988342E3D2002CE1D10C20285E761CDF
:102EB0000024002819D4E989002916D0287902288D
:102EC00008D12868027840780002801811AA128878
:102ED00090420AD0F0B23A88101880B21C462B6992
:102EE00000224DF7AAF82346044614355B1CD7E7A9
:102EF0003020049A9071FD200799C8820D9DCD81E4
:102F00001A484860888A50801046243088600198AA
:102F1000C003029908431080103210463FF7FAFDB3
:102F20000024139412941436302D10D030790228D6
:102F30000AD10B48FF3031680988814204D1E8B2D8
:102F4000082112AAFFF7B0FD14366D1CECE70798B4
:102F5000808A214658F7AFFFE0B215B0F0BDC046F9
:102F600003280000785AFC07B45AFC07745EFC077B
:102F7000F0B585B000920C460646082800D300BE86
:102F800004AF03AA20463946FFF749FD38880028D8
:102F900000D100BE0399002901D100BE039904A805
:102FA000078801AD28463A465BF780F80098A85597
:102FB000204639462A46FFF777FD05B0F0BDFEB53D
:102FC00014460E46FD2002F027F80546002800D1E1
:102FD00000BE00967788AE880194204658F79DFF82
:102FE000012801D102271BE0B81980B200F068FF68
:102FF000002801D100BE002002A9FFF76AFE0028C8
:103000000198009C00D000BE0127394658F753FFB5
:10301000002028730C3CAC6002986873FFF7D6FD63
:103020003846FEBDFEB514460E46FD2001F0F4FF05
:103030000546002800D100BE00967788AE8801942E
:10304000204658F76AFF012801D102271BE0B81972
:1030500080B200F035FF002801D100BE002002A997
:10306000FFF737FE00280198009C00D000BE012722
:10307000394658F720FF002028730C3CAC600298BA
:103080006873FFF7A3FD3846FEBD10B50C46FD2062
:1030900001F0C2FF002800D100BE808861880818B6
:1030A00080B2A188A31D002422464CF7C6FF20460B
:1030B00010BD000070B514460D46104658F72DFFA0
:1030C00001282ED1287801020831AA791648002A51
:1030D0000CD089B20623224658F76AFD0646A87826
:1030E000FFF7E6FD3080A879307113E0AA8889B235
:1030F000921D93B2224658F75BFD0646A878FFF76B
:10310000D7FD002131713080AA887280701DE91DC1
:103110005AF7CCFF304658F764FD0021204658F797
:10312000CAFE002070BDC046140C000070477047F6
:10313000F0B593B05821394C605C002866D10191FC
:1031400037A003A90A46274678C878C2384608300F
:103150000A4610320346F0CBF0C20A46203278C845
:1031600078C22E4C20680025401C206062686A41AD
:10317000626010950F9511901292183440222046EB
:103180005AF794FF0A2D33D00295002120292CD024
:103190002748425C9300E55847187A789200A65871
:1031A000AD19E550FE78B600A05968401025E841F9
:1031B000A051BD78AD00675938186051A7584740F5
:1031C0001420C741A750E058C019E050A35943400C
:1031D0001820C341A3516059C0186051A3584340FF
:1031E0001920C341A350091DD0E7029D6D1CC9E7FA
:1031F00000200A4C402807D003A9095822189369D7
:1032000059189161001DF5E710200199401E605486
:10321000C0B280002018806913B0F0BD4066FC0782
:10322000657870616E642031362D62797465206B2B
:10323000585AFC075821044A0023535400BA13601B
:10324000536090607047C0464066FC0770B500252B
:103250000F4EE8B2082819D2FF2131800024214600
:1032600001F072FD00F0EEFE782000F0FDFE40203F
:1032700000F0FAFE60B2002804D4002000F0F4FE52
:10328000641CF7E700F0E8FE6D1CE2E770BDC04685
:1032900000310050F8B514460D4600902778002FF5
:1032A0002FD0E9B27A292CD838466138C0B21A2812
:1032B00000D2203FF8B2202801D35B2800D320277A
:1032C000641C009801F040FD00F0BCFE782000F086
:1032D000CBFE402000F0C8FE203FF8B2052141435C
:1032E000084847180026052E04D0B85D00F0BCFE43
:1032F000761CF8E7002000F0B7FE00F0ADFEAD1D33
:10330000CCE7F8BD1860FC07F0B585B001A9202214
:103310000A713A22CA7054228A7041224A704222AB
:103320000A706428044600D36424CD1D0F46083774
:10333000642808D301A930248C71312048710931E7
:1033400028463E4618E08E1D0A2811D30A21204641
:103350005AF732FE302102460A4301AB5A71092264
:10336000D243424314190C4330462E46394603E0FB
:10337000481D30210C432946252232700470002458
:103380000C70FFF763FF2046E1B201AA515C641C98
:103390000029F8D10621414348B2002804D4C8B21C
:1033A0008021081A400800E00020C1B2032001AAD1
:1033B000FFF770FF05B0F0BD7047704770B5054668
:1033C0000469261D3068002805D030463FF7AAFB67
:1033D00058F75BFBF6E700202861204658F755FBBD
:1033E00070BD10B589B2431C002009280AD00C46D4
:1033F000C440E40704D09CB2641C944203D09B1CDC
:10340000401CF2E70920C0B210BD0000F0B58BB03F
:103410001E4607920F4604461098069000880890B2
:10342000012200210B46092B13D006258D4009915E
:1034300021463446089EDE403846012737407E420A
:1034400007462E40324326460C460999891C5B1CD0
:10345000E9E70A92802030439E210140A08A03912F
:103460001D4902910190002000901C490AAA1323D3
:1034700038464DF7C0F80546002829D1089720277F
:1034800001210591384658F785FA099606463946CE
:103490005AF725FE266130461E3011496160A06052
:1034A0000898008830830598E0811420E082A08A83
:1034B00070800998C00307990843308006980088F7
:1034C0007083301D3FF726FBA08A002158F7F3FCDC
:1034D00028460BB0F0BDC046045FFC070A18000088
:1034E000E85FFC07FEB5019302920C46142001F040
:1034F00093FD0546002800D100BE2778082F13D879
:10350000698B288B3A4600F0F7F800280ED06078D7
:103510008D26802838D8082F0DD0072F08D0062FE9
:103520000BD1082809D02FE081262DE082262BE040
:10353000062802D228E0072826D12E1D35462D6800
:10354000002D0BD02979B942F9D100223046294605
:103550003FF758FB284658F798FA60780830012161
:1035600058F718FA0546617808315AF7B8FD2078FF
:10357000287162786A71A81DA11C5AF797FD304620
:1035800029463FF7EBFA0026064802230199029AE2
:1035900058F70EFB21780170467058F722FB002087
:1035A000FEBDC04601140000F8B514460D46104695
:1035B00058F7B3FC01283FD1142001F02DFD074638
:1035C000002803D0798B388B3E7F06E000BE1A209E
:1035D0000188182000881C221678324600F08CF8EA
:1035E0000090787F010208312A781448964212D15F
:1035F0006A7889B2931D224658F7DAFA0646002007
:1036000030710098308068787080701D6A78A91CCD
:103610005AF74CFD09E089B20623224658F7C8FA4A
:1036200006468020307100983080304658F7D9FA2D
:103630000021204658F73FFC0020F8BD140C000084
:10364000F8B51F460C46087808281CD80725002125
:1036500000911AA6784400794000874419040C04AC
:1036600006060F0912001A4E12E00D25174E0FE044
:10367000062514A60CE00A2516A609E008251AA6B8
:1036800006E017A604E000BE0026012000903546A3
:10369000AB1C1848394658F78BFA07462078387023
:1036A0007D700098002804D1B81C31462A465AF78C
:1036B000FDFC384658F795FA0020F8BD52656E6556
:1036C00073617300FFEEDDCCBBAA00007765FC07D9
:1036D0008565FC07312E302E302E302D4C450000F4
:1036E00001D2008005000100123456FFFE9ABCDEB4
:1036F0000000000003140000B0B58BB2411C002094
:103700000446092C09D01D46E540ED0702D0A2422F
:1037100002D0891C641CF4E7481C80B2B0BD10B50F
:103720000C78012C03D0092C09D04C7802E04C789D
:10373000432C02D0002C00D000BE01F053FF00202B
:1037400010BD0000FEB51D4610460C4658F7E5FBBF
:1037500002280ED102942E0A00D000BE0C20704325
:103760004A490C1827465837BE70FF2E03D15A34E9
:103770003FE000BE44E001200190F870042000907A
:10378000032158F798FB029908883880487A3871E5
:10379000781D0F460A3106225AF788FC0A20054395
:1037A000F520854317482C232946009A58F700FA3C
:1037B00001990902018558F714FA5A20205C5A34FD
:1037C000FF2816D0314D6E73E87CFEF7B9FF78887C
:1037D000082807D3102805D8B888002802D1F8880F
:1037E0007D2808D07D20C0000749FEF793FFA8730D
:1037F00001E001F0A3FE2078FF2801D101F09EFE38
:103800000020FEBD020E0000694DFC0710B51C46ED
:10381000104658F782FB032834D1200A0C2141437B
:103820001A4C60185A21FF224252A07B002803D074
:10383000FEF786FF0020A073E07B002803D0FEF790
:103840007FFF0020E073207D002803D0FEF778FF83
:1038500000202075607D002803D0FEF771FF002056
:1038600060750020A075606D206DC00300D400BE9F
:10387000074801210180FFF7E9FC01F0E1F901F0BF
:103880005DFE00E000BE002010BDC046B04BFD074D
:1038900024300050F0B589B01D461446087802283F
:1038A0002ED0012820D000283CD101AE2021304666
:1038B0005AF715FC3E203D490F5C3F3130463A46F1
:1038C0005AF7F4FB3B460A3318482946224658F774
:1038D0006FF90446478000202070201D31463A468B
:1038E0005AF7E4FB20461BE0602030490E5A0F488F
:1038F0000A232946224658F75BF9468001210EE04B
:103900000A480A232946224658F752F97D210181A7
:103910000021C18010218180082141800221017095
:1039200058F75FF9002009B0F0BDC0460B0E00004B
:103930000020704710B51946E1200001062358F712
:1039400037F90024848044800121017058F749F937
:10395000204610BD0020704770B51D460C46087803
:1039600001280BD000280FD162883E210F48425415
:103970003F30211DD2B25AF799FB03E060886021E5
:103980000A4A5052002600E048260A200543F52046
:103990008543074804220223294658F709F946704F
:1039A0002178017058F71DF9002070BD284CFD07E3
:1039B0000D0E00000020704770B50C78641E122CAC
:1039C0001ED8C0467C4424796400A7440B19101902
:1039D00019191919191919091509091909090900D4
:1039E000002070BD487800280DD000BEF8E7487868
:1039F000002838D000BEF3E748784428F0D13AE0F8
:103A000001F0F0FDECE71D4D2C68002C25D11C4881
:103A1000092104222C2358F7CBF8044628601720EC
:103A20002084184820800026668020460A30112114
:103A30005AF755FB6684E683A6832020E0767A2138
:103A40001148415AFB2900D3FB21E1847C21405AD3
:103A50000E49884200D308462085204658F7C1F811
:103A600000202860BCE70420012158F724FAFEF763
:103A7000B5FD0028B4D001F061FDB1E7084BFD07AA
:103A8000040D0000030A00006479FD0748080000E7
:103A900010B5104658F741FA002801D000BE09E0E1
:103AA0000548092104220124234658F781F80470AF
:103AB00058F797F8002010BD020D000080B51046A1
:103AC00058F72BFA012809D1FEF788FD002805D008
:103AD0000420022158F7EFF901F030FD002080BDED
:103AE000F8B51D4616460C46104658F716FA00283B
:103AF00017D1FD2001F090FA0746002800D100BE42
:103B00000948042132460B4658F752F8290A017039
:103B1000E90A00D000BEB9882288511A418058F7BE
:103B200060F80020F8BDC0460DFD000080B50878A3
:103B3000FE210140122901D1FFF748F8002080BD85
:103B4000FEB51C4615460E46104658F7E6F9012804
:103B50000DD00027002860D102960194142001F0B6
:103B60005BFA0646002804D0718B308B06E00227F2
:103B700053E000BE1A20018818200088029A12889B
:103B8000FFF72FFC044608281ED80097371D3F6812
:103B9000002F27D03879A042F9D17879831D614868
:103BA00001992A4658F704F80446029800882080B4
:103BB0000023237178796080601D7A79B91D1F46D2
:103BC0005AF774FA20460AE05648062301992A4615
:103BD00057F7EEFF0299098801808021017158F79B
:103BE00000F81AE03477019B180A70773088B14AE0
:103BF000024000B2C10B1940FF2081431143084825
:103C000001262A46334657F7D3FF047057F7E9FFDA
:103C10002846314658F74FF9009F3846FEBDC0464A
:103C200002140000F0B587B01D4614460E4610463B
:103C300058F773F9002801D002206CE0FD2001F054
:103C4000EBF90290002800D100BE04A900270F70F4
:103C50003088FFF73EF8024603A80780002A16D0F6
:103C6000BB1D304829461546224657F7A1FF04469A
:103C70003088208067802571002D04D1601D03A944
:103C80003A465AF713FA204657F7ABFF42E02F0A9D
:103C900004A803781420584385490818017902299B
:103CA0001FD1006800881D4988421AD102920197ED
:103CB000082F00D300BE06AF05AA18463946FEF706
:103CC000AEFE3888002800D100BE05980028029A70
:103CD000019901D100BE0598405C03A90880022724
:103CE000BEE700200299085E72490140C00B054002
:103CF000FF2085430D430A481E46042329462246D9
:103D000057F756FF4680077057F76BFF0121204693
:103D100058F7D1F8002007B0F0BDC04602290000D6
:103D200004FD0000140C000000207047F0B595B0B1
:103D3000099317460C46FD2001F06EF90790002804
:103D400000D100BE0CA900250D702088FEF7C1FF30
:103D500006466088002800D000BE002E00D08DE00E
:103D60000998000A05900CA8017814200491484392
:103D70004F4908180179022948D16B49FF31006881
:103D80000088884242D1029700200B9008900A9048
:103D90000394268830464CF7C7F801460690888879
:103DA000B4B2844219D3C888844216D80DAD2046D7
:103DB00029464CF7D8F8089B00930FA910AF284666
:103DC0003A464CF7C3F93888761E57498842069917
:103DD000E5D1601C81B2814201D000BE089880B25A
:103DE00010A900260AAB32464CF743FB039CA0887F
:103DF000022851D1E28810A8407880074FD40220D1
:103E0000C0430242029F4DD0812612E011951095C9
:103E1000208810A94CF7A7F808201099085E002800
:103E200006D46288A1882088A31D4CF706F90546B0
:103E30002E46002E22D100260798805F1D4A0240A0
:103E4000C00B09990140FF2081431143A088801DC8
:103E500083B219483A4657F7ABFE25460446801D03
:103E6000AA88A91D5AF722F904986080A8880599A4
:103E70002170A08020462C4657F7B3FE0F4804233C
:103E800009993A4657F794FE86702188018057F7C2
:103E9000A8FE002015B0F0BD0D26029FC9E7012A3B
:103EA000029FB1D805980499FFF762F8C1E7C046B0
:103EB000B45AFC07FF7F00000AFD0000160C00004A
:103EC000F0B58BB004464CF72FF80246029091886B
:103ED000A0B20026884223D3D188884220D80394F8
:103EE00004AF39464CF73FF80026009606AD07AC04
:103EF00038462946224633464CF728F90A4B28789B
:103F000021881A46FF32914201D1022807D09942F6
:103F1000039C01D1022803D0641C029AD7E7039EB8
:103F2000B0B20BB0F0BDC0460328000070B5114917
:103F30000A88088801242043088008881E239843A3
:103F40000880A5020C4845800525058005886D0779
:103F5000FCD480880D8814262E430A25AE430E809B
:103F60000D88A5430D801A400C889C43A2180A8036
:103F700070BDC046220000500016005010B515213B
:103F8000CB4369499A1C09D0CB187A241B5D834224
:103F90001346F7D188187830407810BD042010BD42
:103FA00081B0002000900098042803DA00BF009838
:103FB000401CF7E701B07047E0B5002000900121F8
:103FC0000A0201460346FEF777F8FFF7E9FF8CBDCA
:103FD000E0B50020009003210A0201460346FEF7E7
:103FE0006BF85148416D006DC00700D100BE144808
:103FF00001210180FFF7D4FF8CBDC046E0B5002051
:10400000009001210A020346FEF756F8FFF7C8FFA9
:104010008CBD0000E0B50020009003210A020121C0
:104020000346FEF749F84048416D006D800700D413
:1040300000BE034802210180FFF7B2FF8CBDC046DD
:104040000430005080B5FFF7D9FFFFF7B5FFFFF749
:10405000E1FFFFF7BDFF80BD80B5FFF7DBFFFFF796
:10406000ABFFFFF7CBFF80BDB0B504460025082DA0
:104070000ED260B2002802D4FFF7CCFF01E0FFF7B8
:10408000BDFFFFF799FFFFF7A3FF6D1C6400EEE78C
:10409000FFF7B4FFFFF790FFFFF79AFFB0BD0000F6
:1040A0002148416D016DC90300D400BE02490122BF
:1040B0000A800021C173704724300050F8B5264FA4
:1040C000BC68204644F7EBFE174EB16B0022B2638A
:1040D0000D181649284659F76FFF78611449414376
:1040E000491919200001002902D0411AE13189B291
:1040F0003961396808220A433A60716B002911D08E
:10410000A1420FD20B4A1278002A0BD13279002A31
:1041100000D11046611A326B8918891D814200D383
:1041200001463163F8BDC046B04BFD077102000087
:104130008FFDFFFF3866FC0780B50648002101604F
:1041400001F026F90120C00703490A6882430A608A
:1041500080BDC046AC76FD073000004080B544F716
:104160009EFE80BD80B544F78BFE80BD00B59DB03E
:104170006749C8201A9008820020488265490822B1
:1041800013920A80644C1C901C98032811DC0020B8
:104190001B901B991C98092909DC282141436018B0
:1041A0001B998900002242501B98401CF0E7401CDC
:1041B000E9E7E5680020C1430122002D199200D0F3
:1041C0000A46D600554F3B6D33437E6D3B651892D2
:1041D000520F002D0F4600D12F46FB009A18324394
:1041E0004E4B5A65A66A002E199F00D00F463A0C16
:1041F000002E0D4600D135462B049A18474D6B6DA5
:1042000013432A6D6B653B0413432B652668002E10
:104210000A4600D132461797404B5B6D13433F4A25
:10422000126D6B653D4B002E199E00D00E46324339
:104230001A656268002A199F00D00F46FD0F002AF8
:104240000B4600D113465A005219344D6B6D13437F
:104250002A6D6B657B0013432B652B46626B002A2E
:1042600000D01991199D6D0B002A00D11146C90487
:1042700049195A6D0A43196D5A65199DEA040A4392
:104280001A651899E1601799A162C0C4E562586582
:10429000186523A5083C1C901C98032844DC0020CA
:1042A0001B901B98092830DC1B981C994900695AFF
:1042B000C140C80729D028201C99414361181B9A86
:1042C00092008958491C00D100BE1C9941436118D5
:1042D0001B9A92008958002914D01C994843201831
:1042E0001B9989004058C1171B9A59F723FF1C9A44
:1042F000120159F71FFF094B5A6D0A43196D5A6590
:10430000014319651B98401CCAE71C98401CC2E772
:10431000F030005002330050104BFD07B04BFD074A
:10432000FF003F00FF03FF01DB480088C046C04696
:10433000DA4A012018905070D94C20880721199131
:10434000884320800F20030205263507688DFF2152
:104350000E91D2310B912F310A9108420CD01846A0
:10436000FF302188014070030818208020884021F8
:1043700001433820814321806C88002C12931496CD
:1043800000D1C84C5483688C189E304368840D203B
:10439000FDF790FD688930430221159188436881BB
:1043A00068894006FCD56C807D20C0001790FDF721
:1043B00081FD688903210991884368816889000625
:1043C000FCD5688C189988436884B74A0024146027
:1043D000688A402318436882688A109398436882E9
:1043E00016945461B148906208040F90D0622888F6
:1043F00080211191084328803F20FDF75BFD28882C
:10440000000600D400BEA84800884007A34A00D098
:1044100000BEA54C1898206010464430A449098875
:104420008180A44800685064A348018811844088B2
:10443000169E2660D083688A109908436882688A2D
:104440008843688266619948A0620F98E062288874
:10445000119F384328803F200D90FDF72BFD2068E9
:104460001999884320602888B84328809348944944
:1044700059F735FE149C6102924859F730FEFDF75A
:104480000AFC914891493022089259F70FFE904852
:1044900006709048904901609048914901609149A7
:1044A0009148086091480A2101709148067091482E
:1044B00032210170904804609048189E0660904830
:1044C000046090480621079101608F4819990160A6
:1044D0008E48139C046030020C90801D8C4908604B
:1044E0008C4908608C487549016000F067FC288998
:1044F00008998843288128893843288128893043AE
:10450000159988432881288920432881288C38439D
:104510002884688AA04368822889109908432881E2
:10452000288A042188432882A88A8007FCD5288C01
:104530001899084328840803698DC9000140288C14
:10454000764A024050182884288C282101435020A4
:10455000089081432984288C079908432884688A15
:10456000139908436882288C1199884328842889E4
:10457000109988432881688D0A990842484801D0DB
:1045800014994180189A91070868654B1840199151
:1045900008600D984002634B196881435003091865
:1045A00019606149491C1A680A431A605F4F3988CB
:1045B0000A91892129811880288811990843288027
:1045C00028880999884328803888159908433880B5
:1045D00000F008FE3EF7F4F93EF7F8F96420FDF725
:1045E00069FC53490888099048880790514A908887
:1045F0000690D0880590C8880490488B03904E4858
:104600000088029010880190169C0C804C804B48CA
:1046100090800B98D080CC80C3201080484913989C
:1046200008800C987C30FDF745FC4649464A4748CF
:104630000B90012C00D98BE014944A800E9888804E
:1046400018980880CB88DB07FCD100242346274636
:10465000BFB2179E1536B74219D2D65DD0198078F1
:104660007040189E3040DEB2B04004435B1CD8B2AC
:10467000082807D1169B98B2344E34545B1C16930D
:104680000024234629481A9E06821037E0E7149C2E
:10469000641C264FCDE7C04642000050B04BFD07DA
:1046A000820000505A0400000000F407204F101A46
:1046B000ACFFF807A8FFF80710FEF807005CFD073D
:1046C000781600000076FD07FC76FD0758ECF10730
:1046D000F976FD075076FD074061FC075476FD072B
:1046E0009863FC075876FD07DC62FC07B476FD078B
:1046F000B576FD07DD76FD075C76FD076076FD0784
:104700006476FD076876FD076C76FD077076FD0719
:104710004876FD074476FD074C76FD07FFEF000065
:10472000FFFEFFFF00020040FFFF1F00F0300050BF
:1047300000240050622800500226005080800000B3
:1047400020200050003500501001FC07A066FC0737
:104750000A98388000211491E4480180E4480999BE
:10476000018007994180E349069A8A80059ACA80A8
:10477000049AC280039A4283DF48029A0280019819
:1047800008802888119988432880DC4908310B98D3
:104790005CC85CC15821149CD848445404604460EF
:1047A000D74800683DF786FD3E20D64B1399195433
:1047B000199908680C9A1043086044200D995854C0
:1047C000D1480471D1490C70C47018463E304484FD
:1047D00018463F304821C171089A827152214171B7
:1047E00002712D21C170472181704C214170F94E19
:1047F000B465F465346626460424F349204657F729
:1048000028FBF44858300E998170169420463146A2
:1048100057F751FB4A20F949EE4C2152F848E06421
:10482000E681F84916221792F14859F73FFC17988C
:104830002082F548A0626661264600F0B5FF00F0D0
:104840005BFCA0740C98F430F049FDF763FFE54879
:10485000ED30002808D031187922169B8B5478222D
:104860000E9B8B54801CF4E7149EE248C670E2480D
:104870000670FFF761FCFA4B189A1A711A72EE82F1
:10488000688CA02101431098814369841A9838826A
:104890004F201863CE4813990180DD48DD49081880
:1048A000DD4940188008401E0E90D0031790DC4E62
:1048B000DD4C199A2889000647D5106B17990842D4
:1048C00043D1CC480088C0073FD157F786FD199ADD
:1048D000E34B587A042838D114981C901CA8042162
:1048E00048F788FBDE4B00282ED0189830603068DF
:1048F0000028FCD11998C069596A884201D21499DC
:1049000059621A78012A0ED1586214981870FFF76C
:104910000DFBD3494884FDF7CFF9FE4B002813D196
:104920001898187010E0411AC90919290CD3586257
:10493000FFF7FCFAF74B598C411ACA175140891AF4
:10494000182901D35884E6E7199A72B6A948007964
:10495000022803D0A2480068806A00E000201C9072
:104960009B48C088C00700D02AE1587801280BD1A5
:104970001898306030680028FCD1D06921688842DE
:1049800000D21DE10020587056F7E1FE199AE14B64
:10499000002800D114E19748C078012853D1A88A93
:1049A000C00700D088E09348008800284BD19F487A
:1049B000806A002803D08A480068806A1C9000F052
:1049C000E7FC8C4881781CA857F7CCFB0028F94BF2
:1049D000199A38D01069400635D4864881781CA8C9
:1049E00048F708FB199AF34B00282CD0987A00213D
:1049F00099721C6BD16B8E4B19401231D1637E4979
:104A00000978022900D13234012800D12134A002D2
:104A1000D16B884B19400143D163D06B7349084077
:104A2000372189054018D0631C988349884200D3F8
:104A300000BEC0020D90642159F7BEFA0D990029FD
:104A400003D0001F03E030BFBAE06648FE30D94A09
:104A5000611C884200D00446546366480179481EB0
:104A60008141204644F79BFA7448C06A80471999EF
:104A7000179A086B1042FCD00C995B4A10680842E8
:104A8000FCD010681199884310605148008945286E
:104A900005D846214E4A1181081AC64988633DF758
:104AA00042FC514A9068C349C86210680006FCD5B0
:104AB00028891199884328814F480078298A169BB4
:104AC00019432982574A116819431160698A2022C3
:104AD00091436982298A159A11432982012817D1A5
:104AE000284612304D4C2146F03138E0202000504D
:104AF0000024005062280050022600504066FC0747
:104B00004C76FD07284CFD075877FD07B477FD0765
:104B1000688A102738436882688A184368820020B0
:104B20002D4C2060698A109A11436982698A9143E9
:104B3000698260612948A0620F98E0622888119913
:104B4000084328803F20FDF7B5F9688A38431F4F96
:104B500068820E986061314C214680312846129B54
:104B600002880A400280288A18432882688C2040E4
:104B70006884688C189C204368840D20FDF79AF99E
:104B80006889204315998843688168894006FCD567
:104B900000206880A88A8006864B199A03D50C48A5
:104BA000801E1399018030BFA88A800602D508486C
:104BB000139901801B4C20681699884320601A4C79
:104BC00062B61A98388275E6C059FC07F03000507A
:104BD00002330050B04BFD070000F407204F101ABD
:104BE0005876FD07FFFEFFFF00020040FFFF1F0099
:104BF000284CFD075877FD07B477FD0705FF000037
:104C0000CDAB0000DC65FC078954FC077929FC0763
:104C1000286100001005FC07030004F8FFFE0000F7
:104C2000FC00004010ED00E03466FC07787EFD07D4
:104C300000FCFFFFFF03E0FF40420F00B47FFD07D1
:104C40005C4801464A318A88521C0A71130A4B712A
:104C500091B2044A914202D14E2100224252704741
:104C6000B04BFD07FFFF000001207047F8B5154667
:104C70000C460146403904290CD8C04679440979CC
:104C800049008F44180223301E002078002832D0BB
:104C900008202CE007280ED001282ED1454F44379C
:104CA0001D4906263846324659F724FA002826D0F0
:104CB0002846394627E0207802280CD20420002616
:104CC00025E02078002816D00A2010E0207800285F
:104CD00011D0C4200BE07D2080002870000A68708D
:104CE0000020022613E02078002804D01420287029
:104CF000002001260BE00420F8BD0120F8BD074884
:104D0000811C06262846324659F7D0F90020267025
:104D1000F8BDC046B04BFD0790E1F107DC61FC0730
:104D20000020704701207047B0B50446FFF78AF9AC
:104D30007820044DA8470020A8472046A847FFF741
:104D40008BF9B0BD6940FC07B0B50C46B0210843F3
:104D5000B72108406D4DA8470F202040A8472009E3
:104D60001030A847B0BDC046B0B5124C617B0029D9
:104D700000D000BE88002518286C4035002813D1CB
:104D800009020A310C4804220E2356F711FF0921AB
:104D900001702860102181800021818141817D2264
:104DA0000281C1800821418056F71BFF0020A073BB
:104DB0002860B0BDB04BFD070E0E0000F0B585B009
:104DC000494F3888022188433880B8880007FCD5CD
:104DD00001200102044604900391788A08437882F6
:104DE00042484349902259F761F9424842494822D2
:104DF00059F75CF9FCF748FF4048414901600094CD
:104E0000032102910D0201950024082320462A4621
:104E10003C4EB0470094049821462A462346394E1A
:104E2000B047049E0096204621462A462346354D2B
:104E3000A847009620463146019A2346314DA8479F
:104E4000009430460299039A2346A8477888202682
:104E500030437880FFF7B0F8FFF7D0F82A48FF21F9
:104E60000180AE20294FB847D520B8478020B847E9
:104E7000A820B8473F20B847D320B8472046B847B6
:104E800040252846B8478D20B8471420B8473046FB
:104E9000B84702242046B847A120B847C820B847E1
:104EA000DA20B8471220B8478120B847CF20B8474A
:104EB000D920B847F120B847DB20B8472846B84783
:104EC000A420B847A620B847AF20B847FEF7BEF9E0
:104ED00022210FA22046FEF7DDF9042025210FA292
:104EE000FEF7D8F905B0F0BD1000005020000840D2
:104EF0003462FC07C000FC07EC61FC0700000840BE
:104F0000FFFF1300B920FC0700310050294DFC07BA
:104F1000534D4152542052494E470000424C4520C7
:104F200052454144590000000549884200D000BE66
:104F300004480188044A11408918091D01807047FE
:104F40001111111112000050FC7F0000F8B50C4641
:104F500005464188C8B2142803D0FD2823D16548EE
:104F600000E06348614E3246163221235B1E05D0B5
:104F7000178818328F42F9D14220F8BD1636212108
:104F8000491E12D032881836FF2AF9D12E3E6B788E
:104F9000AA88294608310091A91D07683046B847FC
:104FA000002804D0F8BD4020F8BD4B20F8BD68882B
:104FB000F082B08A20800020F8BDC046F8B50C46CB
:104FC00005464A4E2027002F0ED0B07D14284849B0
:104FD00002D0FD2805D14749CB68304629462246F4
:104FE00098477F1E1836EEE7F8BDC046F8B5044670
:104FF0003E4D20263E4F002E0DD0A87D1428394668
:1050000002D0FD2804D13B498A68284621469047B2
:10501000761E1835EFE7F8BD344916312122521EAD
:1050200006D00B8818318342F9D12E3908697047B0
:1050300000207047B0B52D491431C3B22124FF229E
:10504000641E06D00D8818319D42F8D12C39C98ACA
:1050500000E0114690430843B0BDC046B0B52349B7
:105060001631C3B22124FF22641E06D00D881831E8
:105070009D42F8D12E39898A00E0114690430843B9
:10508000B0BDC046F8B5194C00281AD02025184EDE
:10509000184F002D28D0A07D1428314602D0FD28BD
:1050A00003D139464968204688470020E081606086
:1050B000A060FF20E082207D56F742FF6D1E18346D
:1050C000E7E71025302D0FD0FF20E082A5820020D9
:1050D00020606060A060E0602061E8B2214656F781
:1050E000B8FE6D1C1834EDE7F8BDC0460848FD0752
:1050F0000860FC07C45EFC0710B500242046FDF7DD
:1051000065F90A4988420FD30949884201D96424C4
:105110000AE064214143AD208001081880B27D215E
:10512000890058F749FF0446E0B210BDB104000001
:10513000A306000070470000F0B58BB01F210904E2
:105140001B4A13688B4301214C041B191360CB04C9
:10515000184A14689C431460184C194D194E466146
:10516000194E1A4F1A4BC36106624462124B836296
:10517000C562184B07604360880411688143116061
:105180000020282803D001A90854401CF9E7124840
:105190000068403001A9282258F788FF00F022F863
:1051A000FEF7C4FEE0494884FCF786FD0BB0F0BD75
:1051B0007400004000020040E151FC07DD51FC0793
:1051C0008952FC079952FC07ED22FC077D52FC072F
:1051D0007F52FC073551FC074C76FD0700207047D5
:1051E000704700000B480C4901600C480C490180D5
:1051F0000C48418802220A4304218A4342800A491A
:1052000063220A80F549CA8B084B1A80098C0180F9
:105210007047C046800000404C0554076A28005083
:10522000EBE6000000260050062C0050102800502D
:1052300080B51F20000401218A07536F834348046F
:105240001818506710680723984310600A480288AE
:105250000A4302218A430280028808210A4302800D
:10526000428C920504D5028B0A4370218A43028343
:10527000FFF7B8FF80BDC0460800005070474008E7
:105280007038C0B2704700000248016807220A4324
:10529000026070473000004000207047F8B50124DC
:1052A000200200906602364F384608380568002D07
:1052B00065D0280603D58020386047F744FDA8074D
:1052C00003D50220386043F704FD280707D50820DE
:1052D0003860002043F7BDFC0420C04948720098A4
:1052E000054204D000983860204643F7B2FC3542AE
:1052F00002D03E6047F790FD680603D54020386035
:1053000043F7A2FCE80603D51020386042F7D7F82F
:1053100068070ED4E80706D03C6057F7DDF847F77A
:1053200012FDAE484472A806BED52020386000BEEB
:10533000BAE70420386013490888A043088057F76B
:10534000AFF83DF7B9F90020A44948720E4800882B
:105350008005DFD5A148807A0028DBD19F48847280
:105360000A480088C007D5D12046FDF72FF83146FE
:105370002C318842CED9022098498872CAE7F8BDFC
:1053800018000040083300502A000050001500505B
:1053900080B59248006B573801D8002006E081B2F2
:1053A000C90B401800B241103D204843C10700D04E
:1053B0001F3080B20349884200D8084657F79AF850
:1053C00080BDC046E204000070470000F0B585B023
:1053D000274DE87D401CE875C7B2874204D003A87A
:1053E0003021017001271CE000263804F4B20DD0F2
:1053F000B8B20A2158F7E0FDF6214143C91930221D
:105400000A4301A90A55761C0746EEE70020002C46
:1054100006DD641E01A9615C03AA1154401CF6E775
:10542000C7B203AC0026E655FDF710FF0220192194
:1054300010A2FDF72FFF06207843C0B2802802D2C9
:105440008021081A4608F1B204202246FDF722FF07
:10545000687D002801D0FDF773F94B208000CE490C
:10546000FDF758F90021A9756875297505B0F0BDDB
:10547000B04BFD0757616C6B696E67205354455004
:10548000530000007047704710B5BE4C606D206D32
:10549000C00300D400BEBE4801210180E07B00288B
:1054A00001D0FDF74DF96420BA49FDF733F9E073F7
:1054B000A17D481CA07500291FD0C0B2022821D3AD
:1054C000207D002803D0FDF73BF900202075002047
:1054D000A075FFF711FEA074FDF716FFA07CFDF785
:1054E00023F8607D002801D0FDF72AF94B208000C9
:1054F000A949FDF70FF9607504E023200449FDF781
:1055000009F920750348A06200F04EF910BDC046AD
:10551000CD53FC078954FC0780B5FDF797FE9948E9
:105520000021417580BDC046B04BFD07024801888F
:10553000012291430180704704110050F8B52548BD
:105540002549FDF7E7F88F4EF074FDF79FF8044604
:10555000C57A162D0AD860190C3031464A31062218
:1055600058F7A4FDAA1DE272357617E02B20275CC0
:10557000192F11D820462B300090E0192C303146DD
:105580004A31062258F792FDB81D00990870802014
:10559000384330762A4601E000BEE27A3274214672
:1055A0000C310F4D284658F781FD2B20225C727478
:1055B0001F352C342846214658F778FDFDF766F84C
:1055C00056F70FFB0020F0630420022156F773FC0E
:1055D000F8BDC046B80B0000A124FC07B04BFD0786
:1055E000284CFD07F0B587B00D466149884269D067
:1055F0006049884236D0604988424BD05F49884232
:1056000000D0A1E05F4C606D206DC00300D400BEEF
:105610005F4801210180E07B002801D0FDF790F870
:1056200064205C49FDF776F8E073AE88002E00D167
:105630008AE0A8794B218F00012803D0622801D08D
:10564000422853D1FFF758FDA074FDF75DFEA07C02
:10565000FCF76AFF607D002801D0FDF771F84E4924
:10566000384681E068882E286ED0474808241946BD
:10567000234656F79DFA29780C224A434149891856
:105680005A22895C017069884180002181808021D3
:10569000817157E06E883A4808241946234656F728
:1056A00087FA698841802A780C235343354AD218F7
:1056B0005A23D25C0270172E0DD100218171322144
:1056C00081803FE0314802241946234656F770FA9C
:1056D000A988018036E0002383711422022930D08A
:1056E00005292ED017292BD132222AE00097AD1D93
:1056F000142E00D3142601AFB8191521891B58F7B1
:10570000EEFC38462946324658F7D0FC0025BD55F8
:10571000FDF79CFD0220222120A2FDF7BBFDE8B28F
:1057200001A9085C002801D06D1CF8E70620684339
:1057300041B200290AD4C0B28021081A400806E00C
:105740001A46828056F74DFA07B0F0BD0020009D42
:10575000C1B2042001AAFDF79DFD607D002801D0A3
:10576000FCF7EEFF0C492846FCF7D4FF6075EBE729
:105770000D0C000004FD00000DFD00000AFD0000FE
:105780000EFD0000B04BFD0705FD00000E0C0000F3
:1057900022300050A140FC071955FC07424C45201F
:1057A00057524954453A0000F0B51F48018810226D
:1057B0000A4302801D49012048800B461233002213
:1057C000202A12D0FF24E4431D882540C602D6407B
:1057D00008273740ED191D809D1C083B1E88264078
:1057E000F4191C8008322B46EAE7CA8A104B1A408B
:1057F000CA82CA891A40CA81888000220A810A881E
:1058000028231343172293430B800A8880231A43CB
:105810000A8008490A681A437F239A430A600004F1
:1058200005490860F0BDC04604000050000100506A
:10583000FFFCFFFF10E400E000E100E002E008C828
:10584000121F08C1002AFAD170477047002001E0FA
:1058500001C1121F002AFBD170470000034880F3EA
:10586000098800F025F8FAF753FEC046B06CFC0733
:1058700004207146084203D0EFF309800A49084723
:10588000EFF3088008490847704704207146084232
:1058900003D0EFF3098005490847EFF30880034977
:1058A00008477047FEE700005122FC07DD21FC0796
:1058B0000D48062101800120C1030C4A1160BFF38D
:1058C0004F8FBFF36F8F02211160BFF34F8FBFF374
:1058D0006F8F1060BFF34F8FBFF36F8F05200007EE
:1058E0000021018062B670470034005080E100E082
:1058F00017B967984C664C01963331B19159001530
:105900002368EC521E6244749A1BD18BAB75B66E41
:105910009EE7BA08B9A948ABA1AC031C2E0D296CAF
:1059200020EE8D0CE1F04A0CB325DC536A68862D1D
:1059300028D5E1C1E1C54729B55765C3BA47159ECA
:105940004F43313C939242E6A876FA3BEFB4875A34
:105950008C09E0D1815442408E4FD2B377E32A774D
:1059600020EE8D0CE1F04A0CB325DC536A68862CDE
:105970004F43313C939242E6A876FA3BEFB4875905
:1059800017B967984C664C01963331B191590014A0
:105990002368EC521E6244749A1BD18BAB75B66DB2
:1059A00028D5E1C1E1C54729B55765C3BA47159D5B
:1059B000F3D81C4511964D1213FED63BCC316C6EBC
:1059C00000000000D059FC070C4BFD07040001004B
:1059D000D859FC0701000000FFFF00008D27FC07DD
:1059E000021400004136FC07010D0000913AFC074B
:1059F000000D0000B939FC07000E00001F37FC073E
:105A0000010E00004537FC07030E00000D38FC07AF
:105A10000A0E00009538FC070C0E00005939FC07EF
:105A20001C0D0000BD3AFC07100D0000B539FC0745
:105A30000F0E00003539FC072C0E00003139FC0731
:105A4000120C0000293DFC07080E00005539FC0728
:105A500003280028022901290004080C0105090D6A
:105A600002060A0E03070B0F00050A0F01060B0CB6
:105A70000207080D0304090E001A2130FD00000082
:105A8000B45AFC0730000000A525FC070000000008
:105A90000000000000000000FF0000000000000007
:105AA00000000000000000000000000000000000F6
:105AB00000000000525AFC07100000000100000026
:105AC00010001000D45EFC07505AFC0702000000D2
:105AD0000100000000000000000000002059FC0749
:105AE0001000000008800200140000000000000008
:105AF000565AFC0702000000010000000D000D00D6
:105B0000CD65FC07505AFC070200000001000000B0
:105B100000000000000000004059FC0710000000D9
:105B2000088002001400000000000000565AFC0724
:105B3000020000000100000009000900AB65FC073D
:105B4000505AFC07020000000100000000000000A5
:105B500000000000F058FC071000000001020000E7
:105B60000200000000000000545AFC070200000080
:105B7000090002000200000000000000565AFC0765
:105B800002000000010000000B000B005F65FC0735
:105B9000505AFC0702000000010000000000000055
:105BA000000000000059FC07100000000100000088
:105BB0000200000000000000565AFC07020000002E
:105BC000010000000B000B006B65FC07505AFC073E
:105BD00002000000010000000000000000000000C2
:105BE0001059FC0710000000010200000100000035
:105BF00000000000545AFC070200000009000200E7
:105C00000200000000000000565AFC0702000000DD
:105C1000010000000C000C00B565FC07505AFC07A1
:105C20000200000001000000000000000000000071
:105C30003059FC0710000000410000001400000073
:105C400000000000545AFC07020000000900020096
:105C50000200000000000000565AFC07020000008D
:105C6000010000000C000C008D65FC07505AFC0779
:105C70000200000001000000000000000000000021
:105C80005059FC0710000000098202003200000099
:105C900000000000545AFC07020000000900020046
:105CA0000200000000000000565AFC07020000003D
:105CB000010000000A000A00C265FC07525AFC07F6
:105CC000100000000100000010001000E45EFC075E
:105CD000505AFC0702000000010000000000000014
:105CE000000000006059FC071000000008000200DE
:105CF0000180000000000000565AFC07020000006E
:105D00000100000008000800A265FC07505AFC07CB
:105D10000200000001000000000000000000000080
:105D20007059FC071000000008800000010000000E
:105D300000000000565AFC070200000001000000AD
:105D4000110011003C65FC07525AFC0710000000CE
:105D50000100000010001000F45EFC07505AFC0720
:105D60000200000001000000000000000000000030
:105D70008059FC0710000000010200000200000032
:105D800000000000545AFC07020000000900020055
:105D90000200000000000000565AFC07020000004C
:105DA00001000000100010004E65FC07505AFC076F
:105DB00002000000010000000000000000000000E0
:105DC0009059FC07100000000100000002000000D4
:105DD00000000000565AFC0702000000010000000D
:105DE000070007009A65FC07505AFC0702000000F4
:105DF000010000000000000000000000A059FC07A6
:105E0000100000004100000002000000000000003F
:105E1000545AFC07020000000900020002000000C2
:105E200000000000565AFC070200000001000000BC
:105E3000120012002965FC07505AFC0702000000FE
:105E4000010000000000000000000000B059FC0745
:105E500010000000010000000280000000000000AF
:105E6000565AFC0702000000010000000C000C0064
:105E70001C65FC077C5EFC0709000000130C000099
:105E8000253CFC07150C00002D3DFC07170C0000FD
:105E9000E13AFC07000C00002D3BFC0706FD00006A
:105EA0002530FC0703FD00008B30FC0708FD0000D7
:105EB000BF2FFC070EFD0000612AFC0705FD000056
:105EC000B530FC07012DFC07A52BFC07652BFC0753
:105ED000192BFC07595A08E4862A9E8FE911BC7CCD
:105EE00098434218595A08E4862A9E8FE911BC7CCF
:105EF0007C464218595A08E4862A9E08E911BC7C5F
:105F0000D0474218002800000100000000000000F7
:105F1000032800000100000002000000292A000000
:105F20000100000080800000032800000100000044
:105F300004000000242A000001000000808000000E
